:100000000C945D000C9485000C9485000C94850084
:100010000C9485000C9485000C9485000C9485004C
:100020000C9485000C9485000C9485000C942001A0
:100030000C9485000C9485000C9485000C9485002C
:100040000C9420030C9485000C9485000C9485007E
:100050000C9485000C9485000C9485000C9485000C
:100060000C9485000C94850000000007000201003C
:100070000003040600000000000000000102040864
:100080001020408001020408102001020408102002
:10009000040404040404040402020202020203032E
:1000A0000303030300000000250028002B000000CC
:1000B0000000240027002A00900011241FBECFEF6B
:1000C000D8E0DEBFCDBF11E0A0E0B1E001C01D92DD
:1000D000A633B107E1F711E0A0E0B1E0E4E0FCE015
:1000E00002C005900D92A030B107D9F710E0CAEB1D
:1000F000D0E004C02297FE010E94F005C83BD10762
:10010000C9F70E9497040C9400060C94000008950F
:1001100040E050E060E271E480E091E00C94ED009A
:1001200080E091E00E94DE0183E091E00E94DE0128
:100130006AE070E080E091E00E947B026BE070E09A
:1001400083E091E00E947B0281E0809306010895A4
:100150008F929F92AF92BF92CF92DF92EF92FF92D7
:10016000CF93DF93EC016A017B010E946A034B018C
:100170005C010E946A03681979098A099B096C1558
:100180007D058E059F05A8F3CE010E948102CE0158
:1001900003960E9481021E82DF91CF91FF90EF9023
:1001A000DF90CF90BF90AF909F908F900895CF93A6
:1001B000DF93EC018E8181110BC06AE070E0CE010B
:1001C0000E947B026BE070E0CE0103960E947B02EE
:1001D00081E08E83DF91CF910895CF92DF92EF92ED
:1001E000FF92CF93DF93EC016A017B010E94D7005D
:1001F00060E070E0CE010E94C20264EB70E0CE01CC
:1002000003960E94C2020E946A0329E23CE543E988
:1002100051E4C701B6010E94A40420E030E04AE79F
:1002200054E40E94A4040E940C05AB01BC01CE0161
:10023000DF91CF91FF90EF90DF90CF900C94A800CA
:100240001F920F920FB60F9211242F933F934F934B
:100250005F936F937F938F939F93AF93BF93EF932E
:10026000FF938091080187FF05C0109285001092CE
:1002700084001AC020910801332727FD3095809112
:10028000070190E0281739077CF48091080199272D
:1002900087FD9095FC01EE0FFF1FE80FF91FE75F48
:1002A000FE4F808186FD37C0809108018F5F80936B
:1002B000080120910801332727FD3095809107011F
:1002C00090E028173907CCF5809108018C30F4F1C3
:1002D00034C080910801992787FD9095FC01EE0FAD
:1002E000FF1FE80FF91FE75FFE4F808161E08F730A
:1002F0000E94190452C080E49CE905C080918400EA
:1003000090918500049690938900809388008FEFE8
:100310008093080142C080910801992787FD90953C
:10032000FC01EE0FFF1FE80FF91FE75FFE4F808112
:1003300060E08F730E941904B7CF80918400909180
:100340008500049680349C49B0F2D8CF8091840017
:100350009091850020910801332727FD3095F90100
:10036000EE0FFF1FE20FF31FE75FFE4F2181328187
:10037000820F931F909389008093880080910801D9
:10038000992787FD9095FC01EE0FFF1FE80FF91FDD
:10039000E75FFE4F808186FD9CCFFF91EF91BF917B
:1003A000AF919F918F917F916F915F914F913F910D
:1003B0002F910F900FBE0F901F901895209107015D
:1003C0002C30A0F4FC012083822F8F5F80930701E3
:1003D000822F90E0FC01EE0FFF1FE80FF91FE75F8F
:1003E000FE4F88EB9BE09283818308952FEFFC0101
:1003F00020830895DF92EF92FF920F931F93CF9384
:10040000DF93EC01D62E7A01890188818C3008F0C7
:1004100065C061E08D2D0E94E1038881A82FB0E0C6
:10042000FD01EE0FFF1FEA0FFB1FE75FFE4F2D2DB3
:100430002F739081907C922B908360E272E06E1912
:100440007F0977FF02C06D5F7F4F75956795759542
:100450006795698340E659E0401B510B57FF02C086
:100460004D5F5F4F55954795559547954A836CE08D
:100470000E9499059CE0899FB001112420E030E0A2
:10048000A901460F571FFA01EE0FFF1FE40FF51FDA
:10049000E75FFE4F908196FD15C02F5F3F4F2C30D8
:1004A000310571F71DC01092800082E080938100B9
:1004B0001092850010928400B19A80916F00826042
:1004C00080936F00888190E0FC01EE0FFF1FE80F22
:1004D000F91FE75FFE4F808180648083888103C0BD
:1004E000882309F3EFCFDF91CF911F910F91FF90F8
:1004F000EF90DF90089520E639E040E252E00C945E
:10050000FA01FC01808190E0FC01EE0FFF1FE80F73
:10051000F91FE75FFE4F80818F7B80830895FC0188
:1005200080818C3070F5918128E830E0291B3109F9
:1005300097FD3395220F331F220F331F6217730766
:100540007CF0928128E532E0291B310997FD339533
:10055000220F331F220F331F621773070CF49B0106
:100560004FB7F89490E0FC01EE0FFF1FE80FF91F62
:10057000E75FFE4F22503109220F331F3283218360
:100580004FBF0895AF92BF92CF92DF92EF92FF924A
:100590000F931F93CF93DF93EC01603282E07807D3
:1005A0000CF041C077FD04C0653B710524F405C023
:1005B00060E070E002C064EB70E0298188E890E0C0
:1005C000821B910927FD9395880F991F880F991F0A
:1005D0005C01CC24B7FCC094DC2C882777FD809587
:1005E000982F2A8148E552E0421B510927FD539577
:1005F000440F551F440F551F8A01222717FD2095D0
:10060000322F3F932F931F930F9314EBE12EF12C76
:1006100000E010E020E030E0A9010E9450040F90BB
:100620000F900F900F90CE01DF91CF911F910F91FE
:10063000FF90EF90DF90CF90BF90AF900C948F021F
:100640001F920F920FB60F9211242F933F938F9307
:100650009F93AF93BF9380912D0190912E01A09114
:100660002F01B091300130913501232F2D5F2D37AF
:1006700020F40196A11DB11D05C0232F2A57029613
:10068000A11DB11D2093350180932D0190932E0162
:10069000A0932F01B09330018091310190913201EC
:1006A000A0913301B09134010196A11DB11D809339
:1006B000310190933201A0933301B0933401BF9183
:1006C000AF919F918F913F912F910F900FBE0F90FF
:1006D0001F9018950F931F938FB7F89400912D01D9
:1006E00010912E0120912F01309130018FBFB80160
:1006F000C9011F910F910895789484B5826084BDDB
:1007000084B5816084BD85B5826085BD85B5816015
:1007100085BDEEE6F0E0808181608083E1E8F0E075
:100720001082808182608083808181608083E0E8A4
:10073000F0E0808181608083E1EBF0E08081846083
:100740008083E0EBF0E0808181608083EAE7F0E085
:1007500080818460808380818260808380818160E9
:1007600080838081806880831092C10008958330E7
:1007700069F028F48130A1F0823011F514C0863080
:10078000B1F08730C1F08430D9F404C0809180008A
:100790008F7703C0809180008F7D809380000895C3
:1007A00084B58F7702C084B58F7D84BD0895809114
:1007B000B0008F7703C08091B0008F7D8093B00030
:1007C0000895CF93DF9390E0FC01E458FF4F4491EC
:1007D000FC01E057FF4F8491882341F190E0880F9E
:1007E000991FFC01E255FF4F25913491D9018C5599
:1007F0009F4FFC0185919491C82FD92F9FB7F894F2
:100800008C91611106C0409584238C938881842348
:1008100008C0623041F4242F209582238C93888174
:10082000842B888302C0842B8C939FBFDF91CF9150
:1008300008950F931F93CF93DF931F92CDB7DEB729
:10084000282F30E0F901E859FF4F8491F901E4586D
:10085000FF4F1491F901E057FF4F04910023D1F0AD
:10086000882321F069830E94B7036981E02FF0E0BB
:10087000EE0FFF1FEC55FF4F85919491DC019FB760
:10088000F8948C91611103C01095812301C0812BD4
:100890008C939FBF0F90DF91CF911F910F9108957F
:1008A0004F925F926F927F92AF92BF92CF92DF9200
:1008B000EF92FF920F931F93CF93DF93CDB7DEB7E5
:1008C00029013A01621B730B840B950B29893A8924
:1008D0004B895C892A193B094C095D09298B3A8BA4
:1008E0004B8B5C8B9B01AC0169897A898B899C89D4
:1008F0000E948905E418F50806091709A80197015F
:100900000E94A5052A0D3B1D4C1D5D1DB901CA01A4
:10091000DF91CF911F910F91FF90EF90DF90CF90DB
:10092000BF90AF907F906F905F904F9008950E941E
:100930007C030E948700C0E0D0E00E9488002097DE
:10094000E1F30E940000F9CF0CD0A9C0A1D040F083
:1009500098D030F021F45F3F19F08AC05111D3C014
:100960008DC0AED098F39923C9F35523B1F3951BED
:10097000550BBB27AA2762177307840738F09F5FC0
:100980005F4F220F331F441FAA1FA9F333D00E2E2F
:100990003AF0E0E830D091505040E695001CCAF79C
:1009A00029D0FE2F27D0660F771F881FBB1F261761
:1009B00037074807AB07B0E809F0BB0B802DBF0134
:1009C000FF2793585F4F2AF09E3F510568F050C0B3
:1009D0009AC05F3FECF3983EDCF386957795679578
:1009E000B795F7959F5FC9F7880F911D96958795E5
:1009F00097F90895E1E0660F771F881FBB1F621704
:100A000073078407BA0720F0621B730B840BBA0BC1
:100A1000EE1F88F7E09508955BD088F09F5790F01F
:100A2000B92F9927B751A0F0D1F0660F771F881F13
:100A3000991F1AF0BA95C9F712C0B13081F062D08F
:100A4000B1E008955FC0672F782F8827B85F39F02D
:100A5000B93FCCF3869577956795B395D9F73EF472
:100A600090958095709561957F4F8F4F9F4F08951A
:100A700097F99F6780E870E060E008959FEF80EC51
:100A8000089500240A9416161706180609060895F4
:100A900000240A9412161306140605060895092E5A
:100AA0000394000C11F4882352F0BB0F40F4BF2BC9
:100AB00011F460FF04C06F5F7F4F8F4F9F4F089509
:100AC00057FD9058440F551F59F05F3F71F04795FF
:100AD000880F97FB991F61F09F3F79F087950895E4
:100AE000121613061406551FF2CF4695F1DF08C003
:100AF000161617061806991FF1CF86957105610520
:100B000008940895E894BB2766277727CB0197F9C7
:100B10000895DB018F939F930E94C105BF91AF9110
:100B2000A29F800D911DA39F900DB29F900D112447
:100B30000895991B79E004C0991F961708F0961B39
:100B4000881F7A95C9F780950895052E97FB16F4AE
:100B5000009407D057FD0DD00E94CC0507FC09D0AA
:100B60007EF490958095709561957F4F8F4F9F4F44
:100B7000089550954095309521953F4F4F4F5F4FC9
:100B800008950E94F405A59F900DB49F900DA49F19
:100B9000800D911D11240895A1E21A2EAA1BBB1BE2
:100BA000FD010DC0AA1FBB1FEE1FFF1FA217B30739
:100BB000E407F50720F0A21BB30BE40BF50B661F4F
:100BC000771F881F991F1A9469F760957095809513
:100BD00090959B01AC01BD01CF010895EE0FFF1F61
:100BE0000590F491E02D0994A29FB001B39FC0013C
:100BF000A39F01D0B29F700D811D1124911D0895F6
:040C0000F894FFCF96
:00000001FF
