:100000000C945F000C9487000C9487000C9487007C
:100010000C9487000C9487000C9487000C94870044
:100020000C9487000C9487000C9487000C9429058D
:100030000C9487000C9487000C9487000C94870024
:100040000C94E3070C9487000C9454090C949709C2
:100050000C9487000C9487000C9487000C94870004
:100060000C9487000C948700000000070002010038
:100070000003040600000000000000000102040864
:100080001020408001020408102001020408102002
:10009000040404040404040402020202020203032E
:1000A0000303030300000000250028002B000000CC
:1000B0000000240027002A005A03530AA003112439
:1000C0001FBECFEFD8E0DEBFCDBF13E0A0E0B1E0B0
:1000D000E6EDF6E202C005900D92A436B107D9F71D
:1000E00014E0A4E6B3E001C01D92AC39B107E1F71A
:1000F00010E0CCEBD0E004C02297FE010E94A210D9
:10010000C83BD107C9F70E94A90A0C945E130C944E
:100110000000FC0173836283089581E0089540E04C
:1001200050E060E271E4FC01828193810C94F90358
:100130000F931F93CF93DF93EC010E94E7058E018D
:100140000D5F1F4FC8010E94E7056AE070E0CE0115
:100150000E9484066BE070E0C8010E94840681E082
:100160008E83DF91CF911F910F910895CF93DF93ED
:10017000EC018A819B8107960E94CA04EA81FB8177
:1001800080858E8387818D8381858C83DF91CF915C
:100190000895CF93DF93EC010E94B6006BE071E00D
:1001A0008DEE93E00E940C0C8C81882329F08D81C8
:1001B000811104C06E8103C060E001C061E04AE0CB
:1001C00050E070E08DEE93E00E94FB0C8C81882360
:1001D00029F08D81811104C08E8103C080E001C0AF
:1001E00081E0DF91CF910895CF92DF92EF92FF925D
:1001F0000F931F93CF93DF93EC01E881F981048083
:10020000F581E02D0995882309F478C01C2F0D2F66
:10021000CE010E94B6006AE271E08DEE93E00E948A
:100220000C0C6FE571E08DEE93E00E940C0C6D817B
:100230004AE050E070E08DEE93E00E94F30C6FE630
:1002400071E08DEE93E00E940C0C6E814AE050E06C
:1002500070E08DEE93E00E94F30C60E871E08DEEAB
:1002600093E00E940C0C6C814AE050E070E08DEE4F
:1002700093E00E94FB0C84E6C82ED12CE12CF12CDB
:1002800034C08E818823A9F065E670E080E090E0BC
:100290000E94BA0AA70196010E947910CA01B90109
:1002A0000E94120F9B01AC016CE68A819B810E9427
:1002B0005C048D818823A9F065E670E080E090E021
:1002C0000E94BA0AA70196010E947910CA01B901D9
:1002D0000E94120F9B01AC0162E78A819B810E9400
:1002E0005C04812F902F0E94B600E881F981048080
:1002F000F581E02DCE0109958111C3CFDF91CF911A
:100300001F910F91FF90EF90DF90CF900895CF92C3
:10031000DF92EF92FF920F931F93CF93DF93CDB7AE
:10032000DEB727970FB6F894DEBF0FBECDBF8C01A6
:10033000FC012781308547E0429FC001439F900D1B
:10034000112460E070E08F589C4F0E94BB0BFC01B1
:1003500080818A3209F0CFC0D9C0823409F4B0C09C
:1003600024F4813409F0B2C099C0863421F0843578
:1003700009F0ACC029C062E971E08DEE93E00E9403
:100380002B0CF80127813085D29EC001D39E900DA1
:10039000112461E070E08F589C4F0E94BB0BFC0160
:1003A00080816C2D0E944910682F772767FD70951A
:1003B000872F972F0E94120FAB01BC01F801828199
:1003C00093810E94F90382C060EB71E08DEE93E0AF
:1003D0000E940C0CF80127813085D29EC001D39E6B
:1003E000900D112461E070E08F589C4F0E94BB0B70
:1003F000FC0180818C3441F1823509F067C066ECE4
:1004000071E08DEE93E00E942B0CF801278130857E
:10041000D29EC001D39E900D112462E070E08F58EF
:100420009C4F0E94BB0BFC0180816C2D0E944910E7
:10043000682F772767FD7095872F972F0E94120FDF
:100440009B01AC0162E724C06EEC71E08DEE93E09D
:100450000E942B0CF80127813085D29EC001D39ECB
:10046000900D112462E070E08F589C4F0E94BB0BEE
:10047000FC0180816C2D0E944910682F772767FD51
:100480007095872F972F0E94120F9B01AC016CE68D
:10049000F801828193810E945C0418C065ED71E0CF
:1004A0008DEE93E00E942B0CFA82E982F8018281A2
:1004B00093819C838B83CE0101960E94F40006C039
:1004C0006BEE71E08DEE93E00E942B0CF80127811A
:1004D00030852F5F3F4F30872783D29EC001D39E48
:1004E000900D112460E070E08F589C4F0E94BB0B70
:1004F000FC01808108C097E0D92E2AE0C22E32E3A9
:10050000E32E32E0F32E813509F027CF27960FB680
:10051000F894DEBF0FBECDBFDF91CF911F910F9139
:10052000FF90EF90DF90CF900895CF93DF93EC0191
:100530000E94B6008D81811102C08E8101C081E0D0
:10054000DF91CF9108950F931F93CF93DF938C0189
:1005500086E492E0F8019583848389E190E00E942B
:10056000B60AEC010E949800CE0107960E94AE04E4
:10057000F801D183C08314861386D783C683DF91A5
:10058000CF911F910F9108950F931F93CF93DF93F6
:10059000EC018B018A819B810E94B80A1B821A821E
:1005A0000115110521F001301105B1F40AC087E0F1
:1005B00090E00E94B60A22E332E0DC012D933C93E6
:1005C00009C084E090E00E94B60A2CE332E0FC010E
:1005D000318320839B838A838A819B81009769F082
:1005E000DC01ED91FC91688179810190F081E02D31
:1005F000DF91CF911F910F910994DF91CF911F91BE
:100600000F910895FC01A281B381109741F0ED9103
:10061000FC9111970280F381E02DCD01099404969D
:100620000C94870140E855E260E070E08DEE93E0C5
:100630000C94D2096CE072E08DEE93E00E942B0CDA
:1006400060E070E084E693E00E94C402809166035B
:1006500090916703DC01ED91FC910480F581E02D20
:100660000995882321F084E693E00E94020362E06A
:1006700070E084E693E00E94C4028091660390914A
:100680006703DC01ED91FC910480F581E02D099573
:10069000811106C061E070E084E693E00E94C4022C
:1006A00084E693E00E94020362E172E08DEE93E043
:1006B0000C942B0C68E172E081E793E00E949E0BA2
:1006C0006BE172E088E793E00E949E0B6FE172E0BD
:1006D0008FE793E00E949E0B63E272E086E893E06E
:1006E0000E949E0B65E272E08DE893E00E949E0BF3
:1006F00067E272E084E993E00E949E0B69E272E097
:100700008BE993E00E949E0B63E272E082EA93E041
:100710000E949E0B69E272E089EA93E00E949E0BC0
:1007200067E272E080EB93E00E949E0B6CE272E065
:1007300087EB93E00E949E0B84E693E00C94A30267
:10074000CF93DF93CEEBD3E02797CE010E942D0B02
:1007500083E0C137D807C1F7DF91CF910895CF92D9
:10076000DF92EF92FF92CF93DF93EC016A017B015E
:100770006CE472E08DEE93E00E942B0CC701B60191
:100780000E94570867E672E08DEE93E00E942B0C02
:1007900063E872E08DEE93E00E942B0CCE010E9484
:1007A0008A06CE0103960E948A061E82DF91CF91AF
:1007B000FF90EF90DF90CF900895CF93DF93EC01FF
:1007C0008E81811111C06DE972E08DEE93E00E947F
:1007D0000C0C6AE070E0CE010E9484066BE070E0D1
:1007E000CE0103960E94840681E08E83DF91CF9133
:1007F00008958F929F92AF92BF92CF92DF92EF9225
:10080000FF92CF93DF93EC016A017B010E94DD032D
:1008100060E070E0CE010E94CB0664EB70E0CE0198
:1008200003960E94CB066AEB72E08DEE93E00E9485
:100830000C0C29E23CE543E951E4C701B6010E94F2
:10084000770E20E030E04AE754E40E94C60F0E9491
:10085000E40E4B015C012AE030E0AB01BC018DEEFF
:1008600093E00E949B0C61ED72E08DEE93E00E949C
:100870000C0C22E030E0B701A6018DEE93E00E945F
:100880000C0E6EEF72E08DEE93E00E942B0CB50122
:10089000A401CE010E94AF0363E073E08DEE93E00C
:1008A000DF91CF91FF90EF90DF90CF90BF90AF900E
:1008B0009F908F900C942B0CCF92DF92EF92FF922F
:1008C0000F931F93CF93DF931F92CDB7DEB78C01A9
:1008D00069017A0169830E94DD0369816C3659F0F0
:1008E000623791F560E070E0C80103960E94CB0684
:1008F00060E070E008C064EB70E0C80103960E94FD
:10090000CB0664EB70E0C8010E94CB0629E23CE50F
:1009100043E951E4C701B6010E94770E20E030E0C0
:100920004AE754E40E94C60F0E94E40EAB01BC01EA
:10093000C8010F90DF91CF911F910F91FF90EF9021
:10094000DF90CF900C94AF030F90DF91CF911F9168
:100950000F91FF90EF90DF90CF900895CF93DF93AA
:10096000EC0148E552E06EE070E003960E94E4047A
:1009700048E552E063E170E0CE0108960E94E4048D
:1009800048E552E062E170E0CE010D96DF91CF9133
:100990000C94E404CF93DF93EC0103960E940F05BF
:1009A0008883CE0108960E940F058983CE010D969B
:1009B0000E940F058A838881811102C0898101C04C
:1009C00081E0DF91CF910895FC01728361835483AC
:1009D000438308950F931F93CF93DF93EC018B0113
:1009E0006EE173E08DEE93E00E940C0C69817A81D8
:1009F0004AE050E08DEE93E00E94F30C65E373E073
:100A00008DEE93E00E940C0C4AE050E0B8018DEEB0
:100A100093E0DF91CF911F910F910C94FB0C0F93FA
:100A20001F93CF93DF93EC0189810E9429078C01EA
:100A3000BC01CE010E94EA0481E02B813C810217B7
:100A400013070CF480E08883DF91CF911F910F9101
:100A500008951F920F920FB60F9211242F933F9378
:100A60004F935F936F937F938F939F93AF93BF93B6
:100A7000EF93FF938091BF0387FF05C0109285001D
:100A8000109284001AC02091BF03332727FD3095B0
:100A90008091BE0390E0281739077CF48091BF0352
:100AA000992787FD9095FC01EE0FFF1FE80FF91FB6
:100AB000E054FC4F808186FD37C08091BF038F5F7B
:100AC0008093BF032091BF03332727FD309580918A
:100AD000BE0390E028173907CCF58091BF038C3016
:100AE000F4F134C08091BF03992787FD9095FC01F4
:100AF000EE0FFF1FE80FF91FE054FC4F808161E00B
:100B00008F730E94AC0752C080E49CE905C08091BD
:100B100084009091850004969093890080938800CA
:100B20008FEF8093BF0342C08091BF03992787FD59
:100B30009095FC01EE0FFF1FE80FF91FE054FC4FEA
:100B4000808160E08F730E94AC07B7CF80918400F2
:100B500090918500049680349C49B0F2D8CF809162
:100B60008400909185002091BF03332727FD3095A5
:100B7000F901EE0FFF1FE20FF31FE054FC4F21813C
:100B80003281820F931F9093890080938800809117
:100B9000BF03992787FD9095FC01EE0FFF1FE80F1B
:100BA000F91FE054FC4F808186FD9CCFFF91EF91AF
:100BB000BF91AF919F918F917F916F915F914F9175
:100BC0003F912F910F900FBE0F901F90189520917D
:100BD000BE032C30A0F4FC012083822F8F5F809312
:100BE000BE03822F90E0FC01EE0FFF1FE80FF91FFC
:100BF000E054FC4F88EB9BE09283818308952FEFB4
:100C0000FC0120830895DF92EF92FF920F931F93D0
:100C1000CF93DF93EC01D62E7A01890188818C3045
:100C200008F065C061E08D2D0E9474078881A82FAF
:100C3000B0E0FD01EE0FFF1FEA0FFB1FE054FC4F79
:100C40002D2D2F739081907C922B908360E272E027
:100C50006E197F0977FF02C06D5F7F4F75956795AD
:100C600075956795698340E659E0401B510B57FF26
:100C700002C04D5F5F4F55954795559547954A83FF
:100C80006CE00E943D109CE0899FB001112420E09F
:100C900030E0A901460F571FFA01EE0FFF1FE40FC6
:100CA000F51FE054FC4F908196FD15C02F5F3F4F1C
:100CB0002C30310571F71DC01092800082E08093C6
:100CC00081001092850010928400B19A80916F008B
:100CD000826080936F00888190E0FC01EE0FFF1F1F
:100CE000E80FF91FE054FC4F808180648083888185
:100CF00003C0882309F3EFCFDF91CF911F910F91AC
:100D0000FF90EF90DF90089520E639E040E252E056
:100D10000C940306FC01808190E0FC01EE0FFF1FA4
:100D2000E80FF91FE054FC4F80818F7B808308958A
:100D3000FC0180818C3070F5918128E830E0291B1E
:100D4000310997FD3395220F331F220F331F62178E
:100D500073077CF0928128E532E0291B310997FD69
:100D60003395220F331F220F331F621773070CF4C2
:100D70009B014FB7F89490E0FC01EE0FFF1FE80FC6
:100D8000F91FE054FC4F22503109220F331F3283E8
:100D900021834FBF0895AF92BF92CF92DF92EF921F
:100DA000FF920F931F93CF93DF93EC01603282E0A9
:100DB00078070CF041C077FD04C0653B710524F451
:100DC00005C060E070E002C064EB70E0298188E853
:100DD00090E0821B910927FD9395880F991F880F3A
:100DE000991F5C01CC24B7FCC094DC2C882777FDCC
:100DF0008095982F2A8148E552E0421B510927FD32
:100E00005395440F551F440F551F8A01222717FD84
:100E10002095322F3F932F931F930F9314EBE12EC6
:100E2000F12C00E010E020E030E0A9010E94E60A89
:100E30000F900F900F900F90CE01DF91CF911F91E7
:100E40000F91FF90EF90DF90CF90BF90AF900C94F8
:100E500098068E3008F08E50877020910A0140E489
:100E6000249F90011124822B80937C0080917A0032
:100E7000806480937A0080917A0086FDFCCF209177
:100E8000780030917900932F80E0AC01422B9A01D9
:100E9000C9010895833069F028F48130A1F08230CF
:100EA00011F514C08630B1F08730C1F08430D9F428
:100EB00004C0809180008F7703C0809180008F7D77
:100EC00080938000089584B58F7702C084B58F7DAC
:100ED00084BD08958091B0008F7703C08091B000E9
:100EE0008F7D8093B0000895CF93DF9390E0FC0155
:100EF000E458FF4F4491FC01E057FF4F8491882351
:100F000041F190E0880F991FFC01E255FF4F2591B8
:100F10003491D9018C559F4FFC0185919491C82F34
:100F2000D92F9FB7F8948C91611106C04095842306
:100F30008C938881842308C0623041F4242F20954B
:100F400082238C938881842B888302C0842B8C938A
:100F50009FBFDF91CF9108950F931F93CF93DF939E
:100F60001F92CDB7DEB7282F30E0F901E859FF4FC7
:100F70008491F901E458FF4F1491F901E057FF4FB4
:100F800004910023D1F0882321F069830E944A074D
:100F90006981E02FF0E0EE0FFF1FEC55FF4F8591C8
:100FA0009491DC019FB7F8948C91611103C0109566
:100FB000812301C0812B8C939FBF0F90DF91CF9134
:100FC0001F910F9108951F920F920FB60F92112447
:100FD0002F933F938F939F93AF93BF938091E4039D
:100FE0009091E503A091E603B091E7033091EC0303
:100FF000232F2D5F2D3720F40196A11DB11D05C0B3
:10100000232F2A570296A11DB11D2093EC03809334
:10101000E4039093E503A093E603B093E703809184
:10102000E8039091E903A091EA03B091EB030196E4
:10103000A11DB11D8093E8039093E903A093EA03F7
:10104000B093EB03BF91AF919F918F913F912F91FF
:101050000F900FBE0F901F9018950F931F939FB77F
:10106000F8940091E8031091E9032091EA0330918C
:10107000EB0386B5A89B06C08F3F21F00F5F1F4F83
:101080002F4F3F4F9FBF322F212F102F0027080FC8
:10109000111D211D311D42E0000F111F221F331FA2
:1010A0004A95D1F7B801C9011F910F910895CF92C8
:1010B000DF92EF92FF92CF93DF936B017C010E944E
:1010C0002D08EB010EC00E942D086C1B7D0B683EA5
:1010D000734038F081E0C81AD108E108F108C8511E
:1010E000DC4FC114D104E104F10469F7DF91CF9121
:1010F000FF90EF90DF90CF900895789484B5826050
:1011000084BD84B5816084BD85B5826085BD85B5AB
:10111000816085BDEEE6F0E0808181608083E1E85A
:10112000F0E0108280818260808380818160808392
:10113000E0E8F0E0808181608083E1EBF0E0808195
:1011400084608083E0EBF0E0808181608083EAE767
:10115000F0E08081846080838081826080838081F0
:10116000816080838081806880831092C1000895AF
:10117000FC0184859585FC01E05CFF4F2081318175
:10118000FC01EE5BFF4F80819181281B390B2F738F
:101190003327C9010895FC0184859585FC01E05C35
:1011A000FF4F40815181FC01EE5BFF4F2081318177
:1011B0004217530741F00190F081E02DE80FF91F2D
:1011C000208130E002C02FEF3FEFC9010895FC01FC
:1011D00084859585FC01E05CFF4F40815181FC01D5
:1011E000EE5BFF4F208131814217530781F0A081D0
:1011F000B181A80FB91F8C91208131812F5F3F4FA2
:101200002F73332731832083282F30E002C02FEF44
:101210003FEFC9010895FC0181A1882329F0A48929
:10122000B5898C9186FFFBCF11A20895CF93DF93F0
:10123000FC0126853785D901A05CBF4F8D919C911B
:10124000119701968F739927E901CE5BDF4F488193
:10125000598184179507D9F30D90BC91A02DA20F49
:10126000B31F6C93A685B785A05CBF4F11969C9366
:101270008E93A689B7892C9181E090E0078C02C0FB
:10128000880F991F0A94E2F7282B2C9381E081A301
:101290000488F589E02D80818064808381E090E07E
:1012A000DF91CF91089508951F920F920FB60F927C
:1012B00011242F933F934F938F939F93EF93FF931B
:1012C0008091C00082FD1CC04091C60080919304B3
:1012D0009091940401968F739927209195043091F1
:1012E00096048217930771F0E0919304F0919404AF
:1012F000ED5AFB4F4083909394048093930402C073
:101300008091C600FF91EF919F918F914F913F91F6
:101310002F910F900FBE0F901F9018958DEE93E0B8
:101320000E94B808892B11F00C94530908951F925C
:101330000F920FB60F9211242F933F938F939F9389
:10134000EF93FF9320914F0430915004809151040A
:10135000909152042817390731F48091C1008F7D94
:101360008093C10014C0E0915104F0915204E15FF8
:10137000FB4F2081809151049091520401968F730C
:10138000992790935204809351042093C600FF91B3
:10139000EF919F918F913F912F910F900FBE0F90E2
:1013A0001F901895CF92DF92EF92FF92CF93DF9329
:1013B000EC016A017B01411581EE58076105710559
:1013C000F9F0EC89FD8981E090E008A002C0880F67
:1013D000991F0A94E2F7808360E079E08DE390E062
:1013E000A70196010E945710215031094109510966
:1013F0005695479537952795211580E1380798F040
:10140000EC89FD89108260E874E88EE190E0A70124
:1014100096010E94571021503109410951095695F2
:10142000479537952795E889F9893083EA89FB89BB
:10143000208319A2EE89FF89408181E090E09C0120
:101440000C8C02C0220F331F0A94E2F7422B408318
:10145000EE89FF8940819C010D8C02C0220F331F51
:101460000A94E2F7422B4083EE89FF8940819C0178
:101470000E8C02C0220F331F0A94E2F7422B4083E6
:10148000EE89FF8920810F8C02C0880F991F0A9472
:10149000E2F7809582238083DF91CF91FF90EF90D8
:1014A000DF90CF9008951092F0031092EF0388EE32
:1014B00093E0A0E0B0E08093F1039093F203A09357
:1014C000F303B093F4038BE493E09093EE038093E3
:1014D000ED0383E594E09093FA038093F9038FE0A2
:1014E00094E09093FC038093FB0385EC90E0909351
:1014F000FE038093FD0384EC90E0909300048093BE
:10150000FF0380EC90E0909302048093010481EC4F
:1015100090E0909304048093030482EC90E0909315
:1015200006048093050486EC90E090930804809371
:10153000070484E08093090483E080930A0487E031
:1015400080930B0485E080930C0481E080930D046C
:1015500008950E947D080E941203CEE8D9E00E94FF
:101560001A032097E1F30E948E09F9CF0C94B21070
:101570000C944D110F931F93CF93DF9300D000D0A5
:10158000CDB7DEB79B01AC016115710581059105F1
:1015900079F069833A834B835C830E9439122981F5
:1015A0003A814B815C810E9479108B019C0103C0C0
:1015B00000E010E09801B801C9010F900F900F9062
:1015C0000F90DF91CF911F910F9108954F925F92ED
:1015D0006F927F92AF92BF92CF92DF92EF92FF9283
:1015E0000F931F93CF93DF93CDB7DEB729013A0155
:1015F000621B730B840B950B29893A894B895C8993
:101600002A193B094C095D09298B3A8B4B8B5C8B62
:101610009B01AC0169897A898B899C890E942D1074
:10162000E418F50806091709A80197010E94791026
:101630002A0D3B1D4C1D5D1DB901CA01DF91CF91E3
:101640001F910F91FF90EF90DF90CF90BF90AF90E0
:101650007F906F905F904F900895FC018081918101
:101660000C944D11CF93DF93EC0188819981009701
:1016700011F00E944D11198218821D821C821B825A
:101680001A82DF91CF9108950F931F93CF93DF9329
:10169000EC018B016F5F7F4F888199810E94471217
:1016A000009731F0998388831B830A8381E001C00E
:1016B00080E0DF91CF911F910F910895CF93DF9339
:1016C000EC0188819981892B31F08A819B81861771
:1016D000970708F00CC0CE010E94440B882349F004
:1016E0008C819D81892B19F4E881F981108281E038
:1016F00001C080E0DF91CF910895EF92FF920F93A8
:101700001F93CF93DF93EC017B018A01BA010E9402
:101710005E0B811104C0CE010E94320B07C01D83F5
:101720000C83B701888199810E941813CE01DF9143
:10173000CF911F910F91FF90EF900895DC011196CA
:101740001C921E9213961C921E92129715961C9232
:101750001E92149716961C926115710559F0DB01C3
:101760000D900020E9F7AD0141505109461B570B80
:101770000C947D0B0895FC01248135816217730759
:1017800020F480819181009729F41092970467E9F1
:1017900074E002C0680F791FCB010895CF92DF92E9
:1017A000EF92FF920F931F93CF93DF936C01EB01A6
:1017B0007A01E60EF71E00E010E00BC06991D60139
:1017C000ED91FC910190F081E02DC6010995080F83
:1017D000191FCE15DF0591F7C801DF91CF911F9139
:1017E0000F91FF90EF90DF90CF90089561157105F4
:1017F00081F0DB010D900020E9F7AD014150510966
:10180000461B570BDC01ED91FC910280F381E02D2A
:10181000099480E090E008950C94F60BDC01ED91C2
:10182000FC910190F081E02D09940F931F93CF93C9
:10183000DF93EC016DE00E940E0C8C016AE0CE019A
:101840000E940E0C9C01200F311FC901DF91CF9126
:101850001F910F9108950F931F93CF93DF93EC0186
:101860000E94F60B8C01CE010E94150C9801280FE6
:10187000391FC901DF91CF911F910F9108954F92A8
:101880005F926F927F929F92AF92BF92CF92DF92C0
:10189000EF92FF920F931F93CF93DF93CDB7DEB7F5
:1018A000A1970FB6F894DEBF0FBECDBF5C016A01F1
:1018B0007B01922E19A281E0821710F08AE0982E07
:1018C0008E010F5D1F4F492C512C612C712CC701CB
:1018D000B601A30192010E9457108C2D929E80198F
:1018E0001124015011098A3014F4805D01C0895C13
:1018F000F801808369017A01C114D104E104F10483
:1019000031F7B801C5010E94F60BA1960FB6F89405
:10191000DEBF0FBECDBFDF91CF911F910F91FF9022
:10192000EF90DF90CF90BF90AF909F907F906F909F
:101930005F904F9008952115310541F4DC01ED9140
:10194000FC910190F081E02D642F09940C943F0CE0
:10195000CF92DF92EF92FF920F931F93CF93DF937B
:10196000EC016A017B012115310579F4E881F981E7
:101970000190F081E02D642FDF91CF911F910F91A5
:10198000FF90EF90DF90CF9009942A30310519F441
:1019900077FD0EC02AE0B701A601CE01DF91CF91FD
:1019A0001F910F91FF90EF90DF90CF900C943F0C20
:1019B0006DE20E940E0C8C0144275527BA014C1988
:1019C0005D096E097F092AE0CE010E943F0C080FD5
:1019D000191FC801DF91CF911F910F91FF90EF90D8
:1019E000DF90CF9008959A01AB01662757FD60956F
:1019F000762F0C94A80C0F931F93CF93DF93EC01D9
:101A00009A01AB01662757FD6095762F0E94A80CBE
:101A10008C01CE010E94150C9801280F391FC901B5
:101A2000DF91CF911F910F9108957F928F929F9296
:101A3000AF92BF92CF92DF92EF92FF920F931F93DC
:101A4000CF93DF93EC016A017B01122F9A01AB0166
:101A5000C701B6010E942910882319F067E573E0D9
:101A600032C046015701E894B7F82FEF3FEF4FE738
:101A70005FE7C501B4010E94291081110DC02FEF4D
:101A80003FEF4FE75FE7C501B4010E94730E1816E0
:101A90001CF46BE573E017C02FEF3FEF4FE75FE4F7
:101AA000C701B6010E94C20F18160CF40AC02FEF2E
:101AB0003FEF4FE75FECC701B6010E94730E87FF4F
:101AC00012C06FE573E0CE01DF91CF911F910F91AE
:101AD000FF90EF90DF90CF90BF90AF909F908F904E
:101AE0007F900C94F60B20E030E0A901C701B6010D
:101AF0000E94730E87FF0AC06DE2CE010E940E0C99
:101B00005C01F7FAF094F7F8F09402C0A12CB12C24
:101B100000E060E070E080E09FE307C020E030E09C
:101B200040E251E40E94770E0F5F0113F7CF262F9A
:101B3000372F482F592FC701B6010E940F0E762E5E
:101B4000872E982EC92E0E94E40ED62EE72EF82E50
:101B5000092F0E94100F9B01AC01672D782D892D54
:101B60009C2D0E940E0EC62E972E882E792E2AE0CE
:101B70004D2D5E2D6F2D702FCE010E943F0C7C01EC
:101B8000EA0CFB1C1123B9F16EEA71E0CE010E9450
:101B9000F60BE80EF91E2FC020E030E040E251E4E1
:101BA0006C2D792D882D972D0E94C60F762E072F2C
:101BB0006C019D2D0E94DF0E4B01AA2497FCA0947E
:101BC000BA2C2AE030E0B501A401CE010E94A80C95
:101BD000E80EF91EC501B4010E94120F9B01AC0171
:101BE000672D702F8C2D9D2D0E940E0EC62E972EC8
:101BF000882E792E11501111CFCFC701DF91CF91CF
:101C00001F910F91FF90EF90DF90CF90BF90AF901A
:101C10009F908F907F9008950C94150D5058BB277E
:101C2000AA270ED075C166D130F06BD120F031F407
:101C30009F3F11F41EF45BC10EF4E095E7FB51C128
:101C4000E92F77D180F3BA176207730784079507E6
:101C500018F071F49EF58FC10EF4E0950B2EBA2F9B
:101C6000A02D0B01B90190010C01CA01A0011124A2
:101C7000FF27591B99F0593F50F4503E68F11A164E
:101C8000F040A22F232F342F4427585FF3CF4695DF
:101C900037952795A795F0405395C9F77EF41F1601
:101CA000BA0B620B730B840BBAF09150A1F0FF0FCB
:101CB000BB1F661F771F881FC2F70EC0BA0F621FB7
:101CC000731F841F48F4879577956795B795F795A7
:101CD0009E3F08F0B3CF9395880F08F09927EE0F39
:101CE000979587950895D9D008F481E008950CD090
:101CF0000FC107D140F0FED030F021F45F3F19F062
:101D0000F0C0511139C1F3C014D198F39923C9F32C
:101D10005523B1F3951B550BBB27AA2762177307F1
:101D2000840738F09F5F5F4F220F331F441FAA1FA5
:101D3000A9F333D00E2E3AF0E0E830D09150504065
:101D4000E695001CCAF729D0FE2F27D0660F771F13
:101D5000881FBB1F261737074807AB07B0E809F0F5
:101D6000BB0B802DBF01FF2793585F4F2AF09E3F8A
:101D7000510568F0B6C000C15F3FECF3983EDCF35C
:101D8000869577956795B795F7959F5FC9F7880F03
:101D9000911D9695879597F90895E1E0660F771F55
:101DA000881FBB1F621773078407BA0720F0621BE6
:101DB000730B840BBA0BEE1F88F7E095089504D0DF
:101DC0006894B111D9C00895BCD088F09F5790F0A5
:101DD000B92F9927B751A0F0D1F0660F771F881F50
:101DE000991F1AF0BA95C9F712C0B13081F0C3D06B
:101DF000B1E00895C0C0672F782F8827B85F39F009
:101E0000B93FCCF3869577956795B395D9F73EF4AE
:101E100090958095709561957F4F8F4F9F4F089556
:101E2000E89409C097FB3EF4909580957095619574
:101E30007F4F8F4F9F4F9923A9F0F92F96E9BB272A
:101E40009395F695879577956795B795F111F8CFA6
:101E5000FAF4BB0F11F460FF1BC06F5F7F4F8F4F11
:101E60009F4F16C0882311F096E911C0772321F007
:101E70009EE8872F762F05C0662371F096E8862F9F
:101E800070E060E02AF09A95660F771F881FDAF7F6
:101E9000880F9695879597F90895990F0008550F23
:101EA000AA0BE0E8FEEF16161706E807F907C0F0E0
:101EB00012161306E407F50798F0621B730B840BE8
:101EC000950B39F40A2661F0232B242B252B21F4C2
:101ED00008950A2609F4A140A6958FEF811D811D62
:101EE000089597F99F6780E870E060E008959FEF9C
:101EF00080EC089500240A941616170618060906A1
:101F0000089500240A94121613061406050608956F
:101F1000092E0394000C11F4882352F0BB0F40F4F7
:101F2000BF2B11F460FF04C06F5F7F4F8F4F9F4F37
:101F3000089557FD9058440F551F59F05F3F71F0B9
:101F40004795880F97FB991F61F09F3F79F0879520
:101F50000895121613061406551FF2CF4695F1DFA9
:101F600008C0161617061806991FF1CF8695710539
:101F7000610508940895E894BB2766277727CB016D
:101F800097F908958ADF08F48FEF08950BD0C0CF3A
:101F9000B1DF28F0B6DF18F0952309F0A2CFA7CF64
:101FA0001124EACFC6DFA0F3959FD1F3950F50E03F
:101FB000551F629FF001729FBB27F00DB11D639FFB
:101FC000AA27F00DB11DAA1F649F6627B00DA11DA1
:101FD000661F829F2227B00DA11D621F739FB00D47
:101FE000A11D621F839FA00D611D221F749F3327B7
:101FF000A00D611D231F849F600D211D822F762F50
:102000006A2F11249F5750408AF0E1F088234AF04C
:10201000EE0FFF1FBB1F661F771F881F9150504098
:10202000A9F79E3F510570F05CCFA6CF5F3FECF360
:10203000983EDCF3869577956795B795F795E79584
:102040009F5FC1F7FE2B880F911D9695879597F995
:10205000089523DF880B990B0895DB018F939F93DD
:102060000E949510BF91AF91A29F800D911DA39FDB
:10207000900DB29F900D11240895991B79E004C032
:10208000991F961708F0961B881F7A95C9F78095B7
:10209000089587FB082E062687FD819567FD6195CB
:1020A0000E943D100EF4919507FC81950895A1E2E0
:1020B0001A2EAA1BBB1BFD010DC0AA1FBB1FEE1FC2
:1020C000FF1FA217B307E407F50720F0A21BB30B0D
:1020D000E40BF50B661F771F881F991F1A9469F789
:1020E00060957095809590959B01AC01BD01CF01E5
:1020F0000895052E97FB16F4009407D057FD0DD0D8
:102100000E94571007FC09D07EF490958095709539
:1021100061957F4F8F4F9F4F089550954095309513
:1021200021953F4F4F4F5F4F08950E94A610A59FE6
:10213000900DB49F900DA49F800D911D11240895C2
:10214000EE0FFF1F0590F491E02D0994A29FB001BE
:10215000B39FC001A39F01D0B29F700D811D1124B8
:10216000911D08950F931F93CF93DF9382309105B4
:1021700010F482E090E0E0919A04F0919B0420E05A
:1021800030E0C0E0D0E023C04081518148175907BA
:10219000A8F04817590761F482819381209719F0BC
:1021A0009B838A832EC090939B0480939A0429C0BA
:1021B0002115310529F04217530710F0A90102C07B
:1021C000BE01DF0102811381EF019A01F80130970E
:1021D000D9F62115310509F1281B390B24303105B9
:1021E00090F412968D919C9113976115710521F0D1
:1021F000FB019383828304C090939B0480939A0491
:10220000FD01329644C0FD01E20FF31F81939193CB
:10221000225031092D933C933AC02091980430917B
:102220009904232B41F42091020130910301309352
:102230009904209398042091000130910101211507
:10224000310541F42DB73EB740910401509105018D
:10225000241B350BE0919804F0919904E217F307E1
:10226000A0F42E1B3F0B2817390778F0AC014E5F06
:102270005F4F2417350748F04E0F5F1F50939904A6
:10228000409398048193919302C0E0E0F0E0CF0185
:10229000DF91CF911F910F910895EF92FF920F93CD
:1022A0001F93CF93DF93009709F48EC0DC01129740
:1022B00013961C921E921297E0909A04F0909B0441
:1022C000E114F10489F42D913C911197280F391FE5
:1022D00080919804909199048217930789F5B0939F
:1022E0009904A093980470C0E70120E030E001C099
:1022F000EA01CA17DB0738F44A815B819E01411568
:102300005105B1F722C0AC0142505109FA01D38303
:10231000C28300811181BC01600F711F6C177D07A2
:1023200061F468817981600F711F6E5F7F4F7183E7
:1023300060836A817B81738362832115310529F46F
:10234000B0939B04A0939A043FC0F901B383A28386
:10235000E90149915991C40FD51FAC17BD0771F41C
:10236000DC019E918E91840F951F0296918380834C
:1023700012968D919C91139793838283A0E0B0E095
:1023800002C0D7017C01F701828193810097C9F7D0
:10239000C701029620813181820F931F20919804FA
:1023A000309199042817390779F4109729F410927D
:1023B0009B0410929A0404C013961C921E921297CA
:1023C000F0929904E0929804CDB7DEB7E6E00C9461
:1023D0004F138F929F92AF92BF92CF92DF92EF9264
:1023E000FF92CF93DF93EC01688179818A819B8191
:1023F000611571058105910521F464E279ED8BE5A4
:1024000097E02DE133EF41E050E00E94791049015F
:102410005A019B01AC01A7EAB1E40E9495106B013F
:102420007C01ACEEB4EFA50194010E942213C60E0C
:10243000D71EE81EF91EF7FE06C081E0C81AD108B3
:10244000E10880E8F80AC882D982EA82FB82E8942F
:10245000F7F8B601C701DF91CF91FF90EF90DF90C1
:10246000CF90BF90AF909F908F9008950E94E911F8
:10247000089586E091E00E94E911089560930601B5
:102480007093070180930801909309010895A0E0DB
:10249000B0E0EDE4F2E10C942D13EC01009729F487
:1024A000CB010E94B210EC01B4C0DC01A60FB71F33
:1024B000FC013297AE17BF0718F4C0E0D0E0A9C006
:1024C0000081118106171707B0F00530110508F4D7
:1024D000A0C0C80104978617970708F49AC0025055
:1024E0001109061B170B0D931D9371836083CD019A
:1024F0000E944D118EC06B01C01AD10A7C01E00E02
:10250000F11EE0919A04F0919B0420E030E080E01D
:1025100090E048C0EE15FF05D1F580809180540110
:1025200042E0A40EB11CAC14BD0488F17401EC1897
:10253000FD08670122E0C20ED11C9E012250310924
:1025400045E0C416D10478F04281538113965C9320
:102550004E9312971196FC92EE92F901718360836B
:102560003A2F2B2F09C00E5F1F4F080D191DD901DF
:102570000D931C9332812381009721F0FC0132835B
:10258000238347C030939A0420939B0442C08081E8
:1025900091812817390708F49C0152814381CF01AA
:1025A000E52FF42F309709F0B5CF809198049091E2
:1025B00099048E159F05F1F426173707D8F48091FA
:1025C000000190910101009741F48DB79EB72091D1
:1025D000040130910501821B930BA817B90708F07D
:1025E0006CCFB0939904A0939804FE013297718345
:1025F00060830FC0CB010E94B2107C01009709F4E8
:102600005CCFA801BE010E940F13CE010E944D11A4
:10261000E701CE01CDB7DEB7ECE00C944913FB0126
:10262000DC0102C001900D9241505040D8F708954E
:10263000FB01DC0101900D920020E1F70895B7FF46
:102640000C9495100E949510821B930B08952F9265
:102650003F924F925F926F927F928F929F92AF9232
:10266000BF92CF92DF92EF92FF920F931F93CF937F
:10267000DF93CDB7DEB7CA1BDB0B0FB6F894DEBF16
:102680000FBECDBF09942A88398848885F846E843C
:102690007D848C849B84AA84B984C884DF80EE8086
:1026A000FD800C811B81AA81B981CE0FD11D0FB68F
:1026B000F894DEBF0FBECDBFED01089510E0CCEB66
:1026C000D0E004C0FE010E94A2102296CE3BD107AA
:0626D000C9F7F894FFCFEA
:1026D60000009C042000010000000151756575652D
:1026E60064204576656E743A20517565756564207B
:1026F6004576656E742069732000416C69676E4586
:1027060076656E743A20416C69676E6D656E7420ED
:102716004576656E74205374617274696E672C20F9
:1027260073656E736F727320726561643A20002060
:102736004C6566742053656E736F72202D200020E1
:1027460052696768742053656E736F72202D20007E
:10275600204D6964646C652053656E736F72202D1D
:1027660020005175657565644576656E743A204737
:102776006F696E6720666F72776172642E2E2E0007
:102786005175657565644576656E743A2054757243
:102796006E696E6720002072696768742E00206C6F
:1027A6006566742E005175657565644576656E744B
:1027B6003A20416C69676E696E670051756575658B
:1027C600644576656E743A20446F696E6720626F61
:1027D6007820616E696D6174696F6E00676F696EEE
:1027E6006700656E646564004631005452310054DA
:1027F6004C31004100420051004635002A000000DD
:1028060000008900F40095020000000089008F0096
:102816008D000000000089008701C9004D6F746FAC
:1028260072436F6D6D616E6465723A2057616974AB
:10283600696E672E2E2E004D6F746F72436F6D6D2D
:10284600616E6465723A20526573756D696E672EA6
:102856002E2E004D6F746F72436F6D6D616E6465E1
:10286600723A2053746F7070696E672E004D6F74E4
:102876006F72436F6D6D616E6465723A2052652D9D
:10288600417474616368696E67004D6F746F72435B
:102896006F6D6D616E6465723A20476F696E672071
:1028A60000206D696C6C697365636F6E6473206973
:1028B6006E206F7264657220746F20617474656D2A
:1028C600707420746F2074726176656C2000206DC0
:1028D6006D2E004D6F746F72436F6D6D616E646522
:1028E600723A20556E626C6F636B696E6700536552
:1028F6006E736F723A2053656E736F72206F6E201F
:1029060070696E2000207265616420612076616CBA
:102916007565206F662000000000001609CE0BB812
:1029260008E708CB080B096E616E00696E66006FDA
:0429360076660000C1
:00000001FF
