:100000000C945E000C9486000C9486000C94860080
:100010000C9486000C9486000C9486000C94860048
:100020000C9486000C9486000C9486000C9463015A
:100030000C9486000C9486000C9486000C94860028
:100040000C9465030C9486000C94C1070C9404086E
:100050000C9486000C9486000C9486000C94860008
:100060000C9486000C94860000000007000201003A
:100070000003040600000000000000000102040864
:100080001020408001020408102001020408102002
:10009000040404040404040402020202020203032E
:1000A0000303030300000000250028002B000000CC
:1000B0000000240027002A009E00C00811241FBE53
:1000C000CFEFD8E0DEBFCDBF11E0A0E0B1E0E8E6C1
:1000D000F7E102C005900D92A23FB107D9F712E0F7
:1000E000A2EFB1E001C01D92A23DB107E1F710E01F
:1000F000CCEBD0E004C02297FE010E949F0BC83BCE
:10010000D107C9F70E94CB040C94B20B0C940000E9
:1001100040E855E260E070E088E292E00C943F082D
:1001200040E050E060EF71E482EF91E00E94000156
:1001300068EE73E080E090E00C94D20382EF91E0EF
:100140000E941F0285EF91E00E941F026AE070E0AA
:1001500082EF91E00E94B9026BE070E085EF91E0E0
:100160000E94B90281E08093F8010895CF92DF9256
:10017000EF92FF92CF93DF93EC016A017B0164E081
:1001800071E088E292E00E943305C701B6010E9447
:10019000D2036FE171E088E292E00E9433056BE3E5
:1001A00071E088E292E00E941605CE010E94BF0233
:1001B000CE0103960E94BF021E82DF91CF91FF9075
:1001C000EF90DF90CF900895CF93DF93EC018E8175
:1001D000811111C065E571E088E292E00E94160588
:1001E0006AE070E0CE010E94B9026BE070E0CE01DF
:1001F00003960E94B90281E08E83DF91CF9108952A
:100200008F929F92AF92BF92CF92DF92EF92FF9226
:10021000CF93DF93EC014A015B010E94E40060E0B0
:1002200070E0CE010E94000364EB70E0CE01039603
:100230000E94000362E771E088E292E00E941605E6
:1002400029E23CE543E951E4C501B4010E947F097C
:1002500020E030E04AE754E40E94CE0A0E94EC0914
:100260006B017C012AE030E0AB01BC0188E292E046
:100270000E94E80569E871E088E292E00E941605B4
:1002800022E030E0B501A40188E292E00E94E0069D
:1002900066EB71E088E292E00E943305B701A601A7
:1002A000CE010E94B6006BEB71E088E292E0DF9134
:1002B000CF91FF90EF90DF90CF90BF90AF909F9045
:1002C0008F900C9433051F920F920FB60F9211244A
:1002D0002F933F934F935F936F937F938F939F934E
:1002E000AF93BF93EF93FF938091FA0187FF05C00F
:1002F00010928500109284001AC02091FA013327D1
:1003000027FD30958091F90190E0281739077CF49A
:100310008091FA01992787FD9095FC01EE0FFF1F50
:10032000E80FF91FE550FE4F808186FD15C08091D2
:10033000FA018F5F8093FA012091FA01332727FD9C
:1003400030958091F90190E028173907BCF480912D
:10035000FA018C305CF112C08091FA01992787FD77
:100360009095FC01EE0FFF1FE80FF91FE550FE4FBF
:10037000808160E08F730E949504D9CF80918400C2
:1003800090918500049680349C4918F480E49CE99F
:1003900005C0809184009091850004969093890017
:1003A000809388008FEF8093FA0138C08091840099
:1003B000909185002091FA01332727FD3095F901AE
:1003C000EE0FFF1FE20FF31FE550FE4F2181328138
:1003D000820F931F90938900809388008091FA0187
:1003E000992787FD9095FC01EE0FFF1FE80FF91F7D
:1003F000E550FE4F808186FF11C08091FA01992758
:1004000087FD9095FC01EE0FFF1FE80FF91FE550E7
:10041000FE4F808161E08F730E949504FF91EF9100
:10042000BF91AF919F918F917F916F915F914F910C
:100430003F912F910F900FBE0F901F901895209114
:10044000F9012C30A0F431E0320F3093F901FC01B6
:100450002083822F90E0FC01EE0FFF1FE80FF91FB1
:10046000E550FE4F88EB9BE09283818308952FEF48
:10047000FC0120830895DF92EF92FF920F931F9368
:10048000CF93DF93EC01D62E7A01890188818C30DD
:1004900008F066C061E08D2D0E945C048881A82F61
:1004A000B0E0FD01EE0FFF1FEA0FFB1FE550FE4F0E
:1004B0002D2D2F739081907C922B908360E272E0BF
:1004C0006E197F0977FF02C06D5F7F4F7595679545
:1004D00075956795698340E659E0401B510B57FFBE
:1004E00002C04D5F5F4F55954795559547954A8397
:1004F0006CE00E94450B9CE0899FB001112420E034
:1005000030E0A901460F571FFA01EE0FFF1FE40F5D
:10051000F51FE550FE4F908196FD16C02F5F3F4FAF
:100520002C30310571F781110FC01092800082E0EC
:10053000809381001092850010928400B19A80917E
:100540006F00826080936F00888190E0FC01EE0F65
:10055000FF1FE80FF91FE550FE4F80818064808304
:100560008881DF91CF911F910F91FF90EF90DF90E5
:10057000089520E639E040E252E00C943B02FC0191
:10058000808190E0FC01EE0FFF1FE80FF91FE5509E
:10059000FE4F80818F7B80830895FC0180818C30A9
:1005A00070F5918128E830E0291B310997FD3395DA
:1005B000220F331F220F331F621773077CF09281C3
:1005C00028E532E0291B310997FD3395220F331FAF
:1005D000220F331F621773070CF49B014FB7F89477
:1005E00090E0FC01EE0FFF1FE80FF91FE550FE4FF2
:1005F00022503109220F331F328321834FBF0895C8
:100600004F925F926F927F92AF92BF92CF92DF92A2
:10061000EF92FF920F931F93CF93DF93EC01603221
:1006200082E078070CF040C077FD06C0653B71059D
:100630002CF064EB70E002C060E070E0898128E893
:1006400030E0281B310987FD3395220F331F220F1D
:10065000331F5901CC24B7FCC094DC2C882777FDCC
:100660008095982F2A8148E552E0421B510927FDC9
:100670005395440F551F440F551F2A01662457FCFC
:100680006094762C7F926F925F924F9214EBE12EE2
:10069000F12C00E010E020E030E0A9010E94E20629
:1006A0000F900F900F900F90CE01DF91CF911F917F
:1006B0000F91FF90EF90DF90CF90BF90AF907F9021
:1006C0006F905F904F900C94CD021F920F920FB6D7
:1006D0000F9211242F933F938F939F93AF93BF93C8
:1006E0008091200290912102A0912202B0912302D8
:1006F00030911F0223E0230F2D3720F40196A11D16
:10070000B11D05C026E8230F0296A11DB11D20933F
:100710001F028093200290932102A0932202B093A3
:1007200023028091240290912502A0912602B0918B
:1007300027020196A11DB11D8093240290932502EA
:10074000A0932602B0932702BF91AF919F918F9102
:100750003F912F910F900FBE0F901F9018953FB7AC
:10076000F8948091240290912502A0912602B091E4
:10077000270226B5A89B05C02F3F19F00196A11DA1
:10078000B11D3FBF6627782F892F9A2F620F711DE9
:10079000811D911D42E0660F771F881F991F4A95A2
:1007A000D1F70895CF92DF92EF92FF92CF93DF932C
:1007B0006B017C010E94AF03EB01C114D104E10481
:1007C000F10479F00E94AF036C1B7D0B683E73400F
:1007D000A0F381E0C81AD108E108F108C851DC4F44
:1007E000ECCFDF91CF91FF90EF90DF90CF90089505
:1007F000789484B5826084BD84B5816084BD85B5FC
:10080000826085BD85B5816085BDEEE6F0E08081C2
:1008100081608083E1E8F0E01082808182608083E3
:10082000808181608083E0E8F0E080818160808366
:10083000E1EBF0E0808184608083E0EBF0E0808198
:1008400081608083EAE7F0E080818460808380813A
:1008500082608083808181608083808180688083E2
:100860001092C1000895833081F028F4813099F00E
:100870008230A1F008958630A9F08730B9F0843035
:10088000D1F4809180008F7D03C0809180008F77AC
:1008900080938000089584B58F7702C084B58F7DE2
:1008A00084BD08958091B0008F7703C08091B0001F
:1008B0008F7D8093B0000895CF93DF9390E0FC018B
:1008C000E458FF4F2491FC01E057FF4F84918823A7
:1008D00049F190E0880F991FFC01E255FF4FA59167
:1008E000B4918C559F4FFC01C591D4919FB7611174
:1008F00008C0F8948C91209582238C938881822360
:100900000AC0623051F4F8948C91322F30958323D1
:100910008C938881822B888304C0F8948C91822BDD
:100920008C939FBFDF91CF9108950F931F93CF9327
:10093000DF931F92CDB7DEB7282F30E0F901E859D9
:10094000FF4F8491F901E458FF4F1491F901E057EA
:10095000FF4F04910023C9F0882321F069830E948E
:1009600033046981E02FF0E0EE0FFF1FEC55FF4FDD
:10097000A591B4919FB7F8948C91611103C0109523
:10098000812301C0812B8C939FBF0F90DF91CF916A
:100990001F910F9108950E94F8030E948800CBEFE9
:1009A000D7E00E9490002097E1F30E94FB07F9CF67
:1009B000CF92DF92EF92FF920F931F93CF93DF932B
:1009C0006C017A01EB01E60EF71E00E010E0CE1597
:1009D000DF0561F06991D601ED91FC910190F08104
:1009E000E02DC6010995080F191FF1CFC801DF914D
:1009F000CF911F910F91FF90EF90DF90CF900895CE
:100A00006115710581F0DB010D900020E9F7AD0162
:100A100041505109461B570BDC01ED91FC910280BE
:100A2000F381E02D099480E090E008950C94000596
:100A3000DC01ED91FC910190F081E02D09940F9380
:100A40001F93CF93DF93EC016DE00E9418058C019A
:100A50006AE0CE010E941805800F911FDF91CF91AF
:100A60001F910F9108950F931F93CF93DF93EC0184
:100A70000E9400058C01CE010E941F05800F911F6E
:100A8000DF91CF911F910F9108958F929F92AF9216
:100A9000BF92CF92DF92EF92FF920F931F93CF936B
:100AA000DF93CDB7DEB7A1970FB6F894DEBF0FBEC8
:100AB000CDBF7C01C42EE52FCB01D22E19A221E09F
:100AC0002D1510F02AE0D22E8E010F5D1F4F8D2CB8
:100AD000912CA12CB12C6C2D7E2FA50194010E948C
:100AE000510B8C2DD29E80191124015011098A308E
:100AF00014F4805D01C0895CF80180832115310503
:100B00004105510521F0C22EE32FCA01E4CFB801FF
:100B1000C7010E940005A1960FB6F894DEBF0FBE74
:100B2000CDBFDF91CF911F910F91FF90EF90DF909C
:100B3000CF90BF90AF909F908F900895CF92DF920B
:100B4000EF92FF920F931F93CF93DF93EC016A0113
:100B50007B012115310579F4E881F9810190F0815B
:100B6000E02D642FDF91CF911F910F91FF90EF90B7
:100B7000DF90CF9009942A303105E9F477FF1AC04D
:100B80006DE20E9418058C0144275527BA014C19C3
:100B90005D096E097F092AE0CE010E944505800F9C
:100BA000911FDF91CF911F910F91FF90EF90DF90F8
:100BB000CF9008952AE0B701A601CE01DF91CF9131
:100BC0001F910F91FF90EF90DF90CF900C9445050F
:100BD0002115310541F4DC01ED91FC910190F0818A
:100BE000E02D642F09940C9445054F925F926F920B
:100BF0007F928F929F92AF92BF92CF92DF92EF92AD
:100C0000FF920F931F93CF93DF93EC016A017B0157
:100C1000B22E9A01AB01C701B6010E94310B8823A5
:100C200019F066ED71E027C026013701E89477F8E6
:100C30002FEF3FEF4FE75FE7C301B2010E94310B97
:100C400081110DC02FEF3FEF4FE75FE7C301B20106
:100C50000E947B0918161CF46AED71E00CC02FEF9E
:100C60003FEF4FE75FE4C701B6010E94CA0A1816BA
:100C7000ACF46EED71E0CE01DF91CF911F910F9139
:100C8000FF90EF90DF90CF90BF90AF909F908F90AC
:100C90007F906F905F904F900C9400052FEF3FEF87
:100CA0004FE75FECC701B6010E947B0987FDE1CFEA
:100CB00020E030E0A901C701B6010E947B0987FF4F
:100CC0000AC06DE2CE010E9418058C01F7FAF0947B
:100CD000F7F8F09402C000E010E0A12C60E070E0B2
:100CE00080E09FE3AB1441F020E030E040E251E4CB
:100CF0000E947F09A394F6CF9B01AC01C701B60106
:100D00000E9417096B017C010E94EC092B013C0138
:100D10000E94180A9B01AC01C701B6010E94160986
:100D20006B017C012AE0B301A201CE010E944505BE
:100D3000080F191FBB2039F069E371E0CE010E9452
:100D40000005080F191F7B2C772041F120E030E0CF
:100D500040E251E4C701B6010E94CE0A6B017C015A
:100D60000E94E7094B01AA2497FCA094BA2C2AE020
:100D700030E0B501A401CE010E949E05080F191FA5
:100D8000C501B4010E941A0A9B01AC01C701B6015A
:100D90000E9416096B017C017A94D6CFC801DF91BD
:100DA000CF911F910F91FF90EF90DF90CF90BF9068
:100DB000AF909F908F907F906F905F904F9008952D
:100DC0000C94F5054F925F926F927F92AF92BF9213
:100DD000CF92DF92EF92FF920F931F93CF93DF9307
:100DE000CDB7DEB729013A01621B730B840B950B5B
:100DF00029893A894B895C892A193B094C095D0983
:100E0000298B3A8B4B8B5C8B9B01AC0169897A896E
:100E10008B899C890E94350BE418F508060917098F
:100E2000A80197010E94730B2A0D3B1D4C1D5D1DEF
:100E3000CA01B901DF91CF911F910F91FF90EF90FF
:100E4000DF90CF90BF90AF907F906F905F904F906A
:100E50000895FC0124853585F901E05CFF4F808110
:100E60009181F901EE5BFF4F20813181821B930B51
:100E70008F7399270895FC0184859585FC01E05CBA
:100E8000FF4F40815181FC01EE5BFF4F208131819A
:100E90004217530741F00190F081E02DE80FF91F50
:100EA000808190E008958FEF9FEF0895FC01848585
:100EB0009585FC01E05CFF4F40815181FC01EE5BB8
:100EC000FF4F208131814217530779F0A081B18112
:100ED000A80FB91F8C91208131812F5F3F4F2F7355
:100EE00033273183208390E008958FEF9FEF08959B
:100EF000FC0181A1882329F0A489B5898C9186FF02
:100F0000FBCF11A20895CF93DF93FC01268537858F
:100F1000D901A05CBF4F8D919C91119701968F7361
:100F20009927E901CE5BDF4F4881598184179507E6
:100F3000D9F30D90BC91A02DA20FB31F6C93A68581
:100F4000B785A05CBF4F11969C938E93A689B789F5
:100F50002C9181E090E0078C02C0880F991F0A94C1
:100F6000E2F7282B2C9381E081A30488F589E02DFA
:100F700080818064808381E090E0DF91CF9108954B
:100F800008951F920F920FB60F9211242F933F9343
:100F90004F938F939F93EF93FF938091C00082FDB7
:100FA0001CC04091C6008091CE029091CF02019664
:100FB0008F7399272091D0023091D1028217930725
:100FC00071F0E091CE02F091CF02E257FD4F4083E5
:100FD0009093CF028093CE0202C08091C600FF9111
:100FE000EF919F918F914F913F912F910F900FBE55
:100FF0000F901F90189588E292E00E942907892B94
:1010000011F00C94C00708951F920F920FB60F9223
:1010100011242F933F938F939F93EF93FF932091EE
:101020008A0230918B0280918C0290918D02281758
:10103000390731F48091C1008F7D8093C10014C0C5
:10104000E0918C02F0918D02E65BFD4F2081809152
:101050008C0290918D0201968F73992790938D0247
:1010600080938C022093C600FF91EF919F918F9106
:101070003F912F910F900FBE0F901F901895CF9218
:10108000DF92EF92FF92CF93DF93EC016A017B0135
:10109000411581EE580761057105F9F0EC89FD896C
:1010A00081E090E008A002C0880F991F0A94E2F73F
:1010B000808360E079E08DE390E0A70196010E94D3
:1010C000510B2150310941095109569547953795E2
:1010D0002795211580E1380798F0EC89FD89108269
:1010E00060E874E88EE190E0A70196010E94510B40
:1010F0002150310941095109569547953795279552
:10110000E889F9893083EA89FB89208319A2EE896D
:10111000FF89408181E090E09C010C8C02C0220F8D
:10112000331F0A94E2F7422B4083EE89FF89408106
:101130009C010D8C02C0220F331F0A94E2F7422B50
:101140004083EE89FF8940819C010E8C02C0220FF2
:10115000331F0A94E2F7422B4083EE89FF892081F6
:101160000F8C02C0880F991F0A94E2F780958223A2
:101170008083DF91CF91FF90EF90DF90CF90089523
:1011800010922B0210922A0288EE93E0A0E0B0E0C9
:1011900080932C0290932D02A0932E02B0932F02E5
:1011A00086EE91E090932902809328028EE892E0E7
:1011B00090933502809334028AE492E09093370250
:1011C0008093360285EC90E0909339028093380248
:1011D00084EC90E090933B0280933A0280EC90E0A4
:1011E00090933D0280933C0281EC90E090933F020B
:1011F00080933E0282EC90E0909341028093400203
:1012000086EC90E0909343028093420284E08093C6
:10121000440283E08093450287E08093460285E0A4
:101220008093470281E08093480208955058BB277D
:10123000AA270ED075C166D130F06BD120F031F401
:101240009F3F11F41EF45BC10EF4E095E7FB51C122
:10125000E92F77D180F3BA176207730784079507E0
:1012600018F071F49EF58FC10EF4E0950B2EBA2F95
:10127000A02D0B01B90190010C01CA01A00111249C
:10128000FF27591B99F0593F50F4503E68F11A1648
:10129000F040A22F232F342F4427585FF3CF4695D9
:1012A00037952795A795F0405395C9F77EF41F16FB
:1012B000BA0B620B730B840BBAF09150A1F0FF0FC5
:1012C000BB1F661F771F881FC2F70EC0BA0F621FB1
:1012D000731F841F48F4879577956795B795F795A1
:1012E0009E3F08F0B3CF9395880F08F09927EE0F33
:1012F000979587950895D9D008F481E008950CD08A
:101300000FC107D140F0FED030F021F45F3F19F05B
:10131000F0C0511139C1F3C014D198F39923C9F326
:101320005523B1F3951B550BBB27AA2762177307EB
:10133000840738F09F5F5F4F220F331F441FAA1F9F
:10134000A9F333D00E2E3AF0E0E830D0915050405F
:10135000E695001CCAF729D0FE2F27D0660F771F0D
:10136000881FBB1F261737074807AB07B0E809F0EF
:10137000BB0B802DBF01FF2793585F4F2AF09E3F84
:10138000510568F0B6C000C15F3FECF3983EDCF356
:10139000869577956795B795F7959F5FC9F7880FFD
:1013A000911D9695879597F90895E1E0660F771F4F
:1013B000881FBB1F621773078407BA0720F0621BE0
:1013C000730B840BBA0BEE1F88F7E095089504D0D9
:1013D0006894B111D9C00895BCD088F09F5790F09F
:1013E000B92F9927B751A0F0D1F0660F771F881F4A
:1013F000991F1AF0BA95C9F712C0B13081F0C3D065
:10140000B1E00895C0C0672F782F8827B85F39F002
:10141000B93FCCF3869577956795B395D9F73EF4A8
:1014200090958095709561957F4F8F4F9F4F089550
:10143000E89409C097FB3EF490958095709561956E
:101440007F4F8F4F9F4F9923A9F0F92F96E9BB2724
:101450009395F695879577956795B795F111F8CFA0
:10146000FAF4BB0F11F460FF1BC06F5F7F4F8F4F0B
:101470009F4F16C0882311F096E911C0772321F001
:101480009EE8872F762F05C0662371F096E8862F99
:1014900070E060E02AF09A95660F771F881FDAF7F0
:1014A000880F9695879597F90895990F0008550F1D
:1014B000AA0BE0E8FEEF16161706E807F907C0F0DA
:1014C00012161306E407F50798F0621B730B840BE2
:1014D000950B39F40A2661F0232B242B252B21F4BC
:1014E00008950A2609F4A140A6958FEF811D811D5C
:1014F000089597F99F6780E870E060E008959FEF96
:1015000080EC089500240A9416161706180609069A
:10151000089500240A941216130614060506089569
:10152000092E0394000C11F4882352F0BB0F40F4F1
:10153000BF2B11F460FF04C06F5F7F4F8F4F9F4F31
:10154000089557FD9058440F551F59F05F3F71F0B3
:101550004795880F97FB991F61F09F3F79F087951A
:101560000895121613061406551FF2CF4695F1DFA3
:1015700008C0161617061806991FF1CF8695710533
:10158000610508940895E894BB2766277727CB0167
:1015900097F908958ADF08F48FEF08950BD0C0CF34
:1015A000B1DF28F0B6DF18F0952309F0A2CFA7CF5E
:1015B0001124EACFC6DFA0F3959FD1F3950F50E039
:1015C000551F629FF001729FBB27F00DB11D639FF5
:1015D000AA27F00DB11DAA1F649F6627B00DA11D9B
:1015E000661F829F2227B00DA11D621F739FB00D41
:1015F000A11D621F839FA00D611D221F749F3327B1
:10160000A00D611D231F849F600D211D822F762F49
:101610006A2F11249F5750408AF0E1F088234AF046
:10162000EE0FFF1FBB1F661F771F881F9150504092
:10163000A9F79E3F510570F05CCFA6CF5F3FECF35A
:10164000983EDCF3869577956795B795F795E7957E
:101650009F5FC1F7FE2B880F911D9695879597F98F
:10166000089523DF880B990B0895DB018F939F93D7
:101670000E94920BBF91AF91A29F800D911DA39FDD
:10168000900DB29F900D11240895991B79E004C02C
:10169000991F961708F0961B881F7A95C9F78095B1
:1016A0000895A1E21A2EAA1BBB1BFD010DC0AA1FA3
:1016B000BB1FEE1FFF1FA217B307E407F50720F0BB
:1016C000A21BB30BE40BF50B661F771F881F991F36
:1016D0001A9469F760957095809590959B01AC017F
:1016E000BD01CF010895052E97FB1EF400940E94C2
:1016F0008A0B57FD07D00E94510B07FC03D04EF414
:101700000C948A0B50954095309521953F4F4F4F43
:101710005F4F089590958095709561957F4F8F4F9D
:101720009F4F08950E94A30BA59F900DB49F900D0D
:10173000A49F800D911D11240895EE0FFF1F0590A9
:10174000F491E02D0994A29FB001B39FC001A39F23
:10175000700D811D1124911DB29F700D811D1124EA
:08176000911D0895F894FFCFDC
:10176800010000004D6F746F72436F6D6D616E64A0
:1017780065723A2057616974696E672E2E2E004D86
:101788006F746F72436F6D6D616E6465723A20524B
:101798006573756D696E672E2E2E004D6F746F72AE
:1017A800436F6D6D616E6465723A2053746F70702B
:1017B800696E672E004D6F746F72436F6D6D616E49
:1017C8006465723A2052652D417474616368696E6C
:1017D80067004D6F746F72436F6D6D616E646572F3
:1017E8003A20476F696E672000206D696C6C6973D9
:1017F80065636F6E647320696E206F726465722012
:10180800746F20617474656D707420746F207472C5
:101818006176656C2000206D6D2E004D6F746F72BF
:10182800436F6D6D616E6465723A20556E626C6FC0
:10183800636B696E67006E616E00696E66006F7635
:101848006600000000008307D804290756073B07F5
:0218580078070F
:00000001FF
