:100000000C9436000C945E000C945E000C945E0020
:100010000C945E000C945E000C945E000C945E00E8
:100020000C945E000C945E000C945E000C945E00D8
:100030000C945E000C945E000C945E000C945E00C8
:100040000C94F1000C945E000C9483020C94C60294
:100050000C945E000C945E000C945E000C945E00A8
:100060000C945E000C945E007200820311241FBE8B
:10007000CFEFD8E0DEBFCDBF11E0A0E0B1E0EAE60F
:10008000FAE002C005900D92A233B107D9F711E052
:10009000A2E3B1E001C01D92A73FB107E1F710E074
:1000A000CCE6D0E004C02297FE010E942F05C8369E
:1000B000D107C9F70E94FE040C9433050C9400008C
:1000C00040E855E260E070E08DE491E00C940103BB
:1000D00082E391E00E94920064EF71E080E090E0A2
:1000E0000C94650182E391E00C947600CF93DF934A
:1000F000EC014AEE51E06EE070E003960E94AC0025
:100100004AEE51E063E170E0CE0108960E94AC0037
:100110004AEE51E062E170E0CE010D96DF91CF91A1
:100120000C94AC00CF93DF93EC0103960E94D700B0
:100130008883CE0108960E94D7008983CE010D9650
:100140000E94D7008A838881811102C0898101C001
:1001500081E0DF91CF910895FC0172836183548324
:10016000438308950F931F93CF93DF93EC018B018B
:1001700061E071E08DE491E00E94160469817A816A
:100180004AE050E08DE491E00E94DC0460E171E01F
:100190008DE491E00E9416044AE050E0B8018DE43D
:1001A00091E0DF91CF911F910F910C94E4040F9394
:1001B0001F93CF93DF93EC0189810E94C6018C01CC
:1001C000BC01CE010E94B20081E02B813C8102176C
:1001D00013070CF480E08883DF91CF911F910F917A
:1001E00008951F920F920FB60F9211242F933F93F1
:1001F0008F939F93AF93BF9380914401909145015A
:10020000A0914601B091470130914C01232F2D5F01
:100210002D3720F40196A11DB11D05C0232F2A57AB
:100220000296A11DB11D20934C018093440190932F
:100230004501A0934601B0934701809148019091F8
:100240004901A0914A01B0914B010196A11DB11D38
:100250008093480190934901A0934A01B0934B01C8
:10026000BF91AF919F918F913F912F910F900FBEB2
:100270000F901F9018950F931F939FB7F8940091BC
:1002800048011091490120914A0130914B0186B5F6
:10029000A89B06C08F3F21F00F5F1F4F2F4F3F4F8E
:1002A0009FBF322F212F102F0027080F111D211D56
:1002B000311D42E0000F111F221F331F4A95D1F755
:1002C000B801C9011F910F910895CF92DF92EF926B
:1002D000FF92CF93DF936B017C010E943B01EB0106
:1002E0000EC00E943B016C1B7D0B683E734038F0D2
:1002F00081E0C81AD108E108F108C851DC4FC114E7
:10030000D104E104F10469F7DF91CF91FF90EF9000
:10031000DF90CF900895789484B5826084BD84B5D1
:10032000816084BD85B5826085BD85B5816085BDF0
:10033000EEE6F0E0808181608083E1E8F0E0108209
:10034000808182608083808181608083E0E8F0E04A
:10035000808181608083E1EBF0E080818460808334
:10036000E0EBF0E0808181608083EAE7F0E080816B
:1003700084608083808182608083808181608083CB
:100380008081806880831092C10008958E3008F0CB
:100390008E5087702091000140E4249F9001112429
:1003A000822B80937C0080917A00806480937A0015
:1003B00080917A0086FDFCCF209178003091790001
:1003C000932F80E0AC01422B9A01C9010895FC01F2
:1003D00084859585FC01E05CFF4F20813181FC0123
:1003E000EE5BFF4F80819181281B390B2F733327E0
:1003F000C9010895FC0184859585FC01E05CFF4FEF
:1004000040815181FC01EE5BFF4F20813181421719
:10041000530741F00190F081E02DE80FF91F208192
:1004200030E002C02FEF3FEFC9010895FC01848541
:100430009585FC01E05CFF4F40815181FC01EE5B42
:10044000FF4F208131814217530781F0A081B18194
:10045000A80FB91F8C91208131812F5F3F4F2F73DF
:10046000332731832083282F30E002C02FEF3FEF66
:10047000C9010895FC0181A1882329F0A489B589C7
:100480008C9186FFFBCF11A20895CF93DF93FC01DF
:1004900026853785D901A05CBF4F8D919C9111971E
:1004A00001968F739927E901CE5BDF4F488159810F
:1004B00084179507D9F30D90BC91A02DA20FB31FFF
:1004C0006C93A685B785A05CBF4F11969C938E93C5
:1004D000A689B7892C9181E090E0078C02C0880F33
:1004E000991F0A94E2F7282B2C9381E081A30488BA
:1004F000F589E02D80818064808381E090E0DF9148
:10050000CF91089508951F920F920FB60F92112464
:100510002F933F934F938F939F93EF93FF938091EC
:10052000C00082FD1CC04091C6008091F3019091F3
:10053000F40101968F7399272091F5013091F6010E
:100540008217930771F0E091F301F091F401ED54FB
:10055000FE4F40839093F4018093F30102C0809199
:10056000C600FF91EF919F918F914F913F912F91F5
:100570000F900FBE0F901F9018958DE491E00E9490
:10058000E701892B11F00C94820208951F920F92BB
:100590000FB60F9211242F933F938F939F93EF9356
:1005A000FF932091AF013091B0018091B101909102
:1005B000B2012817390731F48091C1008F7D8093F3
:1005C000C10014C0E091B101F091B201E159FE4FB8
:1005D00020818091B1019091B20101968F7399278A
:1005E0009093B2018093B1012093C600FF91EF91E7
:1005F0009F918F913F912F910F900FBE0F901F9061
:100600001895CF92DF92EF92FF92CF93DF93EC0198
:100610006A017B01411581EE580761057105F9F00A
:10062000EC89FD8981E090E008A002C0880F991F45
:100630000A94E2F7808360E079E08DE390E0A7011F
:1006400096010E940B052150310941095109569527
:10065000479537952795211580E1380798F0EC8963
:10066000FD89108260E874E88EE190E0A7019601B0
:100670000E940B05215031094109510956954795B2
:1006800037952795E889F9893083EA89FB892083A2
:1006900019A2EE89FF89408181E090E09C010C8CD9
:1006A00002C0220F331F0A94E2F7422B4083EE89E7
:1006B000FF8940819C010D8C02C0220F331F0A94D8
:1006C000E2F7422B4083EE89FF8940819C010E8C2A
:1006D00002C0220F331F0A94E2F7422B4083EE89B7
:1006E000FF8920810F8C02C0880F991F0A94E2F7BE
:1006F000809582238083DF91CF91FF90EF90DF90F0
:10070000CF9008951092500110924F0188EE93E01F
:10071000A0E0B0E08093510190935201A093530167
:10072000B093540186E291E090934E0180934D0185
:1007300083EB91E090935A01809359018FE691E009
:1007400090935C0180935B0185EC90E090935E0157
:1007500080935D0184EC90E09093600180935F0151
:1007600080EC90E0909362018093610181EC90E0D5
:10077000909364018093630182EC90E09093660112
:100780008093650186EC90E0909368018093670107
:1007900084E08093690183E080936A0187E080931D
:1007A0006B0185E080936C0181E080936D01089579
:1007B000CF92DF92EF92FF920F931F93CF93DF932D
:1007C0006C01EB017A01E60EF71E00E010E00BC0B1
:1007D0006991D601ED91FC910190F081E02DC60167
:1007E0000995080F191FCE15DF0591F7C801DF9194
:1007F000CF911F910F91FF90EF90DF90CF900895D0
:100800006115710581F0DB010D900020E9F7AD0164
:1008100041505109461B570BDC01ED91FC910280C0
:10082000F381E02D099480E090E008950C94000499
:10083000DC01ED91FC910190F081E02D09940F9382
:100840001F93CF93DF93EC016DE00E9418048C019D
:100850006AE0CE010E9418049C01200F311FC901DB
:10086000DF91CF911F910F9108954F925F926F92F8
:100870007F929F92AF92BF92CF92DF92EF92FF92C0
:100880000F931F93CF93DF93CDB7DEB7A1970FB62A
:10089000F894DEBF0FBECDBF5C016A017B01922ED2
:1008A00019A281E0821710F08AE0982E8E010F5D68
:1008B0001F4F492C512C612C712CC701B601A3018B
:1008C00092010E940B058C2D929E801911240150DB
:1008D00011098A3014F4805D01C0895CF8018083BD
:1008E00069017A01C114D104E104F10431F7B801BE
:1008F000C5010E940004A1960FB6F894DEBF0FBE9A
:10090000CDBFDF91CF911F910F91FF90EF90DF90BE
:10091000CF90BF90AF909F907F906F905F904F90DF
:100920000895CF92DF92EF92FF920F931F93CF9390
:10093000DF93EC016A017B012115310579F4E8812F
:10094000F9810190F081E02D642FDF91CF911F910B
:100950000F91FF90EF90DF90CF9009942A303105EE
:1009600019F477FD0EC02AE0B701A601CE01DF9190
:10097000CF911F910F91FF90EF90DF90CF900C944B
:1009800035046DE20E9418048C0144275527BA01F2
:100990004C195D096E097F092AE0CE010E943504D9
:1009A000080F191FC801DF91CF911F910F91FF9080
:1009B000EF90DF90CF9008959A01AB01662757FD25
:1009C0006095762F0C9491040F931F93CF93DF9330
:1009D000EC019A01AB01662757FD6095762F0E94C6
:1009E00091048C01CE010E941F049801280F391F29
:1009F000C901DF91CF911F910F9108950E948B0142
:100A00000E946000CDEBD2E00E9468002097E1F3E5
:100A10000E94BD02F9CFA1E21A2EAA1BBB1BFD0149
:100A20000DC0AA1FBB1FEE1FFF1FA217B307E407CD
:100A3000F50720F0A21BB30BE40BF50B661F771F25
:100A4000881F991F1A9469F7609570958095909505
:100A50009B01AC01BD01CF010895EE0FFF1F059072
:0A0A6000F491E02D0994F894FFCF03
:100A6A000153656E736F72206F6E2070696E20007D
:100A7A00207265616420612076616C7565206F66FD
:100A8A002000000000004502D803E7011602FA011F
:020A9A003A021E
:00000001FF
