:100000000C945F000C9487000C9487000C9487007C
:100010000C9487000C9487000C9487000C94870044
:100020000C9487000C9487000C9487000C940505B1
:100030000C9487000C9487000C9487000C94870024
:100040000C94BF070C9487000C9430090C9473092E
:100050000C9487000C9487000C9487000C94870004
:100060000C9487000C948700000000070002010038
:100070000003040600000000000000000102040864
:100080001020408001020408102001020408102002
:10009000040404040404040402020202020203032E
:1000A0000303030300000000250028002B000000CC
:1000B0000000240027002A0036032F0A7C031124A5
:1000C0001FBECFEFD8E0DEBFCDBF13E0A0E0B1E0B0
:1000D000E2E7F6E202C005900D92A434B107D9F729
:1000E00014E0A4E4B3E001C01D92AC37B107E1F71E
:1000F00010E0CCEBD0E004C02297FE010E9470100B
:10010000C83BD107C9F70E94850A0C942C130C94A4
:100110000000FC0173836283089581E0089540E04C
:1001200050E060E271E4FC01828193810C94D5037C
:100130000F931F93CF93DF93EC010E94C3058E01B1
:100140000D5F1F4FC8010E94C3056AE070E0CE0139
:100150000E9460066BE070E0C8010E94600681E0CA
:100160008E83DF91CF911F910F910895CF93DF93ED
:10017000EC018A819B8107960E94A604EA81FB819B
:1001800080858E8387818D8381858C83DF91CF915C
:100190000895CF93DF93EC010E94B6008C818823F1
:1001A00029F08D81811104C08E8103C080E001C0DF
:1001B00081E0DF91CF910895CF92DF92EF92FF928D
:1001C0000F931F93CF93DF93EC01E881F9810480B3
:1001D000F581E02D0995882309F478C01C2F0D2F97
:1001E000CE010E94B6006BE071E08DEC93E00E94BE
:1001F000E80B60E471E08DEC93E00E94E80B6D8108
:100200004AE050E070E08DEC93E00E94CF0C60E596
:1002100071E08DEC93E00E94E80B6E814AE050E0C3
:1002200070E08DEC93E00E94CF0C61E671E08DEC04
:1002300093E00E94E80B6C814AE050E070E08DECA6
:1002400093E00E94D70C84E6C82ED12CE12CF12C2F
:1002500034C08E818823A9F065E670E080E090E0EC
:100260000E94960AA70196010E944710CA01B9018F
:100270000E94EE0E9B01AC016CE68A819B810E947C
:1002800038048D818823A9F065E670E080E090E075
:100290000E94960AA70196010E944710CA01B9015F
:1002A0000E94EE0E9B01AC0162E78A819B810E9455
:1002B0003804812F902F0E94B600E881F9810480D4
:1002C000F581E02DCE0109958111C3CFDF91CF914A
:1002D0001F910F91FF90EF90DF90CF900895DF92E4
:1002E000EF92FF920F931F93CF93DF93CDB7DEB7BB
:1002F00027970FB6F894DEBF0FBECDBF8C01FC016F
:100300002781308547E0429FC001439F900D112413
:1003100060E070E08F5A9C4F0E94970BFC01808137
:100320008A3209F0C3C0CBC0823409F4A4C024F4DB
:10033000813409F0A6C08DC0863421F0843509F0DF
:10034000A0C025C063E771E08DEC93E00E94070C2C
:10035000F80127813085D29EC001D39E900D1124D3
:1003600061E070E08F5A9C4F0E94970BFC01608106
:10037000772767FD7095872F972F0E94EE0EAB01B0
:10038000BC01F801828193810E94D5037AC061E9A2
:1003900071E08DEC93E00E94E80BF8012781308535
:1003A000D29EC001D39E900D112461E070E08F5A5F
:1003B0009C4F0E94970BFC0180818C3421F1823587
:1003C00009F05FC067EA71E08DEC93E00E94070CD2
:1003D000F80127813085D29EC001D39E900D112453
:1003E00062E070E08F5A9C4F0E94970BFC01608185
:1003F000772767FD7095872F972F0E94EE0E9B0140
:10040000AC0162E720C06FEA71E08DEC93E00E94DE
:10041000070CF80127813085D29EC001D39E900D34
:10042000112462E070E08F5A9C4F0E94970BFC01F0
:100430006081772767FD7095872F972F0E94EE0EBA
:100440009B01AC016CE6F801828193810E94380423
:1004500018C066EB71E08DEC93E00E94070CFA8205
:10046000E982F801828193819C838B83CE0101967E
:100470000E94DC0006C06CEC71E08DEC93E00E9401
:10048000070CF801278130852F5F3F4F3087278386
:10049000D29EC001D39E900D112460E070E08F5A6F
:1004A0009C4F0E94970BFC01808106C097E0D92EDB
:1004B00023E1E22E22E0F22E813509F035CF279696
:1004C0000FB6F894DEBF0FBECDBFDF91CF911F9165
:1004D0000F91FF90EF90DF900895CF93DF93EC01A1
:1004E0000E94B6008D81811102C08E8101C081E021
:1004F000DF91CF9108950F931F93CF93DF938C01DA
:1005000087E292E0F8019583848389E190E00E947C
:10051000920AEC010E949800CE0107960E948A047C
:10052000F801D183C08314861386D783C683DF91F5
:10053000CF911F910F9108950F931F93CF93DF9346
:10054000EC018B018A819B810E94940A1B821A8292
:100550000115110521F001301105B1F40AC087E041
:1005600090E00E94920A23E132E0DC012D933C935B
:1005700009C084E090E00E94920A2DE132E0FC0183
:10058000318320839B838A838A819B81009769F0D2
:10059000DC01ED91FC91688179810190F081E02D81
:1005A000DF91CF911F910F910994DF91CF911F910E
:1005B0000F910895FC01A281B381109741F0ED9154
:1005C000FC9111970280F381E02DCD0109940496EE
:1005D0000C946F0140E855E260E070E08DEC93E030
:1005E0000C94AE096DEE71E08DEC93E00E94070C67
:1005F00060E070E084E493E00E949C0280914603F6
:1006000090914703DC01ED91FC910480F581E02D90
:100610000995882321F084E493E00E94DA0261E0E6
:1006200070E084E493E00E949C0284E493E00E94E2
:10063000DA0262E070E084E493E00E949C02809120
:10064000460390914703DC01ED91FC910480F58114
:10065000E02D0995882321F084E493E00E94DA02DA
:1006600063EF71E08DEC93E00C94070C69EF71E09F
:1006700081E593E00E947A0B6CEF71E088E593E0EE
:100680000E947A0B60E072E08FE593E00E947A0BA3
:1006900064E072E086E693E00E947A0B66E072E026
:1006A0008DE693E00E947A0B68E072E084E793E0C5
:1006B0000E947A0B6AE072E08BE793E00E947A0B6B
:1006C00064E072E082E893E00E947A0B6AE072E0F4
:1006D00089E893E00E947A0B68E072E080E993E099
:1006E0000E947A0B6DE072E087E993E00E947A0B3A
:1006F00084E493E00C947B02CF93DF93CEE9D3E0C4
:100700002797CE010E94090B83E0C135D807C1F7B6
:10071000DF91CF910895CF92DF92EF92FF92CF9326
:10072000DF93EC016A017B016DE272E08DEC93E0F6
:100730000E94070CC701B6010E94330868E472E00A
:100740008DEC93E00E94070C64E672E08DEC93E080
:100750000E94070CCE010E946606CE0103960E94FD
:1007600066061E82DF91CF91FF90EF90DF90CF90D1
:100770000895CF93DF93EC018E81811111C06EE754
:1007800072E08DEC93E00E94E80B6AE070E0CE012D
:100790000E9460066BE070E0CE0103960E94600646
:1007A00081E08E83DF91CF9108958F929F92AF92D7
:1007B000BF92CF92DF92EF92FF92CF93DF93EC0143
:1007C0006A017B010E94B90360E070E0CE010E94E3
:1007D000A70664EB70E0CE0103960E94A7066BE9C2
:1007E00072E08DEC93E00E94E80B29E23CE543E9DE
:1007F00051E4C701B6010E94530E20E030E04AE701
:1008000054E40E94A20F0E94C00E4B015C012AE03A
:1008100030E0AB01BC018DEC93E00E94770C62EB01
:1008200072E08DEC93E00E94E80B22E030E0B7012B
:10083000A6018DEC93E00E94E80D6FED72E08DEC67
:1008400093E00E94070CB501A401CE010E948B0326
:1008500064EE72E08DEC93E0DF91CF91FF90EF902A
:10086000DF90CF90BF90AF909F908F900C94070C2B
:10087000CF92DF92EF92FF920F931F93CF93DF936C
:100880001F92CDB7DEB78C0169017A0169830E949E
:10089000B90369816C3659F0623791F560E070E018
:1008A000C80103960E94A70660E070E008C064EBF0
:1008B00070E0C80103960E94A70664EB70E0C801CF
:1008C0000E94A70629E23CE543E951E4C701B601CD
:1008D0000E94530E20E030E04AE754E40E94A20F49
:1008E0000E94C00EAB01BC01C8010F90DF91CF91F7
:1008F0001F910F91FF90EF90DF90CF900C948B039E
:100900000F90DF91CF911F910F91FF90EF90DF90AB
:10091000CF900895CF93DF93EC0148E552E06EE06D
:1009200070E003960E94C00448E552E063E170E085
:10093000CE0108960E94C00448E552E062E170E0F2
:10094000CE010D96DF91CF910C94C004CF93DF932D
:10095000EC0103960E94EB048883CE0108960E9466
:10096000EB048983CE010D960E94EB048A83888173
:10097000811102C0898101C081E0DF91CF9108958A
:10098000FC01728361835483438308950F931F9303
:10099000CF93DF93EC018B016FEF72E08DEC93E06E
:1009A0000E94E80B69817A814AE050E08DEC93E087
:1009B0000E94CF0C66E173E08DEC93E00E94E80B9F
:1009C0004AE050E0B8018DEC93E0DF91CF911F91A8
:1009D0000F910C94D70C0F931F93CF93DF93EC01DF
:1009E00089810E9405078C01BC01CE010E94C604CA
:1009F00081E02B813C81021713070CF480E088838F
:100A0000DF91CF911F910F9108951F920F920FB612
:100A10000F9211242F933F934F935F936F937F9384
:100A20008F939F93AF93BF93EF93FF9380919F0317
:100A300087FF05C010928500109284001AC0209193
:100A40009F03332727FD309580919E0390E0281760
:100A500039077CF480919F03992787FD9095FC01CD
:100A6000EE0FFF1FE80FF91FE056FC4F808186FD57
:100A700037C080919F038F5F80939F0320919F03D6
:100A8000332727FD309580919E0390E02817390782
:100A9000CCF580919F038C30F4F134C080919F039A
:100AA000992787FD9095FC01EE0FFF1FE80FF91FB6
:100AB000E056FC4F808161E08F730E94880752C02E
:100AC00080E49CE905C080918400909185000496A3
:100AD00090938900809388008FEF80939F0342C09A
:100AE00080919F03992787FD9095FC01EE0FFF1FD2
:100AF000E80FF91FE056FC4F808160E08F730E9481
:100B00008807B7CF80918400909185000496803447
:100B10009C49B0F2D8CF80918400909185002091BB
:100B20009F03332727FD3095F901EE0FFF1FE20FDA
:100B3000F31FE056FC4F21813281820F931F909367
:100B400089008093880080919F03992787FD909565
:100B5000FC01EE0FFF1FE80FF91FE056FC4F8081EC
:100B600086FD9CCFFF91EF91BF91AF919F918F91A7
:100B70007F916F915F914F913F912F910F900FBE99
:100B80000F901F90189520919E032C30A0F4FC012B
:100B90002083822F8F5F80939E03822F90E0FC0141
:100BA000EE0FFF1FE80FF91FE056FC4F88EB9BE0AC
:100BB0009283818308952FEFFC0120830895DF92B3
:100BC000EF92FF920F931F93CF93DF93EC01D62EFA
:100BD0007A01890188818C3008F065C061E08D2D33
:100BE0000E9450078881A82FB0E0FD01EE0FFF1F83
:100BF000EA0FFB1FE056FC4F2D2D2F739081907C48
:100C0000922B908360E272E06E197F0977FF02C039
:100C10006D5F7F4F7595679575956795698340E61C
:100C200059E0401B510B57FF02C04D5F5F4F559578
:100C30004795559547954A836CE00E9419109CE0B2
:100C4000899FB001112420E030E0A901460F571F11
:100C5000FA01EE0FFF1FE40FF51FE056FC4F9081E5
:100C600096FD15C02F5F3F4F2C30310571F71DC029
:100C70001092800082E08093810010928500109293
:100C80008400B19A80916F00826080936F008881A8
:100C900090E0FC01EE0FFF1FE80FF91FE056FC4F3C
:100CA000808180648083888103C0882309F3EFCF2B
:100CB000DF91CF911F910F91FF90EF90DF900895FA
:100CC00020E639E040E252E00C94DF05FC0180812F
:100CD00090E0FC01EE0FFF1FE80FF91FE056FC4FFC
:100CE00080818F7B80830895FC0180818C3070F53A
:100CF000918128E830E0291B310997FD3395220FB7
:100D0000331F220F331F621773077CF0928128E58F
:100D100032E0291B310997FD3395220F331F220F33
:100D2000331F621773070CF49B014FB7F89490E0E0
:100D3000FC01EE0FFF1FE80FF91FE056FC4F225099
:100D40003109220F331F328321834FBF0895AF92A1
:100D5000BF92CF92DF92EF92FF920F931F93CF93A8
:100D6000DF93EC01603282E078070CF041C077FD40
:100D700004C0653B710524F405C060E070E002C06A
:100D800064EB70E0298188E890E0821B910927FDDF
:100D90009395880F991F880F991F5C01CC24B7FC8D
:100DA000C094DC2C882777FD8095982F2A8148E510
:100DB00052E0421B510927FD5395440F551F440F24
:100DC000551F8A01222717FD2095322F3F932F931D
:100DD0001F930F9314EBE12EF12C00E010E020E0C4
:100DE00030E0A9010E94C20A0F900F900F900F905F
:100DF000CE01DF91CF911F910F91FF90EF90DF9087
:100E0000CF90BF90AF900C9474068E3008F08E5047
:100E1000877020910A0140E4249F90011124822BC5
:100E200080937C0080917A00806480937A00809126
:100E30007A0086FDFCCF2091780030917900932FC5
:100E400080E0AC01422B9A01C9010895833069F01A
:100E500028F48130A1F0823011F514C08630B1F051
:100E60008730C1F08430D9F404C0809180008F773E
:100E700003C0809180008F7D80938000089584B5A9
:100E80008F7702C084B58F7D84BD08958091B000B6
:100E90008F7703C08091B0008F7D8093B00008955C
:100EA000CF93DF9390E0FC01E458FF4F4491FC01A5
:100EB000E057FF4F8491882341F190E0880F991FFC
:100EC000FC01E255FF4F25913491D9018C559F4F7C
:100ED000FC0185919491C82FD92F9FB7F8948C91DC
:100EE000611106C0409584238C938881842308C0B7
:100EF000623041F4242F209582238C938881842BA7
:100F0000888302C0842B8C939FBFDF91CF9108957B
:100F10000F931F93CF93DF931F92CDB7DEB7282F88
:100F200030E0F901E859FF4F8491F901E458FF4F8F
:100F30001491F901E057FF4F04910023D1F0882369
:100F400021F069830E9426076981E02FF0E0EE0F0F
:100F5000FF1FEC55FF4F85919491DC019FB7F894EA
:100F60008C91611103C01095812301C0812B8C935A
:100F70009FBF0F90DF91CF911F910F9108951F9206
:100F80000F920FB60F9211242F933F938F939F933D
:100F9000AF93BF938091C4039091C503A091C60302
:100FA000B091C7033091CC03232F2D5F2D3720F450
:100FB0000196A11DB11D05C0232F2A570296A11D20
:100FC000B11D2093CC038093C4039093C503A093D9
:100FD000C603B093C7038091C8039091C903A09141
:100FE000CA03B091CB030196A11DB11D8093C80324
:100FF0009093C903A093CA03B093CB03BF91AF9161
:101000009F918F913F912F910F900FBE0F901F9046
:1010100018950F931F939FB7F8940091C8031091F0
:10102000C9032091CA033091CB0386B5A89B06C0A3
:101030008F3F21F00F5F1F4F2F4F3F4F9FBF322F2A
:10104000212F102F0027080F111D211D311D42E0F7
:10105000000F111F221F331F4A95D1F7B801C90194
:101060001F910F910895CF92DF92EF92FF92CF934D
:10107000DF936B017C010E940908EB010EC00E9406
:1010800009086C1B7D0B683E734038F081E0C81A7C
:10109000D108E108F108C851DC4FC114D104E104C2
:1010A000F10469F7DF91CF91FF90EF90DF90CF903F
:1010B0000895789484B5826084BD84B5816084BDD0
:1010C00085B5826085BD85B5816085BDEEE6F0E0C1
:1010D000808181608083E1E8F0E01082808182601D
:1010E0008083808181608083E0E8F0E0808181609E
:1010F0008083E1EBF0E0808184608083E0EBF0E0CE
:10110000808181608083EAE7F0E080818460808371
:10111000808182608083808181608083808180681B
:1011200080831092C1000895FC0184859585FC019F
:10113000E05CFF4F20813181FC01EE5BFF4F80813D
:101140009181281B390B2F733327C9010895FC01A6
:1011500084859585FC01E05CFF4F40815181FC0155
:10116000EE5BFF4F208131814217530741F0019020
:10117000F081E02DE80FF91F208130E002C02FEF51
:101180003FEFC9010895FC0184859585FC01E05C71
:10119000FF4F40815181FC01EE5BFF4F2081318187
:1011A0004217530781F0A081B181A80FB91F8C911C
:1011B000208131812F5F3F4F2F733327318320836D
:1011C000282F30E002C02FEF3FEFC9010895FC0146
:1011D00081A1882329F0A489B5898C9186FFFBCF52
:1011E00011A20895CF93DF93FC0126853785D9019D
:1011F000A05CBF4F8D919C91119701968F73992799
:10120000E901CE5BDF4F4881598184179507D9F3F7
:101210000D90BC91A02DA20FB31F6C93A685B7852E
:10122000A05CBF4F11969C938E93A689B7892C9191
:1012300081E090E0078C02C0880F991F0A94E2F7C2
:10124000282B2C9381E081A30488F589E02D8081EF
:101250008064808381E090E0DF91CF9108950895CC
:101260001F920F920FB60F9211242F933F934F931B
:101270008F939F93EF93FF938091C00082FD1CC0DA
:101280004091C600809173049091740401968F730D
:10129000992720917504309176048217930771F095
:1012A000E0917304F0917404ED5CFB4F40839093E4
:1012B00074048093730402C08091C600FF91EF9183
:1012C0009F918F914F913F912F910F900FBE0F9053
:1012D0001F9018958DEC93E00E949408892B11F0D3
:1012E0000C942F0908951F920F920FB60F9211249C
:1012F0002F933F938F939F93EF93FF9320912F040E
:1013000030913004809131049091320428173907CC
:1013100031F48091C1008F7D8093C10014C0E091B1
:101320003104F0913204E151FC4F2081809131046D
:101330009091320401968F73992790933204809391
:1013400031042093C600FF91EF919F918F913F91BF
:101350002F910F900FBE0F901F901895CF92DF9294
:10136000EF92FF92CF93DF93EC016A017B0141156D
:1013700081EE580761057105F9F0EC89FD8981E07E
:1013800090E008A002C0880F991F0A94E2F78083BA
:1013900060E079E08DE390E0A70196010E942510BE
:1013A000215031094109510956954795379527959F
:1013B000211580E1380798F0EC89FD89108260E8FA
:1013C00074E88EE190E0A70196010E94251021505B
:1013D0003109410951095695479537952795E8896F
:1013E000F9893083EA89FB89208319A2EE89FF8974
:1013F000408181E090E09C010C8C02C0220F331FE1
:101400000A94E2F7422B4083EE89FF8940819C01D8
:101410000D8C02C0220F331F0A94E2F7422B408347
:10142000EE89FF8940819C010E8C02C0220F331F80
:101430000A94E2F7422B4083EE89FF8920810F8CCA
:1014400002C0880F991F0A94E2F780958223808357
:10145000DF91CF91FF90EF90DF90CF9008951092A1
:10146000D0031092CF0388EE93E0A0E0B0E0809329
:10147000D1039093D203A093D303B093D4038CE20F
:1014800093E09093CE038093CD0383E394E0909315
:10149000DA038093D9038FEE93E09093DC0380937B
:1014A000DB0385EC90E09093DE038093DD0384EC16
:1014B00090E09093E0038093DF0380EC90E09093C2
:1014C000E2038093E10381EC90E09093E403809346
:1014D000E30382EC90E09093E6038093E50386ECCF
:1014E00090E09093E8038093E70384E08093E9031E
:1014F00083E08093EA0387E08093EB0385E08093A9
:10150000EC0381E08093ED0308950E9459080E9446
:10151000EA02CAE6D9E00E94F2022097E1F30E94B3
:101520006A09F9CF0C9480100C941B110F931F9330
:10153000CF93DF9300D000D0CDB7DEB79B01AC01D5
:10154000611571058105910579F069833A834B83B3
:101550005C830E94071229813A814B815C810E9441
:1015600047108B019C0103C000E010E09801B80116
:10157000C9010F900F900F900F90DF91CF911F91A5
:101580000F9108954F925F926F927F92AF92BF92A8
:10159000CF92DF92EF92FF920F931F93CF93DF933F
:1015A000CDB7DEB729013A01621B730B840B950B93
:1015B00029893A894B895C892A193B094C095D09BB
:1015C000298B3A8B4B8B5C8B9B01AC0169897A89A7
:1015D0008B899C890E940910E418F50806091709EF
:1015E000A80197010E9447102A0D3B1D4C1D5D1D4F
:1015F000B901CA01DF91CF911F910F91FF90EF9038
:10160000DF90CF90BF90AF907F906F905F904F90A2
:101610000895FC01808191810C941B11CF93DF937D
:10162000EC0188819981009711F00E941B111982A9
:1016300018821D821C821B821A82DF91CF9108952D
:101640000F931F93CF93DF93EC018B016F5F7F4F5D
:10165000888199810E941512009731F099838883BF
:101660001B830A8381E001C080E0DF91CF911F914D
:101670000F910895CF93DF93EC0188819981892B95
:1016800031F08A819B818617970708F00CC0CE0144
:101690000E94200B882349F08C819D81892B19F4AD
:1016A000E881F981108281E001C080E0DF91CF9173
:1016B0000895EF92FF920F931F93CF93DF93EC0166
:1016C0007B018A01BA010E943A0B811104C0CE014C
:1016D0000E940E0B07C01D830C83B701888199817E
:1016E0000E94E612CE01DF91CF911F910F91FF90E2
:1016F000EF900895DC0111961C921E9213961C9295
:101700001E92129715961C921E92149716961C9272
:101710006115710559F0DB010D900020E9F7AD016D
:1017200041505109461B570B0C94590B0895FC016D
:10173000248135816217730720F48081918100979D
:1017400029F41092770467E774E002C0680F791FEC
:10175000CB010895CF92DF92EF92FF920F931F93E8
:10176000CF93DF936C01EB017A01E60EF71E00E0E8
:1017700010E00BC06991D601ED91FC910190F081D0
:10178000E02DC6010995080F191FCE15DF0591F749
:10179000C801DF91CF911F910F91FF90EF90DF90E3
:1017A000CF9008956115710581F0DB010D90002047
:1017B000E9F7AD0141505109461B570BDC01ED9192
:1017C000FC910280F381E02D099480E090E008957F
:1017D0000C94D20BDC01ED91FC910190F081E02D95
:1017E00009940F931F93CF93DF93EC016DE00E9458
:1017F000EA0B8C016AE0CE010E94EA0B9C01200FEB
:10180000311FC901DF91CF911F910F9108950F935F
:101810001F93CF93DF93EC010E94D20B8C01CE017A
:101820000E94F10B9801280F391FC901DF91CF9158
:101830001F910F9108954F925F926F927F929F92A6
:10184000AF92BF92CF92DF92EF92FF920F931F93CE
:10185000CF93DF93CDB7DEB7A1970FB6F894DEBF75
:101860000FBECDBF5C016A017B01922E19A281E0FF
:10187000821710F08AE0982E8E010F5D1F4F492CC1
:10188000512C612C712CC701B601A30192010E9459
:1018900025108C2D929E80191124015011098A3037
:1018A00014F4805D01C0895CF801808369017A01CC
:1018B000C114D104E104F10431F7B801C5010E945B
:1018C000D20BA1960FB6F894DEBF0FBECDBFDF914D
:1018D000CF911F910F91FF90EF90DF90CF90BF902D
:1018E000AF909F907F906F905F904F9008952115DB
:1018F000310541F4DC01ED91FC910190F081E02D86
:10190000642F09940C941B0CCF92DF92EF92FF92FC
:101910000F931F93CF93DF93EC016A017B01211595
:10192000310579F4E881F9810190F081E02D642F8F
:10193000DF91CF911F910F91FF90EF90DF90CF90AB
:1019400009942A30310519F477FD0EC02AE0B70159
:10195000A601CE01DF91CF911F910F91FF90EF90E3
:10196000DF90CF900C941B0C6DE20E94EA0B8C016F
:1019700044275527BA014C195D096E097F092AE0F1
:10198000CE010E941B0C080F191FC801DF91CF91D7
:101990001F910F91FF90EF90DF90CF9008959A01E3
:1019A000AB01662757FD6095762F0C94840C0F933E
:1019B0001F93CF93DF93EC019A01AB01662757FD8C
:1019C0006095762F0E94840C8C01CE010E94F10B51
:1019D0009801280F391FC901DF91CF911F910F91F5
:1019E00008957F928F929F92AF92BF92CF92DF9293
:1019F000EF92FF920F931F93CF93DF93EC016A0155
:101A00007B01122F9A01AB01C701B6010E9405109C
:101A1000882319F068E373E032C046015701E89467
:101A2000B7F82FEF3FEF4FE75FE7C501B4010E9422
:101A3000051081110DC02FEF3FEF4FE75FE7C501A4
:101A4000B4010E944F0E18161CF46CE373E017C02B
:101A50002FEF3FEF4FE75FE4C701B6010E949E0FF3
:101A600018160CF40AC02FEF3FEF4FE75FECC701E9
:101A7000B6010E944F0E87FF12C060E473E0CE01F2
:101A8000DF91CF911F910F91FF90EF90DF90CF905A
:101A9000BF90AF909F908F907F900C94D20B20E0DE
:101AA00030E0A901C701B6010E944F0E87FF0AC0AE
:101AB0006DE2CE010E94EA0B5C01F7FAF094F7F8B0
:101AC000F09402C0A12CB12C00E060E070E080E056
:101AD0009FE307C020E030E040E251E40E94530E53
:101AE0000F5F0113F7CF262F372F482F592FC7012C
:101AF000B6010E94EB0D762E872E982EC92E0E94DD
:101B0000C00ED62EE72EF82E092F0E94EC0E9B0158
:101B1000AC01672D782D892D9C2D0E94EA0DC62ED3
:101B2000972E882E792E2AE04D2D5E2D6F2D702F49
:101B3000CE010E941B0C7C01EA0CFB1C1123B9F1A5
:101B40006FE871E0CE010E94D20BE80EF91E2FC0A3
:101B500020E030E040E251E46C2D792D882D972D66
:101B60000E94A20F762E072F6C019D2D0E94BB0EA6
:101B70004B01AA2497FCA094BA2C2AE030E0B501CE
:101B8000A401CE010E94840CE80EF91EC501B40127
:101B90000E94EE0E9B01AC01672D702F8C2D9D2DA8
:101BA0000E94EA0DC62E972E882E792E1150111103
:101BB000CFCFC701DF91CF911F910F91FF90EF9091
:101BC000DF90CF90BF90AF909F908F907F900895BF
:101BD0000C94F10C5058BB27AA270ED075C166D1C2
:101BE00030F06BD120F031F49F3F11F41EF45BC153
:101BF0000EF4E095E7FB51C1E92F77D180F3BA17D6
:101C0000620773078407950718F071F49EF58FC17A
:101C10000EF4E0950B2EBA2FA02D0B01B901900107
:101C20000C01CA01A0011124FF27591B99F0593F4B
:101C300050F4503E68F11A16F040A22F232F342F93
:101C40004427585FF3CF469537952795A795F040E1
:101C50005395C9F77EF41F16BA0B620B730B840BF6
:101C6000BAF09150A1F0FF0FBB1F661F771F881FAE
:101C7000C2F70EC0BA0F621F731F841F48F4879506
:101C800077956795B795F7959E3F08F0B3CF9395F5
:101C9000880F08F09927EE0F979587950895D9D06A
:101CA00008F481E008950CD00FC107D140F0FED0B8
:101CB00030F021F45F3F19F0F0C0511139C1F3C089
:101CC00014D198F39923C9F35523B1F3951B550B00
:101CD000BB27AA2762177307840738F09F5F5F4FFF
:101CE000220F331F441FAA1FA9F333D00E2E3AF040
:101CF000E0E830D091505040E695001CCAF729D05A
:101D0000FE2F27D0660F771F881FBB1F26173707A8
:101D10004807AB07B0E809F0BB0B802DBF01FF27D8
:101D200093585F4F2AF09E3F510568F0B6C000C13E
:101D30005F3FECF3983EDCF3869577956795B79512
:101D4000F7959F5FC9F7880F911D9695879597F92D
:101D50000895E1E0660F771F881FBB1F62177307A6
:101D60008407BA0720F0621B730B840BBA0BEE1FBB
:101D700088F7E095089504D06894B111D9C008950A
:101D8000BCD088F09F5790F0B92F9927B751A0F099
:101D9000D1F0660F771F881F991F1AF0BA95C9F7FF
:101DA00012C0B13081F0C3D0B1E00895C0C0672F38
:101DB000782F8827B85F39F0B93FCCF386957795AF
:101DC0006795B395D9F73EF4909580957095619598
:101DD0007F4F8F4F9F4F0895E89409C097FB3EF4C3
:101DE00090958095709561957F4F8F4F9F4F992368
:101DF000A9F0F92F96E9BB279395F69587957795E6
:101E00006795B795F111F8CFFAF4BB0F11F460FFA5
:101E10001BC06F5F7F4F8F4F9F4F16C0882311F0FD
:101E200096E911C0772321F09EE8872F762F05C011
:101E3000662371F096E8862F70E060E02AF09A95AC
:101E4000660F771F881FDAF7880F9695879597F9A1
:101E50000895990F0008550FAA0BE0E8FEEF16163B
:101E60001706E807F907C0F012161306E407F5078E
:101E700098F0621B730B840B950B39F40A2661F002
:101E8000232B242B252B21F408950A2609F4A140A5
:101E9000A6958FEF811D811D089597F99F6780E8B2
:101EA00070E060E008959FEF80EC089500240A94AC
:101EB0001616170618060906089500240A94121625
:101EC0001306140605060895092E0394000C11F458
:101ED000882352F0BB0F40F4BF2B11F460FF04C005
:101EE0006F5F7F4F8F4F9F4F089557FD9058440F5E
:101EF000551F59F05F3F71F04795880F97FB991F69
:101F000061F09F3F79F08795089512161306140625
:101F1000551FF2CF4695F1DF08C0161617061806B2
:101F2000991FF1CF86957105610508940895E8948D
:101F3000BB2766277727CB0197F908958ADF08F436
:101F40008FEF08950BD0C0CFB1DF28F0B6DF18F0C7
:101F5000952309F0A2CFA7CF1124EACFC6DFA0F3C3
:101F6000959FD1F3950F50E0551F629FF001729F2E
:101F7000BB27F00DB11D639FAA27F00DB11DAA1F4D
:101F8000649F6627B00DA11D661F829F2227B00D9A
:101F9000A11D621F739FB00DA11D621F839FA00D25
:101FA000611D221F749F3327A00D611D231F849F75
:101FB000600D211D822F762F6A2F11249F575040CC
:101FC0008AF0E1F088234AF0EE0FFF1FBB1F661F67
:101FD000771F881F91505040A9F79E3F510570F020
:101FE0005CCFA6CF5F3FECF3983EDCF38695779508
:101FF0006795B795F795E7959F5FC1F7FE2B880F1B
:10200000911D9695879597F9089523DF880B990B75
:102010000895DB018F939F930E946310BF91AF914E
:10202000A29F800D911DA39F900DB29F900D112432
:102030000895991B79E004C0991F961708F0961B24
:10204000881F7A95C9F780950895A1E21A2EAA1BD8
:10205000BB1BFD010DC0AA1FBB1FEE1FFF1FA21758
:10206000B307E407F50720F0A21BB30BE40BF50B55
:10207000661F771F881F991F1A9469F760957095DE
:10208000809590959B01AC01BD01CF010895052E6F
:1020900097FB16F4009407D057FD0DD00E94251031
:1020A00007FC09D07EF490958095709561957F4FDF
:1020B0008F4F9F4F089550954095309521953F4FF4
:1020C0004F4F5F4F08950E947410A59F900DB49FCD
:1020D000900DA49F800D911D11240895EE0FFF1FF8
:1020E0000590F491E02D0994A29FB001B39FC00127
:1020F000A39F01D0B29F700D811D1124911D0895E1
:102100000F931F93CF93DF938230910510F482E0F9
:1021100090E0E0917A04F0917B0420E030E0C0E0B0
:10212000D0E023C04081518148175907A8F04817D3
:10213000590761F482819381209719F09B838A83E8
:102140002EC090937B0480937A0429C02115310519
:1021500029F04217530710F0A90102C0BE01DF01A8
:1021600002811381EF019A01F8013097D9F6211508
:10217000310509F1281B390B2430310590F41296F2
:102180008D919C9113976115710521F0FB0193834B
:10219000828304C090937B0480937A04FD0132967D
:1021A00044C0FD01E20FF31F819391932250310946
:1021B0002D933C933AC02091780430917904232BDD
:1021C00041F420910201309103013093790420936E
:1021D000780420910001309101012115310541F46D
:1021E0002DB73EB74091040150910501241B350BDA
:1021F000E0917804F0917904E217F307A0F42E1B24
:102200003F0B2817390778F0AC014E5F5F4F24175A
:10221000350748F04E0F5F1F5093790440937804C0
:102220008193919302C0E0E0F0E0CF01DF91CF9184
:102230001F910F910895EF92FF920F931F93CF93E9
:10224000DF93009709F48EC0DC01129713961C925D
:102250001E921297E0907A04F0907B04E114F1044E
:1022600089F42D913C911197280F391F80917804A2
:10227000909179048217930789F5B0937904A0931C
:10228000780470C0E70120E030E001C0EA01CA171D
:10229000DB0738F44A815B819E0141155105B1F796
:1022A00022C0AC0142505109FA01D383C28300819C
:1022B0001181BC01600F711F6C177D0761F468818B
:1022C0007981600F711F6E5F7F4F718360836A81B8
:1022D0007B81738362832115310529F4B0937B04DC
:1022E000A0937A043FC0F901B383A283E901499125
:1022F0005991C40FD51FAC17BD0771F4DC019E9135
:102300008E91840F951F02969183808312968D91F2
:102310009C91139793838283A0E0B0E002C0D70121
:102320007C01F701828193810097C9F7C70102966A
:1023300020813181820F931F20917804309179049C
:102340002817390779F4109729F410927B0410921A
:102350007A0404C013961C921E921297F09279048C
:10236000E0927804CDB7DEB7E6E00C941D138F92AF
:102370009F92AF92BF92CF92DF92EF92FF92CF9354
:10238000DF93EC01688179818A819B8161157105F8
:102390008105910521F464E279ED8BE597E02DE16B
:1023A00033EF41E050E00E94471049015A019B0180
:1023B000AC01A7EAB1E40E9463106B017C01ACEEB2
:1023C000B4EFA50194010E94F012C60ED71EE81EBC
:1023D000F91EF7FE06C081E0C81AD108E10880E8BE
:1023E000F80AC882D982EA82FB82E894F7F8B6013B
:1023F000C701DF91CF91FF90EF90DF90CF90BF901A
:10240000AF909F908F9008950E94B711089586E035
:1024100091E00E94B711089560930601709307013F
:1024200080930801909309010895A0E0B0E0EBE1EA
:10243000F2E10C94FB12EC01009729F4CB010E940D
:102440008010EC01B4C0DC01A60FB71FFC0132976D
:10245000AE17BF0718F4C0E0D0E0A9C00081118119
:1024600006171707B0F00530110508F4A0C0C80121
:1024700004978617970708F49AC002501109061BA3
:10248000170B0D931D9371836083CD010E941B1167
:102490008EC06B01C01AD10A7C01E00EF11EE091E2
:1024A0007A04F0917B0420E030E080E090E048C0C6
:1024B000EE15FF05D1F580809180540142E0A40E15
:1024C000B11CAC14BD0488F17401EC18FD0867015F
:1024D00022E0C20ED11C9E012250310945E0C416F3
:1024E000D10478F04281538113965C934E931297F6
:1024F0001196FC92EE92F901718360833A2F2B2F93
:1025000009C00E5F1F4F080D191DD9010D931C93B3
:1025100032812381009721F0FC013283238347C05D
:1025200030937A0420937B0442C0808191812817E4
:10253000390708F49C0152814381CF01E52FF42F24
:10254000309709F0B5CF80917804909179048E1579
:102550009F05F1F426173707D8F480910001909178
:102560000101009741F48DB79EB72091040130918D
:102570000501821B930BA817B90708F06CCFB09325
:102580007904A0937804FE013297718360830FC0B1
:10259000CB010E9480107C01009709F45CCFA80158
:1025A000BE010E94DD12CE010E941B11E701CE0187
:1025B000CDB7DEB7ECE00C941713FB01DC0102C0D1
:1025C00001900D9241505040D8F70895FB01DC0175
:1025D00001900D920020E1F70895B7FF0C9463106D
:1025E0000E946310821B930B08952F923F924F928B
:1025F0005F926F927F928F929F92AF92BF92CF9293
:10260000DF92EF92FF920F931F93CF93DF93CDB79B
:10261000DEB7CA1BDB0B0FB6F894DEBF0FBECDBF13
:1026200009942A88398848885F846E847D848C84E4
:102630009B84AA84B984C884DF80EE80FD800C81ED
:102640001B81AA81B981CE0FD11D0FB6F894DEBFD0
:102650000FBECDBFED01089510E0CCEBD0E004C07B
:10266000FE010E9470102296CE3BD107C9F7F89464
:02267000FFCF9A
:1026720000007C0420000100000001416C69676ECB
:102682004576656E743A20416C69676E6D656E744D
:10269200204576656E74205374617274696E672C7E
:1026A2002073656E736F727320726561643A2000E5
:1026B200204C6566742053656E736F72202D200066
:1026C2002052696768742053656E736F72202D20E3
:1026D20000204D6964646C652053656E736F7220CF
:1026E2002D20005175657565644576656E743A20D6
:1026F200476F696E6720666F72776172642E2E2E45
:10270200005175657565644576656E743A20547539
:10271200726E696E6720002072696768742E0020ED
:102722006C6566742E005175657565644576656ED7
:10273200743A20416C69676E696E67005175657500
:1027420065644576656E743A20446F696E672062EF
:102752006F7820616E696D6174696F6E00676F6971
:102762006E6700656E646564004631005452310044
:10277200544C31004100420051004635002A00000D
:102782000000008900DC006D020000000089008F5B
:10279200008D000000000089006F01C9004D6F74B8
:1027A2006F72436F6D6D616E6465723A2057616935
:1027B20074696E672E2E2E004D6F746F72436F6DAB
:1027C2006D616E6465723A20526573756D696E67EC
:1027D2002E2E2E004D6F746F72436F6D6D616E649D
:1027E20065723A2053746F7070696E672E004D6F78
:1027F200746F72436F6D6D616E6465723A205265DB
:102802002D417474616368696E67004D6F746F72F5
:10281200436F6D6D616E6465723A20476F696E67D2
:102822002000206D696C6C697365636F6E64732040
:10283200696E206F7264657220746F2061747465B2
:102842006D707420746F2074726176656C20002044
:102852006D6D2E004D6F746F72436F6D6D616E649E
:1028620065723A20556E626C6F636B696E670053D6
:10287200656E736F723A2053656E736F72206F6E5E
:102882002070696E2000207265616420612076618B
:102892006C7565206F66200000000000F208AA0B2C
:1028A2009408C308A708E7086E616E00696E6600A7
:0428B2006F766600D7
:00000001FF
