:100000000C945F000C9487000C9487000C9487007C
:100010000C9487000C9487000C9487000C94870044
:100020000C9487000C9487000C9487000C94940423
:100030000C9487000C9487000C9487000C94870024
:100040000C944E070C9487000C94BF080C94020982
:100050000C9487000C9487000C9487000C94870004
:100060000C9487000C948700000000070002010038
:100070000003040600000000000000000102040864
:100080001020408001020408102001020408102002
:10009000040404040404040402020202020203032E
:1000A0000303030300000000250028002B000000CC
:1000B0000000240027002A00C502BE090B031124FA
:1000C0001FBECFEFD8E0DEBFCDBF13E0A0E0B1E0B0
:1000D000ECEAF5E202C005900D92AA33B107D9F718
:1000E00014E0AAE3B3E001C01D92A237B107E1F723
:1000F00010E0CCEBD0E004C02297FE010E940D106E
:10010000C83BD107C9F70E94140A0C94C9120C9479
:100110000000FC017383628308950F931F93CF93B4
:10012000DF93EC010E9452058E010D5F1F4FC80145
:100130000E9452056AE070E0CE010E94EF056BE07C
:1001400070E0C8010E94EF0581E08E83DF91CF91BE
:100150001F910F910895CF93DF93EC018A819B81CA
:1001600007960E943504EA81FB8180858E83878112
:100170008D8381858C83DF91CF910895CF93DF9319
:10018000EC010E94AB008C81882329F08D818111C4
:1001900004C08E8103C080E001C081E0DF91CF9177
:1001A0000895CF92DF92EF92FF920F931F93CF9318
:1001B000DF93EC01E881F9810480F581E02D099558
:1001C000882309F478C01C2F0D2FCE010E94AB00AC
:1001D0006BE071E083EC93E00E94770B60E471E0E8
:1001E00083EC93E00E94770B6D814AE050E070E071
:1001F00083EC93E00E945E0C60E571E083EC93E099
:100200000E94770B6E814AE050E070E083EC93E04F
:100210000E945E0C61E671E083EC93E00E94770B34
:100220006C814AE050E070E083EC93E00E94660C41
:1002300084E6C82ED12CE12CF12C34C08E81882389
:10024000A9F065E670E080E090E00E94250AA70131
:1002500096010E94E40FCA01B9010E947D0E9B0124
:10026000AC016CE68A819B810E94C7038D81882343
:10027000A9F065E670E080E090E00E94250AA70101
:1002800096010E94E40FCA01B9010E947D0E9B01F4
:10029000AC0162E78A819B810E94C703812F902F66
:1002A0000E94AB00E881F9810480F581E02DCE0148
:1002B00009958111C3CFDF91CF911F910F91FF90CD
:1002C000EF90DF90CF900895CF92DF92EF92FF9260
:1002D0000F931F93CF93DF93CDB7DEB727970FB65A
:1002E000F894DEBF0FBECDBF8C01FC0127813085A5
:1002F00047E0429FC001439F900D112460E070E0F1
:10030000895B9C4F0E94260BFC0180818A3209F098
:10031000CFC0D9C0823409F4B0C024F4813409F0CC
:10032000B2C099C0863421F0843509F0ACC029C030
:1003300063E771E083EC93E00E94960BF80127815C
:100340003085D29EC001D39E900D112461E070E0F3
:10035000895B9C4F0E94260BFC0180816C2D0E94C2
:10036000B40F682F772767FD7095872F972F0E940E
:100370007D0EAB01BC01F801828193810E94640370
:1003800082C061E971E083EC93E00E94770BF80191
:1003900027813085D29EC001D39E900D112461E04B
:1003A00070E0895B9C4F0E94260BFC0180818C349D
:1003B00041F1823509F067C067EA71E083EC93E0B0
:1003C0000E94960BF80127813085D29EC001D39EF2
:1003D000900D112462E070E0895B9C4F0E94260B17
:1003E000FC0180816C2D0E94B40F682F772767FD78
:1003F0007095872F972F0E947D0E9B01AC0162E7BD
:1004000024C06FEA71E083EC93E00E94960BF80140
:1004100027813085D29EC001D39E900D112462E0C9
:1004200070E0895B9C4F0E94260BFC0180816C2D43
:100430000E94B40F682F772767FD7095872F972F3D
:100440000E947D0E9B01AC016CE6F80182819381D4
:100450000E94C70318C066EB71E083EC93E00E9432
:10046000960BFA82E982F801828193819C838B83C7
:10047000CE0101960E94D10006C06CEC71E083ECC5
:1004800093E00E94960BF801278130852F5F3F4F44
:1004900030872783D29EC001D39E900D112460E047
:1004A00070E0895B9C4F0E94260BFC01808108C094
:1004B00097E0D92E2AE0C22E33E1E32E32E0F32E6C
:1004C000813509F027CF27960FB6F894DEBF0FBE0F
:1004D000CDBFDF91CF911F910F91FF90EF90DF90F3
:1004E000CF900895CF93DF93EC010E94AB008D81F4
:1004F000811102C08E8101C081E0DF91CF9108950A
:100500000F931F93CF93DF938C018DE192E0F8015D
:100510009583848389E190E00E94210AEC010E9486
:100520008D00CE0107960E941904F801D183C08383
:1005300014861386D783C683DF91CF911F910F91C5
:10054000089540E855E260E070E083EC93E00C949D
:100550003D09CF93DF936DEE71E083EC93E00E9451
:10056000960BCCE3D3E0888199810E94230A1982FB
:1005700018828EE393E00E94640163EF71E083ECE4
:1005800093E0DF91CF910C94960B69EF71E087E4D3
:1005900093E00E94090B6CEF71E08EE493E00E94FF
:1005A000090B60E072E085E593E00E94090B64E0CE
:1005B00072E08CE593E00E94090B66E072E083E64E
:1005C00093E00E94090B68E072E08AE693E00E94E3
:1005D000090B6AE072E081E793E00E94090B64E096
:1005E00072E088E793E00E94090B6AE072E08FE70F
:1005F00093E00E94090B68E072E086E893E00E94B5
:10060000090B6DE072E08DE893E00E94090B8AE32C
:1006100093E00C948002CF93DF93C4E9D3E0279753
:10062000CE010E94980A83E0C734D807C1F7DF9152
:10063000CF910895CF92DF92EF92FF92CF93DF9305
:10064000EC016A017B0163E272E083EC93E00E94BB
:10065000960BC701B6010E94C2076EE372E083ECFD
:1006600093E00E94960B6AE572E083EC93E00E94AF
:10067000960BCE010E94F505CE0103960E94F5056A
:100680001E82DF91CF91FF90EF90DF90CF90089581
:10069000CF93DF93EC018E81811111C064E772E08A
:1006A00083EC93E00E94770B6AE070E0CE010E9439
:1006B000EF056BE070E0CE0103960E94EF0581E04C
:1006C0008E83DF91CF9108958F929F92AF92BF92C8
:1006D000CF92DF92EF92FF92CF93DF93EC016A010A
:1006E0007B010E94480360E070E0CE010E94360664
:1006F00064EB70E0CE0103960E94360661E972E079
:1007000083EC93E00E94770B29E23CE543E951E456
:10071000C701B6010E94E20D20E030E04AE754E450
:100720000E94310F0E944F0E4B015C012AE030E025
:10073000AB01BC0183EC93E00E94060C68EA72E016
:1007400083EC93E00E94770B22E030E0B701A60132
:1007500083EC93E00E94770D65ED72E083EC93E00B
:100760000E94960BB501A401CE010E941A036AED06
:1007700072E083EC93E0DF91CF91FF90EF90DF90F8
:10078000CF90BF90AF909F908F900C94960BCF928C
:10079000DF92EF92FF920F931F93CF93DF931F92FD
:1007A000CDB7DEB78C0169017A0169830E944803E5
:1007B00069816C3659F0623791F560E070E0C801EC
:1007C00003960E94360660E070E008C064EB70E0BB
:1007D000C80103960E94360664EB70E0C8010E94CF
:1007E000360629E23CE543E951E4C701B6010E941F
:1007F000E20D20E030E04AE754E40E94310F0E940D
:100800004F0EAB01BC01C8010F90DF91CF911F913A
:100810000F91FF90EF90DF90CF900C941A030F9000
:10082000DF91CF911F910F91FF90EF90DF90CF90CC
:100830000895CF93DF93EC0148E552E06EE070E05D
:1008400003960E944F0448E552E063E170E0CE0158
:1008500008960E944F0448E552E062E170E0CE0144
:100860000D96DF91CF910C944F04CF93DF93EC0161
:1008700003960E947A048883CE0108960E947A0427
:100880008983CE010D960E947A048A838881811122
:1008900002C0898101C081E0DF91CF910895FC0100
:1008A000728361835483438308950F931F93CF937F
:1008B000DF93EC018B0165EF72E083EC93E00E9423
:1008C000770B69817A814AE050E083EC93E00E94E3
:1008D0005E0C6CE073E083EC93E00E94770B4AE0DF
:1008E00050E0B80183EC93E0DF91CF911F910F911D
:1008F0000C94660C0F931F93CF93DF93EC018981C7
:100900000E9494068C01BC01CE010E94550481E036
:100910002B813C81021713070CF480E08883DF9160
:10092000CF911F910F9108951F920F920FB60F92C2
:1009300011242F933F934F935F936F937F938F93E4
:100940009F93AF93BF93EF93FF938091950387FF9E
:1009500005C010928500109284001AC02091950362
:10096000332727FD30958091940390E028173907AD
:100970007CF480919503992787FD9095FC01EE0FFB
:10098000FF1FE80FF91FEA56FC4F808186FD37C034
:10099000809195038F5F8093950320919503332772
:1009A00027FD30958091940390E028173907CCF506
:1009B000809195038C30F4F134C080919503992790
:1009C00087FD9095FC01EE0FFF1FE80FF91FEA5617
:1009D000FC4F808161E08F730E94170752C080E452
:1009E0009CE905C0809184009091850004969093C5
:1009F0008900809388008FEF8093950342C0809197
:100A00009503992787FD9095FC01EE0FFF1FE80FD6
:100A1000F91FEA56FC4F808160E08F730E94170730
:100A2000B7CF8091840090918500049680349C49D2
:100A3000B0F2D8CF809184009091850020919503E9
:100A4000332727FD3095F901EE0FFF1FE20FF31F4B
:100A5000EA56FC4F21813281820F931F90938900C7
:100A60008093880080919503992787FD9095FC01DC
:100A7000EE0FFF1FE80FF91FEA56FC4F808186FD3D
:100A80009CCFFF91EF91BF91AF919F918F917F91FB
:100A90006F915F914F913F912F910F900FBE0F90EB
:100AA0001F901895209194032C30A0F4FC01208312
:100AB000822F8F5F80939403822F90E0FC01EE0FD2
:100AC000FF1FE80FF91FEA56FC4F88EB9BE092836B
:100AD000818308952FEFFC0120830895DF92EF9228
:100AE000FF920F931F93CF93DF93EC01D62E7A01E1
:100AF000890188818C3008F065C061E08D2D0E94ED
:100B0000DF068881A82FB0E0FD01EE0FFF1FEA0F7E
:100B1000FB1FEA56FC4F2D2D2F739081907C922B5A
:100B2000908360E272E06E197F0977FF02C06D5F0B
:100B30007F4F7595679575956795698340E659E090
:100B4000401B510B57FF02C04D5F5F4F55954795B6
:100B5000559547954A836CE00E94A80F9CE0899FB9
:100B6000B001112420E030E0A901460F571FFA011F
:100B7000EE0FFF1FE40FF51FEA56FC4F908196FD24
:100B800015C02F5F3F4F2C30310571F71DC01092FB
:100B9000800082E080938100109285001092840092
:100BA000B19A80916F00826080936F00888190E09D
:100BB000FC01EE0FFF1FE80FF91FEA56FC4F808182
:100BC00080648083888103C0882309F3EFCFDF919D
:100BD000CF911F910F91FF90EF90DF90089520E645
:100BE00039E040E252E00C946E05FC01808190E017
:100BF000FC01EE0FFF1FE80FF91FEA56FC4F808142
:100C00008F7B80830895FC0180818C3070F5918109
:100C100028E830E0291B310997FD3395220F331F57
:100C2000220F331F621773077CF0928128E532E0B0
:100C3000291B310997FD3395220F331F220F331FD4
:100C4000621773070CF49B014FB7F89490E0FC0116
:100C5000EE0FFF1FE80FF91FEA56FC4F2250310933
:100C6000220F331F328321834FBF0895AF92BF926B
:100C7000CF92DF92EF92FF920F931F93CF93DF9368
:100C8000EC01603282E078070CF041C077FD04C0CF
:100C9000653B710524F405C060E070E002C064EBC0
:100CA00070E0298188E890E0821B910927FD9395E7
:100CB000880F991F880F991F5C01CC24B7FCC09442
:100CC000DC2C882777FD8095982F2A8148E552E013
:100CD000421B510927FD5395440F551F440F551FC3
:100CE0008A01222717FD2095322F3F932F931F93C0
:100CF0000F9314EBE12EF12C00E010E020E030E047
:100D0000A9010E94510A0F900F900F900F90CE01F1
:100D1000DF91CF911F910F91FF90EF90DF90CF90D7
:100D2000BF90AF900C9403068E3008F08E50877001
:100D300020910A0140E4249F90011124822B80938A
:100D40007C0080917A00806480937A0080917A00A0
:100D500086FDFCCF2091780030917900932F80E0C0
:100D6000AC01422B9A01C9010895833069F028F43F
:100D70008130A1F0823011F514C08630B1F0873097
:100D8000C1F08430D9F404C0809180008F7703C013
:100D9000809180008F7D80938000089584B58F7747
:100DA00002C084B58F7D84BD08958091B0008F7797
:100DB00003C08091B0008F7D8093B0000895CF93E1
:100DC000DF9390E0FC01E458FF4F4491FC01E057B1
:100DD000FF4F8491882341F190E0880F991FFC0117
:100DE000E255FF4F25913491D9018C559F4FFC015D
:100DF00085919491C82FD92F9FB7F8948C91611148
:100E000006C0409584238C938881842308C0623077
:100E100041F4242F209582238C938881842B88830E
:100E200002C0842B8C939FBFDF91CF9108950F93C5
:100E30001F93CF93DF931F92CDB7DEB7282F30E0FB
:100E4000F901E859FF4F8491F901E458FF4F1491DB
:100E5000F901E057FF4F04910023D1F0882321F0DE
:100E600069830E94B5066981E02FF0E0EE0FFF1F55
:100E7000EC55FF4F85919491DC019FB7F8948C91CC
:100E8000611103C01095812301C0812B8C939FBFFA
:100E90000F90DF91CF911F910F9108951F920F92A4
:100EA0000FB60F9211242F933F938F939F93AF937D
:100EB000BF938091BA039091BB03A091BC03B09102
:100EC000BD033091C203232F2D5F2D3720F40196EF
:100ED000A11DB11D05C0232F2A570296A11DB11DCA
:100EE0002093C2038093BA039093BB03A093BC03E7
:100EF000B093BD038091BE039091BF03A091C00346
:100F0000B091C1030196A11DB11D8093BE039093C2
:100F1000BF03A093C003B093C103BF91AF919F9152
:100F20008F913F912F910F900FBE0F901F901895AA
:100F30000F931F939FB7F8940091BE031091BF03C6
:100F40002091C0033091C10386B5A89B06C08F3F96
:100F500021F00F5F1F4F2F4F3F4F9FBF322F212F89
:100F6000102F0027080F111D211D311D42E0000F19
:100F7000111F221F331F4A95D1F7B801C9011F91D4
:100F80000F910895CF92DF92EF92FF92CF93DF936C
:100F90006B017C010E949807EB010EC00E9498072C
:100FA0006C1B7D0B683E734038F081E0C81AD10895
:100FB000E108F108C851DC4FC114D104E104F10487
:100FC00069F7DF91CF91FF90EF90DF90CF90089578
:100FD000789484B5826084BD84B5816084BD85B514
:100FE000826085BD85B5816085BDEEE6F0E08081DB
:100FF00081608083E1E8F0E01082808182608083FC
:10100000808181608083E0E8F0E08081816080837E
:10101000E1EBF0E0808184608083E0EBF0E08081B0
:1010200081608083EAE7F0E0808184608083808152
:1010300082608083808181608083808180688083FA
:101040001092C1000895FC0184859585FC01E05C47
:10105000FF4F20813181FC01EE5BFF4F8081918148
:10106000281B390B2F733327C9010895FC01848590
:101070009585FC01E05CFF4F40815181FC01EE5BF6
:10108000FF4F208131814217530741F00190F081D9
:10109000E02DE80FF91F208130E002C02FEF3FEF75
:1010A000C9010895FC0184859585FC01E05CFF4F32
:1010B00040815181FC01EE5BFF4F2081318142175D
:1010C000530781F0A081B181A80FB91F8C912081B5
:1010D00031812F5F3F4F2F73332731832083282F98
:1010E00030E002C02FEF3FEFC9010895FC0181A15C
:1010F000882329F0A489B5898C9186FFFBCF11A2A2
:101100000895CF93DF93FC0126853785D901A05C34
:10111000BF4F8D919C91119701968F739927E9018B
:10112000CE5BDF4F4881598184179507D9F30D9025
:10113000BC91A02DA20FB31F6C93A685B785A05CB0
:10114000BF4F11969C938E93A689B7892C9181E00D
:1011500090E0078C02C0880F991F0A94E2F7282BB1
:101160002C9381E081A30488F589E02D808180643F
:10117000808381E090E0DF91CF91089508951F92E0
:101180000F920FB60F9211242F933F934F938F938B
:101190009F93EF93FF938091C00082FD1CC040910C
:1011A000C6008091690490916A0401968F73992713
:1011B00020916B0430916C048217930771F0E091D9
:1011C0006904F0916A04E75DFB4F408390936A04E1
:1011D0008093690402C08091C600FF91EF919F91B6
:1011E0008F914F913F912F910F900FBE0F901F90B5
:1011F000189583EC93E00E942308892B11F00C943E
:10120000BE0808951F920F920FB60F9211242F93CC
:101210003F938F939F93EF93FF93209125043091F9
:10122000260480912704909128042817390731F467
:101230008091C1008F7D8093C10014C0E09127048C
:10124000F0912804EB51FC4F20818091270490916C
:10125000280401968F73992790932804809327047C
:101260002093C600FF91EF919F918F913F912F9115
:101270000F900FBE0F901F901895CF92DF92EF92B4
:10128000FF92CF93DF93EC016A017B01411581EE60
:10129000580761057105F9F0EC89FD8981E090E05E
:1012A00008A002C0880F991F0A94E2F7808360E0CB
:1012B00079E08DE390E0A70196010E94C20F2150D2
:1012C00031094109510956954795379527952115BB
:1012D00080E1380798F0EC89FD89108260E874E8B5
:1012E0008EE190E0A70196010E94C20F21503109C2
:1012F000410951095695479537952795E889F98908
:101300003083EA89FB89208319A2EE89FF89408115
:1013100081E090E09C010C8C02C0220F331F0A94E4
:10132000E2F7422B4083EE89FF8940819C010D8CBE
:1013300002C0220F331F0A94E2F7422B4083EE894A
:10134000FF8940819C010E8C02C0220F331F0A943A
:10135000E2F7422B4083EE89FF8920810F8C02C087
:10136000880F991F0A94E2F7809582238083DF918A
:10137000CF91FF90EF90DF90CF9008951092C60329
:101380001092C50388EE93E0A0E0B0E08093C7031D
:101390009093C803A093C903B093CA0382E293E079
:1013A0009093C4038093C30389E294E09093D003A5
:1013B0008093CF0385EE93E09093D2038093D10383
:1013C00085EC90E09093D4038093D30384EC90E079
:1013D0009093D6038093D50380EC90E09093D8034C
:1013E0008093D70381EC90E09093DA038093D90344
:1013F00082EC90E09093DC038093DB0386EC90E03A
:101400009093DE038093DD0384E08093DF0383E029
:101410008093E00387E08093E10385E08093E2031B
:1014200081E08093E30308950E94E8070E94A102EF
:10143000C9EFD8E00E94A9022097E1F30E94F908C1
:10144000F9CF0C941D100C94B8100F931F93CF93E9
:10145000DF9300D000D0CDB7DEB79B01AC016115A2
:1014600071058105910579F069833A834B835C832B
:101470000E94A41129813A814B815C810E94E40F72
:101480008B019C0103C000E010E09801B801C90184
:101490000F900F900F900F90DF91CF911F910F91B0
:1014A00008954F925F926F927F92AF92BF92CF92C8
:1014B000DF92EF92FF920F931F93CF93DF93CDB7FD
:1014C000DEB729013A01621B730B840B950B298946
:1014D0003A894B895C892A193B094C095D09298B9A
:1014E0003A8B4B8B5C8B9B01AC0169897A898B8928
:1014F0009C890E94980FE418F50806091709A801AD
:1015000097010E94E40F2A0D3B1D4C1D5D1DB90182
:10151000CA01DF91CF911F910F91FF90EF90DF9063
:10152000CF90BF90AF907F906F905F904F90089555
:10153000FC01808191810C94B810CF93DF93EC0172
:1015400088819981009711F00E94B8101982188241
:101550001D821C821B821A82DF91CF9108950F9306
:101560001F93CF93DF93EC018B016F5F7F4F8881D7
:1015700099810E94B211009731F0998388831B836F
:101580000A8381E001C080E0DF91CF911F910F912C
:101590000895CF93DF93EC0188819981892B31F0F5
:1015A0008A819B818617970708F00CC0CE010E94A4
:1015B000AF0A882349F08C819D81892B19F4E88139
:1015C000F981108281E001C080E0DF91CF91089520
:1015D000EF92FF920F931F93CF93DF93EC017B0168
:1015E0008A01BA010E94C90A811104C0CE010E9479
:1015F0009D0A07C01D830C83B701888199810E94D1
:101600008312CE01DF91CF911F910F91FF90EF9048
:101610000895DC0111961C921E9213961C921E9244
:10162000129715961C921E92149716961C9261158D
:10163000710559F0DB010D900020E9F7AD01415033
:101640005109461B570B0C94E80A0895FC012481AC
:1016500035816217730720F480819181009729F406
:1016600010926D046DE674E002C0680F791FCB0123
:101670000895CF92DF92EF92FF920F931F93CF9333
:10168000DF936C01EB017A01E60EF71E00E010E03B
:101690000BC06991D601ED91FC910190F081E02D94
:1016A000C6010995080F191FCE15DF0591F7C8016E
:1016B000DF91CF911F910F91FF90EF90DF90CF902E
:1016C00008956115710581F0DB010D900020E9F7A7
:1016D000AD0141505109461B570BDC01ED91FC91C6
:1016E0000280F381E02D099480E090E008950C944D
:1016F000610BDC01ED91FC910190F081E02D0994EA
:101700000F931F93CF93DF93EC016DE00E94790B51
:101710008C016AE0CE010E94790B9C01200F311FE1
:10172000C901DF91CF911F910F9108950F931F93DE
:10173000CF93DF93EC010E94610B8C01CE010E94DC
:10174000800B9801280F391FC901DF91CF911F919C
:101750000F9108954F925F926F927F929F92AF92F6
:10176000BF92CF92DF92EF92FF920F931F93CF938E
:10177000DF93CDB7DEB7A1970FB6F894DEBF0FBEEB
:10178000CDBF5C016A017B01922E19A281E0821714
:1017900010F08AE0982E8E010F5D1F4F492C512CBE
:1017A000612C712CC701B601A30192010E94C20FE6
:1017B0008C2D929E80191124015011098A3014F445
:1017C000805D01C0895CF801808369017A01C114E0
:1017D000D104E104F10431F7B801C5010E94610BA5
:1017E000A1960FB6F894DEBF0FBECDBFDF91CF91AB
:1017F0001F910F91FF90EF90DF90CF90BF90AF902F
:101800009F907F906F905F904F90089521153105C4
:1018100041F4DC01ED91FC910190F081E02D642F09
:1018200009940C94AA0BCF92DF92EF92FF920F9340
:101830001F93CF93DF93EC016A017B0121153105E2
:1018400079F4E881F9810190F081E02D642FDF9136
:10185000CF911F910F91FF90EF90DF90CF9009945F
:101860002A30310519F477FD0EC02AE0B701A60130
:10187000CE01DF91CF911F910F91FF90EF90DF90FC
:10188000CF900C94AA0B6DE20E94790B8C01442737
:101890005527BA014C195D096E097F092AE0CE016E
:1018A0000E94AA0B080F191FC801DF91CF911F9149
:1018B0000F91FF90EF90DF90CF9008959A01AB01C8
:1018C000662757FD6095762F0C94130C0F931F938A
:1018D000CF93DF93EC019A01AB01662757FD60952A
:1018E000762F0E94130C8C01CE010E94800B980170
:1018F000280F391FC901DF91CF911F910F910895D2
:101900007F928F929F92AF92BF92CF92DF92EF928F
:10191000FF920F931F93CF93DF93EC016A017B013A
:10192000122F9A01AB01C701B6010E94940F8823C0
:1019300019F06EE273E032C046015701E894B7F83F
:101940002FEF3FEF4FE75FE7C501B4010E94940F0F
:1019500081110DC02FEF3FEF4FE75FE7C501B401E5
:101960000E94DE0D18161CF462E373E017C02FEF1F
:101970003FEF4FE75FE4C701B6010E942D0F181635
:101980000CF40AC02FEF3FEF4FE75FECC701B60141
:101990000E94DE0D87FF12C066E373E0CE01DF9187
:1019A000CF911F910F91FF90EF90DF90CF90BF905C
:1019B000AF909F908F907F900C94610B20E030E06F
:1019C000A901C701B6010E94DE0D87FF0AC06DE2C2
:1019D000CE010E94790B5C01F7FAF094F7F8F094CD
:1019E00002C0A12CB12C00E060E070E080E09FE339
:1019F00007C020E030E040E251E40E94E20D0F5FBA
:101A00000113F7CF262F372F482F592FC701B601C3
:101A10000E947A0D762E872E982EC92E0E944F0E88
:101A2000D62EE72EF82E092F0E947B0E9B01AC01CB
:101A3000672D782D892D9C2D0E94790DC62E972E0D
:101A4000882E792E2AE04D2D5E2D6F2D702FCE0120
:101A50000E94AA0B7C01EA0CFB1C1123B9F16FE870
:101A600071E0CE010E94610BE80EF91E2FC020E04C
:101A700030E040E251E46C2D792D882D972D0E94A5
:101A8000310F762E072F6C019D2D0E944A0E4B01BF
:101A9000AA2497FCA094BA2C2AE030E0B501A40156
:101AA000CE010E94130CE80EF91EC501B4010E947C
:101AB0007D0E9B01AC01672D702F8C2D9D2D0E94FA
:101AC000790DC62E972E882E792E11501111CFCF59
:101AD000C701DF91CF911F910F91FF90EF90DF90A1
:101AE000CF90BF90AF909F908F907F9008950C946F
:101AF000800C5058BB27AA270ED075C166D130F094
:101B00006BD120F031F49F3F11F41EF45BC10EF451
:101B1000E095E7FB51C1E92F77D180F3BA1762074F
:101B200073078407950718F071F49EF58FC10EF4C2
:101B3000E0950B2EBA2FA02D0B01B90190010C01DD
:101B4000CA01A0011124FF27591B99F0593F50F4F5
:101B5000503E68F11A16F040A22F232F342F44274D
:101B6000585FF3CF469537952795A795F040539545
:101B7000C9F77EF41F16BA0B620B730B840BBAF015
:101B80009150A1F0FF0FBB1F661F771F881FC2F780
:101B90000EC0BA0F621F731F841F48F48795779594
:101BA0006795B795F7959E3F08F0B3CF9395880F4B
:101BB00008F09927EE0F979587950895D9D008F4E6
:101BC00081E008950CD00FC107D140F0FED030F075
:101BD00021F45F3F19F0F0C0511139C1F3C014D1A5
:101BE00098F39923C9F35523B1F3951B550BBB27E4
:101BF000AA2762177307840738F09F5F5F4F220F91
:101C0000331F441FAA1FA9F333D00E2E3AF0E0E889
:101C100030D091505040E695001CCAF729D0FE2FD5
:101C200027D0660F771F881FBB1F26173707480767
:101C3000AB07B0E809F0BB0B802DBF01FF2793581D
:101C40005F4F2AF09E3F510568F0B6C000C15F3F6C
:101C5000ECF3983EDCF3869577956795B795F79505
:101C60009F5FC9F7880F911D9695879597F90895FD
:101C7000E1E0660F771F881FBB1F62177307840799
:101C8000BA0720F0621B730B840BBA0BEE1F88F7A8
:101C9000E095089504D06894B111D9C00895BCD0DE
:101CA00088F09F5790F0B92F9927B751A0F0D1F045
:101CB000660F771F881F991F1AF0BA95C9F712C0CF
:101CC000B13081F0C3D0B1E00895C0C0672F782F44
:101CD0008827B85F39F0B93FCCF38695779567953B
:101CE000B395D9F73EF490958095709561957F4FA7
:101CF0008F4F9F4F0895E89409C097FB3EF490954D
:101D00008095709561957F4F8F4F9F4F9923A9F0D4
:101D1000F92F96E9BB279395F69587957795679563
:101D2000B795F111F8CFFAF4BB0F11F460FF1BC0A7
:101D30006F5F7F4F8F4F9F4F16C0882311F096E93A
:101D400011C0772321F09EE8872F762F05C06623E8
:101D500071F096E8862F70E060E02AF09A95660FA1
:101D6000771F881FDAF7880F9695879597F908955A
:101D7000990F0008550FAA0BE0E8FEEF161617069C
:101D8000E807F907C0F012161306E407F50798F004
:101D9000621B730B840B950B39F40A2661F0232B1D
:101DA000242B252B21F408950A2609F4A140A69599
:101DB0008FEF811D811D089597F99F6780E870E07E
:101DC00060E008959FEF80EC089500240A941616B1
:101DD000170618060906089500240A941216130619
:101DE000140605060895092E0394000C11F48823A7
:101DF00052F0BB0F40F4BF2B11F460FF04C06F5FC3
:101E00007F4F8F4F9F4F089557FD9058440F551F98
:101E100059F05F3F71F04795880F97FB991F61F06C
:101E20009F3F79F087950895121613061406551FE3
:101E3000F2CF4695F1DF08C0161617061806991F4F
:101E4000F1CF86957105610508940895E894BB2744
:101E500066277727CB0197F908958ADF08F48FEF7B
:101E600008950BD0C0CFB1DF28F0B6DF18F095236E
:101E700009F0A2CFA7CF1124EACFC6DFA0F3959F28
:101E8000D1F3950F50E0551F629FF001729FBB2761
:101E9000F00DB11D639FAA27F00DB11DAA1F649F0D
:101EA0006627B00DA11D661F829F2227B00DA11DC0
:101EB000621F739FB00DA11D621F839FA00D611D46
:101EC000221F749F3327A00D611D231F849F600D67
:101ED000211D822F762F6A2F11249F5750408AF0A0
:101EE000E1F088234AF0EE0FFF1FBB1F661F771F2C
:101EF000881F91505040A9F79E3F510570F05CCF6C
:101F0000A6CF5F3FECF3983EDCF386957795679517
:101F1000B795F795E7959F5FC1F7FE2B880F911D49
:101F20009695879597F9089523DF880B990B089567
:101F3000DB018F939F930E940010BF91AF91A29FEE
:101F4000800D911DA39F900DB29F900D11240895B7
:101F5000991B79E004C0991F961708F0961B881FFB
:101F60007A95C9F78095089587FB082E062687FD88
:101F7000819567FD61950E94A80F0EF4919507FC6D
:101F800081950895A1E21A2EAA1BBB1BFD010DC06D
:101F9000AA1FBB1FEE1FFF1FA217B307E407F50719
:101FA00020F0A21BB30BE40BF50B661F771F881FF5
:101FB000991F1A9469F760957095809590959B018B
:101FC000AC01BD01CF010895052E97FB16F40094D6
:101FD00007D057FD0DD00E94C20F07FC09D07EF438
:101FE00090958095709561957F4F8F4F9F4F089585
:101FF00050954095309521953F4F4F4F5F4F089535
:102000000E941110A59F900DB49F900DA49F800D6C
:10201000911D11240895EE0FFF1F0590F491E02DFE
:102020000994A29FB001B39FC001A39F01D0B29FAA
:10203000700D811D1124911D08950F931F93CF934F
:10204000DF938230910510F482E090E0E09170041B
:10205000F091710420E030E0C0E0D0E023C0408186
:10206000518148175907A8F04817590761F4828130
:102070009381209719F09B838A832EC090937104DB
:102080008093700429C02115310529F042175307A8
:1020900010F0A90102C0BE01DF0102811381EF012E
:1020A0009A01F8013097D9F62115310509F1281B5D
:1020B000390B2430310590F412968D919C91139731
:1020C0006115710521F0FB019383828304C0909315
:1020D000710480937004FD01329644C0FD01E20F4B
:1020E000F31F81939193225031092D933C933AC071
:1020F00020916E0430916F04232B41F42091020152
:102100003091030130936F0420936E0420910001FD
:10211000309101012115310541F42DB73EB74091B1
:10212000040150910501241B350BE0916E04F091E0
:102130006F04E217F307A0F42E1B3F0B2817390793
:1021400078F0AC014E5F5F4F2417350748F04E0F13
:102150005F1F50936F0440936E048193919302C06C
:10216000E0E0F0E0CF01DF91CF911F910F91089552
:10217000EF92FF920F931F93CF93DF93009709F491
:102180008EC0DC01129713961C921E921297E0905B
:102190007004F0907104E114F10489F42D913C91E4
:1021A0001197280F391F80916E0490916F04821748
:1021B000930789F5B0936F04A0936E0470C0E70194
:1021C00020E030E001C0EA01CA17DB0738F44A8199
:1021D0005B819E0141155105B1F722C0AC0142500F
:1021E0005109FA01D383C28300811181BC01600FC0
:1021F000711F6C177D0761F468817981600F711F11
:102200006E5F7F4F718360836A817B81738362839A
:102210002115310529F4B0937104A09370043FC0D7
:10222000F901B383A283E90149915991C40FD51FE4
:10223000AC17BD0771F4DC019E918E91840F951F40
:1022400002969183808312968D919C91139793832C
:102250008283A0E0B0E002C0D7017C01F701828157
:1022600093810097C9F7C701029620813181820FBF
:10227000931F20916E0430916F042817390779F469
:10228000109729F4109271041092700404C01396F0
:102290001C921E921297F0926F04E0926E04CDB7DA
:1022A000DEB7E6E00C94BA128F929F92AF92BF9283
:1022B000CF92DF92EF92FF92CF93DF93EC01688190
:1022C00079818A819B81611571058105910521F4D0
:1022D00064E279ED8BE597E02DE133EF41E050E0EA
:1022E0000E94E40F49015A019B01AC01A7EAB1E445
:1022F0000E9400106B017C01ACEEB4EFA5019401CB
:102300000E948D12C60ED71EE81EF91EF7FE06C0EB
:1023100081E0C81AD108E10880E8F80AC882D982A9
:10232000EA82FB82E894F7F8B601C701DF91CF910A
:10233000FF90EF90DF90CF90BF90AF909F908F90E5
:1023400008950E945411089586E091E00E9454116E
:10235000089560930601709307018093080190939C
:1023600009010895A0E0B0E0E8EBF1E10C949812C7
:10237000EC01009729F4CB010E941D10EC01B4C0C0
:10238000DC01A60FB71FFC013297AE17BF0718F488
:10239000C0E0D0E0A9C00081118106171707B0F096
:1023A0000530110508F4A0C0C801049786179707E7
:1023B00008F49AC002501109061B170B0D931D93C8
:1023C00071836083CD010E94B8108EC06B01C01A6A
:1023D000D10A7C01E00EF11EE0917004F0917104CD
:1023E00020E030E080E090E048C0EE15FF05D1F538
:1023F00080809180540142E0A40EB11CAC14BD0455
:1024000088F17401EC18FD08670122E0C20ED11CAE
:102410009E012250310945E0C416D10478F0428172
:10242000538113965C934E9312971196FC92EE9201
:10243000F901718360833A2F2B2F09C00E5F1F4F64
:10244000080D191DD9010D931C933281238100972A
:1024500021F0FC013283238347C030937004209322
:10246000710442C0808191812817390708F49C01CA
:1024700052814381CF01E52FF42F309709F0B5CF7A
:1024800080916E0490916F048E159F05F1F42617CC
:102490003707D8F48091000190910101009741F431
:1024A0008DB79EB72091040130910501821B930BDB
:1024B000A817B90708F06CCFB0936F04A0936E040F
:1024C000FE013297718360830FC0CB010E941D1003
:1024D0007C01009709F45CCFA801BE010E947A122A
:1024E000CE010E94B810E701CE01CDB7DEB7ECE017
:1024F0000C94B412FB01DC0102C001900D9241501A
:102500005040D8F70895FB01DC0101900D920020A6
:10251000E1F70895B7FF0C9400100E940010821B91
:10252000930B08952F923F924F925F926F927F92FA
:102530008F929F92AF92BF92CF92DF92EF92FF92D3
:102540000F931F93CF93DF93CDB7DEB7CA1BDB0B7F
:102550000FB6F894DEBF0FBECDBF09942A88398824
:1025600048885F846E847D848C849B84AA84B9842B
:10257000C884DF80EE80FD800C811B81AA81B98137
:10258000CE0FD11D0FB6F894DEBF0FBECDBFED014B
:10259000089510E0CCEBD0E004C0FE010E940D10C5
:0C25A0002296CE3BD107C9F7F894FFCF7C
:1025AC000000720420000100000001416C69676E9C
:1025BC004576656E743A20416C69676E6D656E7414
:1025CC00204576656E74205374617274696E672C45
:1025DC002073656E736F727320726561643A2000AC
:1025EC00204C6566742053656E736F72202D20002D
:1025FC002052696768742053656E736F72202D20AA
:10260C0000204D6964646C652053656E736F722095
:10261C002D20005175657565644576656E743A209C
:10262C00476F696E6720666F72776172642E2E2E0B
:10263C00005175657565644576656E743A20547500
:10264C00726E696E6720002072696768742E0020B4
:10265C006C6566742E005175657565644576656E9E
:10266C00743A20416C69676E696E670051756575C7
:10267C0065644576656E743A20446F696E672062B6
:10268C006F7820616E696D6174696F6E00676F6938
:10269C006E6700656E64656400463100545231000B
:1026AC00544C31004100420051004635002A0000D4
:1026BC000000008900D10072020000000089006453
:1026CC0001BE004D6F746F72436F6D6D616E64650A
:1026DC00723A2057616974696E672E2E2E004D6F09
:1026EC00746F72436F6D6D616E6465723A205265E2
:1026FC0073756D696E672E2E2E004D6F746F72435D
:10270C006F6D6D616E6465723A2053746F70706991
:10271C006E672E004D6F746F72436F6D6D616E64DA
:10272C0065723A2052652D417474616368696E67F5
:10273C00004D6F746F72436F6D6D616E6465723AAC
:10274C0020476F696E672000206D696C6C6973653A
:10275C00636F6E647320696E206F7264657220748F
:10276C006F20617474656D707420746F2074726165
:10277C0076656C2000206D6D2E004D6F746F72436A
:10278C006F6D6D616E6465723A20556E626C6F632D
:10279C006B696E670053656E736F723A2053656E8A
:1027AC00736F72206F6E2070696E200020726561ED
:1027BC006420612076616C7565206F6620000000D6
:1027CC0000008108390B23085208360876086E6120
:0A27DC006E00696E66006F766600FD
:00000001FF
