:100000000C945E000C9486000C9486000C94860080
:100010000C9486000C9486000C9486000C94860048
:100020000C9486000C9486000C9486000C94680353
:100030000C9486000C9486000C9486000C94860028
:100040000C946A050C9486000C94270A0C946A0A96
:100050000C9486000C9486000C9486000C94860008
:100060000C9486000C94860000000007000201003A
:100070000003040600000000000000000102040864
:100080001020408001020408102001020408102002
:10009000040404040404040402020202020203032E
:1000A0000303030300000000250028002B000000CC
:1000B0000000240027002A00DE01260B11241FBEA9
:1000C000CFEFD8E0DEBFCDBF12E0A0E0B1E0E4E5C5
:1000D000FFE102C005900D92AA3AB107D9F713E0EB
:1000E000AAEAB2E001C01D92AB38B107E1F710E017
:1000F000CCEBD0E004C02297FE010E94300FC83B39
:10010000D107C9F70E94ED060C94A80F0C940000CB
:10011000FC0173836283089581E0089540E050E01C
:1001200060E271E4FC01828193810C946E02CF93B2
:10013000DF93EC018A819B8107960E940A02EA8183
:10014000FB8180858E8387818D8381858C83DF9180
:10015000CF910895CF93DF93EC010E9497008D819A
:10016000811102C08E8101C081E0DF91CF9108959D
:10017000CF92DF92EF92FF92CF93DF93EC01E88171
:10018000F9810480F581E02D0995882309F475C073
:10019000CE010E9497006BE071E08DED92E00E942D
:1001A000380760E471E08DED92E00E9438076D81C0
:1001B00070E04AE050E08DED92E00E940A0860E5B0
:1001C00071E08DED92E00E9438076E8170E04AE0A8
:1001D00050E08DED92E00E940A0861E671E08DED3D
:1001E00092E00E9438076C8170E04AE050E08DEDAB
:1001F00092E00E94120884E6C82ED12CE12CF12C4A
:10020000E881F9810480F581E02DCE0109958823EC
:10021000A1F18E818823A9F065E670E080E090E08E
:100220000E942409A70196010E94040FCA01B90186
:100230000E94AB0D9B01AC016CE68A819B810E9400
:10024000D1028D818823A9F065E670E080E090E01E
:100250000E942409A70196010E94040FCA01B90156
:100260000E94AB0D9B01AC0162E78A819B810E94D9
:10027000D102CE010E949700C3CFDF91CF91FF90B2
:10028000EF90DF90CF9008950F931F93CF93DF935C
:10029000EC010E9424048E010D5F1F4FC8010E94D3
:1002A00024046AE070E0CE010E94BE046BE070E0BE
:1002B000C8010E94BE0481E08E83CE010796DF91C3
:1002C000CF911F910F910C94EE010F931F93CF9339
:1002D000DF93EC018B018A819B810E947E0B1B8244
:1002E0001A820115110569F001301105A9F484E0A5
:1002F00090E00E947C0B2DE831E0FC0131832083EB
:1003000009C087E090E00E947C0B23E831E0DC012B
:100310002D933C939B838A838A819B81DC01ED91A1
:10032000FC91688179810190F081E02DDF91CF917E
:100330001F910F91099440E855E260E070E08DED67
:1003400092E00C94A50A63E771E08DED92E00E94C3
:10035000550760E070E08AEA92E00E9465018091B2
:10036000AC029091AD02DC01ED91FC910480F5812D
:10037000E02D0995882359F08091AC029091AD024F
:10038000DC01ED91FC910280F381E02D099561E0A3
:1003900070E08AEA92E00E9465018091AC0290913F
:1003A000AD02DC01ED91FC910280F381E02D099515
:1003B00069E771E08DED92E00C945507CF93DF93E0
:1003C00089E190E00E947C0BEC010E944401D093F3
:1003D000AB02C093AA02DF91CF910895CF93DF9330
:1003E000EC0148E552E06EE070E003960E942303C2
:1003F00048E552E063E170E0CE0108960E942303D5
:1004000048E552E062E170E0CE010D96DF91CF91B8
:100410000C942303CF93DF93EC0103960E944E03C9
:100420008883CE0108960E944E038983CE010D96E3
:100430000E944E038A838881811102C0898101C094
:1004400081E0DF91CF910895CF92DF92EF92FF92FA
:10045000CF93DF93EC016A017B0163E971E08DEDDD
:1004600092E00E945507C701B6010E94D7056EEAC7
:1004700071E08DED92E00E9455076AEC71E08DED20
:1004800092E00E945507CE010E94C404CE0103965B
:100490000E94C4041E82DF91CF91FF90EF90DF9005
:1004A000CF900895CF93DF93EC018E81811111C01D
:1004B00064EE71E08DED92E00E9438076AE070E032
:1004C000CE010E94BE046BE070E0CE0103960E9454
:1004D000BE0481E08E83DF91CF9108958F929F9229
:1004E000AF92BF92CF92DF92EF92FF92CF93DF93C2
:1004F000EC014A015B010E94520260E070E0CE0113
:100500000E94050564EB70E0CE0103960E9405058C
:1005100061E072E08DED92E00E94380729E23CE54F
:1005200043E951E4C501B4010E94100D20E030E020
:100530004AE754E40E945F0E0E947D0D6B017C012E
:100540002AE030E0AB01BC018DED92E00E942A0868
:1005500068E172E08DED92E00E94380722E030E021
:10056000B501A4018DED92E00E94220965E472E0DC
:100570008DED92E00E945507B701A601CE010E94C1
:1005800024026AE472E08DED92E0DF91CF91FF905A
:10059000EF90DF90CF90BF90AF909F908F900C9492
:1005A0005507CF92DF92EF92FF920F931F93CF9355
:1005B000DF931F92CDB7DEB78C0169017A016983A1
:1005C0000E94520269816C3659F0623791F560E001
:1005D00070E0C80103960E94050560E070E008C065
:1005E00064EB70E0C80103960E94050564EB70E0BF
:1005F000C8010E94050529E23CE543E951E4C70131
:10060000B6010E94100D20E030E04AE754E40E9459
:100610005F0E0E947D0DAB01BC01C8010F90DF9100
:10062000CF911F910F91FF90EF90DF90CF900C949E
:1006300024020F90DF91CF911F910F91FF90EF90C7
:10064000DF90CF900895FC017283618354834383CC
:1006500008950F931F93CF93DF93EC018B0165E611
:1006600072E08DED92E00E94380769817A814AE05C
:1006700050E08DED92E00E940A086CE772E08DED8B
:1006800092E00E9438074AE050E0B8018DED92E018
:10069000DF91CF911F910F910C9412080F931F932C
:1006A000CF93DF93EC0189810E9438068C01BC0155
:1006B000CE010E94290381E02B813C8102171307A0
:1006C0000CF480E08883DF91CF911F910F91089502
:1006D0001F920F920FB60F9211242F933F934F93B7
:1006E0005F936F937F938F939F93AF93BF93EF939A
:1006F000FF938091AF0287FF05C010928500109292
:1007000084001AC02091AF02332727FD30958091D5
:10071000AE0290E0281739077CF48091AF02992748
:1007200087FD9095FC01EE0FFF1FE80FF91FE055C4
:10073000FD4F808186FD15C08091AF028F5F809351
:10074000AF022091AF02332727FD30958091AE0292
:1007500090E028173907BCF48091AF028C305CF12F
:1007600012C08091AF02992787FD9095FC01EE0F92
:10077000FF1FE80FF91FE055FD4F808160E08F7388
:100780000E94B706D9CF809184009091850004968D
:1007900080349C4918F480E49CE905C08091840071
:1007A00090918500049690938900809388008FEF44
:1007B0008093AF0238C08091840090918500209191
:1007C000AF02332727FD3095F901EE0FFF1FE20F2F
:1007D000F31FE055FD4F21813281820F931F9093CB
:1007E0008900809388008091AF02992787FD9095BA
:1007F000FC01EE0FFF1FE80FF91FE055FD4F808150
:1008000086FF11C08091AF02992787FD9095FC016A
:10081000EE0FFF1FE80FF91FE055FD4F808161E0EB
:100820008F730E94B706FF91EF91BF91AF919F9197
:100830008F917F916F915F914F913F912F910F9089
:100840000FBE0F901F9018952091AE022C30A0F48F
:1008500031E0320F3093AE02FC012083822F90E012
:10086000FC01EE0FFF1FE80FF91FE055FD4F88EB6D
:100870009BE09283818308952FEFFC0120830895EC
:10088000DF92EF92FF920F931F93CF93DF93EC01D0
:10089000D62E7A01890188818C3008F066C061E02B
:1008A0008D2D0E947E068881A82FB0E0FD01EE0FFD
:1008B000FF1FEA0FFB1FE055FD4F2D2D2F73908179
:1008C000907C922B908360E272E06E197F0977FF33
:1008D00002C06D5F7F4F75956795759567956983C4
:1008E00040E659E0401B510B57FF02C04D5F5F4F80
:1008F00055954795559547954A836CE00E94D60ECD
:100900009CE0899FB001112420E030E0A901460F4E
:10091000571FFA01EE0FFF1FE40FF51FE055FD4FC3
:10092000908196FD16C02F5F3F4F2C30310571F737
:1009300081110FC01092800082E08093810010929C
:10094000850010928400B19A80916F00826080933C
:100950006F00888190E0FC01EE0FFF1FE80FF91F88
:10096000E055FD4F8081806480838881DF91CF9145
:100970001F910F91FF90EF90DF90089520E639E0EE
:1009800040E252E00C944004FC01808190E0FC01C4
:10099000EE0FFF1FE80FF91FE055FD4F80818F7BA1
:1009A00080830895FC0180818C3070F5918128E866
:1009B00030E0291B310997FD3395220F331F220F99
:1009C000331F621773077CF0928128E532E0291B00
:1009D000310997FD3395220F331F220F331F621702
:1009E00073070CF49B014FB7F89490E0FC01EE0FF5
:1009F000FF1FE80FF91FE055FD4F22503109220F6C
:100A0000331F328321834FBF08954F925F926F92BD
:100A10007F92AF92BF92CF92DF92EF92FF920F93AD
:100A20001F93CF93DF93EC01603282E078070CF0E4
:100A300040C077FD06C0653B71052CF064EB70E0AB
:100A400002C060E070E0898128E830E0281B3109AD
:100A500087FD3395220F331F220F331F5901CC24FA
:100A6000B7FCC094DC2C882777FD8095982F2A81CD
:100A700048E552E0421B510927FD5395440F551F8D
:100A8000440F551F2A01662457FC6094762C7F92F0
:100A90006F925F924F9214EBE12EF12C00E010E088
:100AA00020E030E0A9010E9448090F900F900F90BC
:100AB0000F90CE01DF91CF911F910F91FF90EF909A
:100AC000DF90CF90BF90AF907F906F905F904F90EE
:100AD0000C94D2041F920F920FB60F9211242F93F1
:100AE0003F938F939F93AF93BF938091D502909143
:100AF000D602A091D702B091D8023091D40223E05F
:100B0000230F2D3720F40196A11DB11D05C026E845
:100B1000230F0296A11DB11D2093D4028093D5020C
:100B20009093D602A093D702B093D8028091D902B5
:100B30009091DA02A091DB02B091DC020196A11D36
:100B4000B11D8093D9029093DA02A093DB02B09397
:100B5000DC02BF91AF919F918F913F912F910F90A8
:100B60000FBE0F901F9018953FB7F8948091D9024F
:100B70009091DA02A091DB02B091DC0226B5A89B2D
:100B800005C02F3F19F00196A11DB11D3FBF66277B
:100B9000782F892F9A2F620F711D811D911D42E0C0
:100BA000660F771F881F991F4A95D1F70895CF9236
:100BB000DF92EF92FF92CF93DF936B017C010E9453
:100BC000B405EB01C114D104E104F10479F00E94F1
:100BD000B4056C1B7D0B683E7340A0F381E0C81A1E
:100BE000D108E108F108C851DC4FECCFDF91CF917B
:100BF000FF90EF90DF90CF900895789484B5826055
:100C000084BD84B5816084BD85B5826085BD85B5B0
:100C1000816085BDEEE6F0E0808181608083E1E85F
:100C2000F0E0108280818260808380818160808397
:100C3000E0E8F0E0808181608083E1EBF0E080819A
:100C400084608083E0EBF0E0808181608083EAE76C
:100C5000F0E08081846080838081826080838081F5
:100C6000816080838081806880831092C1000895B4
:100C70008E3008F08E5087702091040190E4299FF7
:100C800090011124822B80937C0080917A008064F3
:100C900080937A0080917A0086FDFCCF8091780065
:100CA0002091790090E0922B0895833081F028F410
:100CB000813099F08230A1F008958630A9F0873014
:100CC000B9F08430D1F4809180008F7D03C0809191
:100CD00080008F7780938000089584B58F7702C05D
:100CE00084B58F7D84BD08958091B0008F7703C057
:100CF0008091B0008F7D8093B0000895CF93DF93F3
:100D000090E0FC01E458FF4F2491FC01E057FF4FB5
:100D10008491882349F190E0880F991FFC01E255E6
:100D2000FF4FA591B4918C559F4FFC01C591D49173
:100D30009FB7611108C0F8948C91209582238C9301
:100D4000888182230AC0623051F4F8948C91322F4A
:100D5000309583238C938881822B888304C0F894F8
:100D60008C91822B8C939FBFDF91CF9108950F932D
:100D70001F93CF93DF931F92CDB7DEB7282F30E0BC
:100D8000F901E859FF4F8491F901E458FF4F14919C
:100D9000F901E057FF4F04910023C9F0882321F0A7
:100DA00069830E9455066981E02FF0E0EE0FFF1F76
:100DB000EC55FF4FA591B4919FB7F8948C916111B8
:100DC00003C01095812301C0812B8C939FBF0F908E
:100DD000DF91CF911F910F9108950E94FD050E9410
:100DE0009B01C1E6DAE00E94A3012097E1F30E9493
:100DF000610AF9CFCF92DF92EF92FF920F931F9388
:100E0000CF93DF936C017A01EB01E60EF71E00E051
:100E100010E0CE15DF0561F06991D601ED91FC91EE
:100E20000190F081E02DC6010995080F191FF1CF3F
:100E3000C801DF91CF911F910F91FF90EF90DF904C
:100E4000CF9008956115710581F0DB010D900020B0
:100E5000E9F7AD0141505109461B570BDC01ED91FB
:100E6000FC910280F381E02D099480E090E00895E8
:100E70000C942207DC01ED91FC910190F081E02DB2
:100E800009940F931F93CF93DF93EC016DE00E94C1
:100E90003A078C016AE0CE010E943A07800F911F49
:100EA000DF91CF911F910F9108950F931F93CF93CF
:100EB000DF93EC010E9422078C01CE010E944107C2
:100EC000800F911FDF91CF911F910F9108958F9205
:100ED0009F92AF92BF92CF92DF92EF92FF920F93C9
:100EE0001F93CF93DF93CDB7DEB7A1970FB6F894DA
:100EF000DEBF0FBECDBF7C01C42EE52FCB01D22EAD
:100F000019A221E02D1510F02AE0D22E8E010F5DDE
:100F10001F4F8D2C912CA12CB12C6C2D7E2FA50157
:100F200094010E94E20E8C2DD29E80191124015052
:100F300011098A3014F4805D01C0895CF801808356
:100F4000211531054105510521F0C22EE32FCA01BB
:100F5000E4CFB801C7010E942207A1960FB6F8940A
:100F6000DEBF0FBECDBFDF91CF911F910F91FF90DC
:100F7000EF90DF90CF90BF90AF909F908F900895AB
:100F8000CF92DF92EF92FF920F931F93CF93DF9355
:100F9000EC016A017B012115310579F4E881F981C1
:100FA0000190F081E02D642FDF91CF911F910F917F
:100FB000FF90EF90DF90CF9009942A303105E9F44B
:100FC00077FF1AC06DE20E943A078C01442755272B
:100FD000BA014C195D096E097F092AE0CE010E9411
:100FE0006707800F911FDF91CF911F910F91FF90A5
:100FF000EF90DF90CF9008952AE0B701A601CE01CF
:10100000DF91CF911F910F91FF90EF90DF90CF90E4
:101010000C9467079A01AB01662757FD6095762F00
:101020000C94C0070F931F93CF93DF93EC019A01A9
:10103000AB01662757FD6095762F0E94C0078C0193
:10104000CE010E944107800F911FDF91CF911F9128
:101050000F9108952115310541F4DC01ED91FC91CA
:101060000190F081E02D642F09940C9467074F9252
:101070005F926F927F928F929F92AF92BF92CF9228
:10108000DF92EF92FF920F931F93CF93DF93EC01C8
:101090006A017B01B22E9A01AB01C701B6010E9421
:1010A000C20E882319F06EE872E027C026013701CE
:1010B000E89477F82FEF3FEF4FE75FE7C301B20106
:1010C0000E94C20E81110DC02FEF3FEF4FE75FE787
:1010D000C301B2010E940C0D18161CF462E972E003
:1010E0000CC02FEF3FEF4FE75FE4C701B6010E944E
:1010F0005B0E1816ACF466E972E0CE01DF91CF9179
:101100001F910F91FF90EF90DF90CF90BF90AF9025
:101110009F908F907F906F905F904F900C942207DC
:101120002FEF3FEF4FE75FECC701B6010E940C0DB8
:1011300087FDE1CF20E030E0A901C701B6010E94A0
:101140000C0D87FF0AC06DE2CE010E943A078C01A8
:10115000F7FAF094F7F8F09402C000E010E0A12C48
:1011600060E070E080E09FE3AB1441F020E030E00D
:1011700040E251E40E94100DA394F6CF9B01AC0114
:10118000C701B6010E94A80C6B017C010E947D0D75
:101190002B013C010E94A90D9B01AC01C701B601C6
:1011A0000E94A70C6B017C012AE0B301A201CE01D1
:1011B0000E946707080F191FBB2039F068EC71E027
:1011C000CE010E942207080F191F7B2C772041F1C6
:1011D00020E030E040E251E4C701B6010E945F0E1A
:1011E0006B017C010E94780D4B01AA2497FCA0940E
:1011F000BA2C2AE030E0B501A401CE010E94C0075C
:10120000080F191FC501B4010E94AB0D9B01AC0171
:10121000C701B6010E94A70C6B017C017A94D6CF5E
:10122000C801DF91CF911F910F91FF90EF90DF9058
:10123000CF90BF90AF909F908F907F906F905F9076
:101240004F9008950C943708CF93DF9300D000D0CF
:10125000CDB7DEB79B01AC01611571058105910524
:1012600069F069833A834B835C830E94920F2981E2
:101270003A814B815C810E94040F03C060E070E002
:10128000CB010F900F900F900F90DF91CF910895A9
:101290004F925F926F927F92AF92BF92CF92DF9206
:1012A000EF92FF920F931F93CF93DF93CDB7DEB7EB
:1012B00029013A01621B730B840B950B29893A892A
:1012C0004B895C892A193B094C095D09298B3A8BAA
:1012D0004B8B5C8B9B01AC0169897A898B899C89DA
:1012E0000E94C60EE418F50806091709A80197011F
:1012F0000E94040F2A0D3B1D4C1D5D1DCA01B90142
:10130000DF91CF911F910F91FF90EF90DF90CF90E1
:10131000BF90AF907F906F905F904F900895FC01C9
:1013200024853585F901E05CFF4F80819181F901C9
:10133000EE5BFF4F20813181821B930B8F739927C6
:101340000895FC0184859585FC01E05CFF4F408198
:101350005181FC01EE5BFF4F208131814217530721
:1013600041F00190F081E02DE80FF91F808190E0BD
:1013700008958FEF9FEF0895FC0184859585FC010A
:10138000E05CFF4F40815181FC01EE5BFF4F20810B
:1013900031814217530779F0A081B181A80FB91F9D
:1013A0008C91208131812F5F3F4F2F733327318301
:1013B000208390E008958FEF9FEF0895FC0181A1B5
:1013C000882329F0A489B5898C9186FFFBCF11A2CF
:1013D0000895CF93DF93FC0126853785D901A05C62
:1013E000BF4F8D919C91119701968F739927E901B9
:1013F000CE5BDF4F4881598184179507D9F30D9053
:10140000BC91A02DA20FB31F6C93A685B785A05CDD
:10141000BF4F11969C938E93A689B7892C9181E03A
:1014200090E0078C02C0880F991F0A94E2F7282BDE
:101430002C9381E081A30488F589E02D808180646C
:10144000808381E090E0DF91CF91089508951F920D
:101450000F920FB60F9211242F933F934F938F93B8
:101460009F93EF93FF938091C00082FD1CC0409139
:10147000C600809183039091840301968F7399270E
:1014800020918503309186038217930771F0E091D4
:101490008303F0918403ED5BFC4F408390938403BE
:1014A0008093830302C08091C600FF91EF919F91CA
:1014B0008F914F913F912F910F900FBE0F901F90E2
:1014C00018958DED92E00E948F09892B11F00C94F4
:1014D000260A08951F920F920FB60F9211242F9390
:1014E0003F938F939F93EF93FF9320913F0330910E
:1014F000400380914103909142032817390731F44A
:101500008091C1008F7D8093C10014C0E0914103A0
:10151000F0914203E150FD4F208180914103909171
:10152000420301968F73992790934203809341035E
:101530002093C600FF91EF919F918F913F912F9142
:101540000F900FBE0F901F901895CF92DF92EF92E1
:10155000FF92CF93DF93EC016A017B01411581EE8D
:10156000580761057105F9F0EC89FD8981E090E08B
:1015700008A002C0880F991F0A94E2F7808360E0F8
:1015800079E08DE390E0A70196010E94E20E2150E0
:1015900031094109510956954795379527952115E8
:1015A00080E1380798F0EC89FD89108260E874E8E2
:1015B0008EE190E0A70196010E94E20E21503109D0
:1015C000410951095695479537952795E889F98935
:1015D0003083EA89FB89208319A2EE89FF89408143
:1015E00081E090E09C010C8C02C0220F331F0A9412
:1015F000E2F7422B4083EE89FF8940819C010D8CEC
:1016000002C0220F331F0A94E2F7422B4083EE8977
:10161000FF8940819C010E8C02C0220F331F0A9467
:10162000E2F7422B4083EE89FF8920810F8C02C0B4
:10163000880F991F0A94E2F7809582238083DF91B7
:10164000CF91FF90EF90DF90CF9008951092E0023D
:101650001092DF0288EE93E0A0E0B0E08093E10218
:101660009093E202A093E302B093E4028EE992E049
:101670009093DE028093DD0283E493E09093EA028C
:101680008093E9028FEF92E09093EC028093EB025B
:1016900085EC90E09093EE028093ED0284EC90E074
:1016A0009093F0028093EF0280EC90E09093F2022E
:1016B0008093F10281EC90E09093F4028093F30226
:1016C00082EC90E09093F6028093F50286EC90E035
:1016D0009093F8028093F70284E08093F90283E00C
:1016E0008093FA0287E08093FB0285E08093FC02FE
:1016F00081E08093FD0208950C94800B0C94180CEB
:10170000CF93DF938230910510F482E090E0E09176
:101710008903F0918A0320E030E0A0E0B0E0309748
:1017200039F14081518148175907B8F048175907D6
:1017300071F482819381109729F013969C938E9374
:1017400012972CC090938A038093890327C0211598
:10175000310531F04217530718F0A901DB0101C030
:10176000EF019A01BD01DF010280F381E02DD7CFA7
:1017700021153105F9F0281B390B2430310580F48F
:101780008A819B816115710521F0FB01938382831E
:1017900004C090938A0380938903FE01329644C06B
:1017A000FE01E20FF31F8193919322503109398397
:1017B00028833AC02091870330918803232B41F47A
:1017C000209107013091080130938803209387030B
:1017D00020910501309106012115310541F42DB705
:1017E0003EB74091090150910A01241B350BE0914D
:1017F0008703F0918803E217F307A0F42E1B3F0B39
:101800002817390778F0AC014E5F5F4F2417350772
:1018100048F04E0F5F1F50938803409387038193D6
:10182000919302C0E0E0F0E0CF01DF91CF91089505
:10183000CF93DF93009709F487C0FC01329713829E
:101840001282C0918903D0918A03209781F420816C
:101850003181280F391F8091870390918803821767
:10186000930779F5F0938803E09387036DC0DE0159
:1018700020E030E0AE17BF0750F412964D915C9116
:1018800013979D014115510509F1DA01F3CFB38397
:10189000A28340815181840F951F8A179B0771F4A1
:1018A0008D919C911197840F951F0296918380834F
:1018B00012968D919C911397938382832115310504
:1018C00029F4F0938A03E09389033EC0D90113966B
:1018D000FC93EE9312974D915D91A40FB51FEA17FB
:1018E000FB0779F480819181840F951F0296D901BD
:1018F00011969C938E938281938113969C938E93E1
:101900001297E0E0F0E08A819B81009719F0FE01D8
:10191000EC01F9CFCE01029628813981820F931F05
:1019200020918703309188032817390769F430978D
:1019300029F410928A031092890302C01382128242
:10194000D0938803C0938703DF91CF9108955058B7
:10195000BB27AA270ED075C166D130F06BD120F01D
:1019600031F49F3F11F41EF45BC10EF4E095E7FBE8
:1019700051C1E92F77D180F3BA1762077307840743
:10198000950718F071F49EF58FC10EF4E0950B2EBB
:10199000BA2FA02D0B01B90190010C01CA01A001C1
:1019A0001124FF27591B99F0593F50F4503E68F11C
:1019B0001A16F040A22F232F342F4427585FF3CF5D
:1019C000469537952795A795F0405395C9F77EF42E
:1019D0001F16BA0B620B730B840BBAF09150A1F077
:1019E000FF0FBB1F661F771F881FC2F70EC0BA0FFD
:1019F000621F731F841F48F4879577956795B79585
:101A0000F7959E3F08F0B3CF9395880F08F099277C
:101A1000EE0F979587950895D9D008F481E0089541
:101A20000CD00FC107D140F0FED030F021F45F3F61
:101A300019F0F0C0511139C1F3C014D198F39923B2
:101A4000C9F35523B1F3951B550BBB27AA27621782
:101A50007307840738F09F5F5F4F220F331F441FC7
:101A6000AA1FA9F333D00E2E3AF0E0E830D09150FF
:101A70005040E695001CCAF729D0FE2F27D0660FEC
:101A8000771F881FBB1F261737074807AB07B0E82B
:101A900009F0BB0B802DBF01FF2793585F4F2AF041
:101AA0009E3F510568F0B6C000C15F3FECF3983E21
:101AB000DCF3869577956795B795F7959F5FC9F79E
:101AC000880F911D9695879597F90895E1E0660F27
:101AD000771F881FBB1F621773078407BA0720F0A0
:101AE000621B730B840BBA0BEE1F88F7E095089509
:101AF00004D06894B111D9C00895BCD088F09F5724
:101B000090F0B92F9927B751A0F0D1F0660F771F49
:101B1000881F991F1AF0BA95C9F712C0B13081F029
:101B2000C3D0B1E00895C0C0672F782F8827B85F71
:101B300039F0B93FCCF3869577956795B395D9F78A
:101B40003EF490958095709561957F4F8F4F9F4F94
:101B50000895E89409C097FB3EF4909580957095A0
:101B600061957F4F8F4F9F4F9923A9F0F92F96E9E9
:101B7000BB279395F695879577956795B795F1115E
:101B8000F8CFFAF4BB0F11F460FF1BC06F5F7F4FFB
:101B90008F4F9F4F16C0882311F096E911C077230D
:101BA00021F09EE8872F762F05C0662371F096E816
:101BB000862F70E060E02AF09A95660F771F881FE5
:101BC000DAF7880F9695879597F90895990F000889
:101BD000550FAA0BE0E8FEEF16161706E807F907FF
:101BE000C0F012161306E407F50798F0621B730B9A
:101BF000840B950B39F40A2661F0232B242B252B1B
:101C000021F408950A2609F4A140A6958FEF811DBD
:101C1000811D089597F99F6780E870E060E008955E
:101C20009FEF80EC089500240A94161617061806F4
:101C30000906089500240A941216130614060506D0
:101C40000895092E0394000C11F4882352F0BB0F61
:101C500040F4BF2B11F460FF04C06F5F7F4F8F4FC4
:101C60009F4F089557FD9058440F551F59F05F3FFF
:101C700071F04795880F97FB991F61F09F3F79F0AE
:101C800087950895121613061406551FF2CF469530
:101C9000F1DF08C0161617061806991FF1CF8695B2
:101CA0007105610508940895E894BB276627772796
:101CB000CB0197F908958ADF08F48FEF08950BD0D0
:101CC000C0CFB1DF28F0B6DF18F0952309F0A2CF1E
:101CD000A7CF1124EACFC6DFA0F3959FD1F3950FCC
:101CE00050E0551F629FF001729FBB27F00DB11DA0
:101CF000639FAA27F00DB11DAA1F649F6627B00D30
:101D0000A11D661F829F2227B00DA11D621F739F18
:101D1000B00DA11D621F839FA00D611D221F749F26
:101D20003327A00D611D231F849F600D211D822F6D
:101D3000762F6A2F11249F5750408AF0E1F08823B4
:101D40004AF0EE0FFF1FBB1F661F771F881F9150C1
:101D50005040A9F79E3F510570F05CCFA6CF5F3F82
:101D6000ECF3983EDCF3869577956795B795F795F4
:101D7000E7959F5FC1F7FE2B880F911D969587957C
:101D800097F9089523DF880B990B0895DB018F9352
:101D90009F930E94230FBF91AF91A29F800D911D31
:101DA000A39F900DB29F900D11240895991B79E087
:101DB00004C0991F961708F0961B881F7A95C9F7DB
:101DC00080950895A1E21A2EAA1BBB1BFD010DC030
:101DD000AA1FBB1FEE1FFF1FA217B307E407F507DB
:101DE00020F0A21BB30BE40BF50B661F771F881FB7
:101DF000991F1A9469F760957095809590959B014D
:101E0000AC01BD01CF010895052E97FB1EF400948F
:101E10000E941B0F57FD07D00E94E20E07FC03D063
:101E20004EF40C941B0F50954095309521953F4FE3
:101E30004F4F5F4F089590958095709561957F4FB6
:101E40008F4F9F4F08950E94340FA59F900DB49F10
:101E5000900DA49F800D911D11240895EE0FFF1F7A
:101E60000590F491E02D0994A29FB001B39FC001A9
:101E7000A39F700D811D1124911DB29F700D811DB6
:101E80001124911D08958F929F92AF92BF92CF928D
:101E9000DF92EF92FF92CF93DF93EC01688179811B
:101EA0008A819B81611571058105910521F464E2A8
:101EB00079ED8BE597E02DE133EF41E050E00E94B2
:101EC000040F49015A019B01AC01A7EAB1E40E9449
:101ED000230F6B017C01ACEEB4EFA50194010E94CD
:101EE000A30FC60ED71EE81EF91EF7FE06C081E03E
:101EF000C81AD108E10880E8F80AC882D982EA82C3
:101F0000FB82C701B6019F77DF91CF91FF90EF90E1
:101F1000DF90CF90BF90AF909F908F9008950E94D8
:101F2000430F089580E091E00E94430F089560936D
:101F300000017093010180930201909303010895C1
:101F4000B7FF0C94230F0E94230F821B930B08955D
:041F5000F894FFCF33
:101F5400010000000100008B038000416C69676E82
:101F64004576656E743A20416C69676E6D656E7472
:101F7400204576656E74205374617274696E672CA3
:101F84002073656E736F727320726561643A20000A
:101F9400204C6566742053656E736F72202D20008B
:101FA4002052696768742053656E736F72202D2008
:101FB40000204D6964646C652053656E736F7220F4
:101FC4002D2000676F696E6700656E6465640000AC
:101FD4000000008800B800AA000000000088008EFD
:101FE400008C004D6F746F72436F6D6D616E64652C
:101FF400723A2057616974696E672E2E2E004D6FF8
:10200400746F72436F6D6D616E6465723A205265D0
:1020140073756D696E672E2E2E004D6F746F72434B
:102024006F6D6D616E6465723A2053746F70706980
:102034006E672E004D6F746F72436F6D6D616E64C9
:1020440065723A2052652D417474616368696E67E4
:10205400004D6F746F72436F6D6D616E6465723A9B
:1020640020476F696E672000206D696C6C69736529
:10207400636F6E647320696E206F7264657220747E
:102084006F20617474656D707420746F2074726154
:1020940076656C2000206D6D2E004D6F746F724359
:1020A4006F6D6D616E6465723A20556E626C6F631C
:1020B4006B696E670053656E736F723A2053656E79
:1020C400736F72206F6E2070696E200020726561DC
:1020D4006420612076616C7565206F6620006E61F6
:1020E4006E00696E66006F76660000000000E90904
:0A20F400FA068F09BC09A109DE09F4
:00000001FF
