:100000000C945E000C9486000C9486000C94860080
:100010000C9486000C9486000C9486000C94860048
:100020000C9486000C9486000C9486000C94450277
:100030000C9486000C9486000C9486000C94860028
:100040000C9447040C9486000C94E6070C94290841
:100050000C9486000C9486000C9486000C94860008
:100060000C9486000C94860000000007000201003A
:100070000003040600000000000000000102040864
:100080001020408001020408102001020408102002
:10009000040404040404040402020202020203032E
:1000A0000303030300000000250028002B000000CC
:1000B0000000240027002A001E01E50811241FBEAD
:1000C000CFEFD8E0DEBFCDBF12E0A0E0B1E0EAE5BF
:1000D000F8E102C005900D92A232B107D9F713E002
:1000E000A2E2B2E001C01D92A330B107E1F710E037
:1000F000CCEBD0E004C02297FE010E94180CC83B54
:10010000D107C9F70E94CA050C942B0C0C9400006F
:10011000FC017383628308951F93CF93DF93EC01F7
:100120008A819B8107960E944A01EA81FB81808532
:1001300017819185992329F0111119C0811103C0EC
:1001400018C0882341F020E030E040E85FE36CE62F
:10015000CF010E94AE01112319F320E030E040E806
:100160005FE362E78A819B810E94AE01D9CF882339
:1001700091F3DF91CF911F9108950F931F93CF9328
:10018000DF93EC010E9401038E010D5F1F4FC80138
:100190000E9401036AE070E0CE010E949B036BE0C5
:1001A00070E0C8010E949B0381E08E83CE01079618
:1001B000DF91CF911F910F910C942E0140E855E2F1
:1001C00060E070E085E592E00C946408CF93DF93E3
:1001D0006BE071E085E592E00E943206C4E2D2E075
:1001E000888199810E943D091982188284E090E0FB
:1001F0000E943B092BE131E0DC012D933C93998374
:100200008883C2E2D2E0688179810E9488008A8175
:100210009B81DC01ED91FC910280F381E02D099539
:1002200061E171E085E592E00E94320664EF71E0E1
:1002300080E090E0DF91CF910C94B404CF93DF93F2
:1002400089E190E00E943B09EC010E94BD00D0933F
:100250002302C0932202DF91CF910895CF93DF93C1
:10026000EC0148E552E06EE070E003960E94000267
:1002700048E552E063E170E0CE0108960E9400027A
:1002800048E552E062E170E0CE010D96DF91CF913A
:100290000C940002CF93DF93EC0103960E942B0293
:1002A0008883CE0108960E942B028983CE010D9689
:1002B0000E942B028A838881811102C0898101C03A
:1002C00081E0DF91CF910895CF92DF92EF92FF927C
:1002D000CF93DF93EC016A017B016FE171E085E56B
:1002E00092E00E943206C701B6010E94B4046AE39C
:1002F00071E085E592E00E94320666E571E085E5F1
:1003000092E00E943206CE010E94A103CE01039624
:100310000E94A1031E82DF91CF91FF90EF90DF90AA
:10032000CF900895CF93DF93EC018E81811111C09E
:1003300060E771E085E592E00E9415066AE070E0F2
:10034000CE010E949B036BE070E0CE0103960E94F9
:100350009B0381E08E83DF91CF910895CF92DF924E
:10036000EF92FF920F931F93CF93DF931F92CDB71E
:10037000DEB78C0169017A0169830E94920169816B
:100380006C3659F0623791F560E070E0C801039671
:100390000E94E20360E070E008C064EB70E0C80116
:1003A00003960E94E20364EB70E0C8010E94E2033E
:1003B00029E23CE543E951E4C701B6010E94660A1F
:1003C00020E030E04AE754E40E944B0B0E94CE0A42
:1003D000AB01BC01C8010F90DF91CF911F910F912C
:1003E000FF90EF90DF90CF900C9464010F90DF911D
:1003F000CF911F910F91FF90EF90DF90CF900895D4
:10040000FC01728361835483438308950F931F9388
:10041000CF93DF93EC018B0161EF71E085E592E012
:100420000E94150669817A814AE050E085E592E0F4
:100430000E94E70660E072E085E592E00E94150602
:100440004AE050E0B80185E592E0DF91CF911F913D
:100450000F910C94EF060F931F93CF93DF93EC0152
:1004600089810E9415058C01BC01CE010E94060203
:1004700081E02B813C81021713070CF480E0888314
:10048000DF91CF911F910F9108951F920F920FB698
:100490000F9211242F933F934F935F936F937F930A
:1004A0008F939F93AF93BF93EF93FF938091270216
:1004B00087FF05C010928500109284001AC0209119
:1004C0002702332727FD30958091260290E02817D8
:1004D00039077CF480912702992787FD9095FC01CC
:1004E000EE0FFF1FE80FF91FE85DFD4F808186FDCD
:1004F00015C0809127028F5F8093270220912702E9
:10050000332727FD30958091260290E02817390780
:10051000BCF4809127028C305CF112C080912702DC
:10052000992787FD9095FC01EE0FFF1FE80FF91F3B
:10053000E85DFD4F808160E08F730E949405D9CF04
:100540008091840090918500049680349C4918F431
:1005500080E49CE905C08091840090918500049618
:1005600090938900809388008FEF8093270238C092
:10057000809184009091850020912702332727FDE8
:100580003095F901EE0FFF1FE20FF31FE85DFD4FFD
:1005900021813281820F931F90938900809388007C
:1005A00080912702992787FD9095FC01EE0FFF1F90
:1005B000E80FF91FE85DFD4F808186FF11C0809133
:1005C0002702992787FD9095FC01EE0FFF1FE80F8A
:1005D000F91FE85DFD4F808161E08F730E949405F3
:1005E000FF91EF91BF91AF919F918F917F916F910B
:1005F0005F914F913F912F910F900FBE0F901F90E1
:100600001895209126022C30A0F431E0320F30935F
:100610002602FC012083822F90E0FC01EE0FFF1FD9
:10062000E80FF91FE85DFD4F88EB9BE09283818323
:1006300008952FEFFC0120830895DF92EF92FF923F
:100640000F931F93CF93DF93EC01D62E7A0189018C
:1006500088818C3008F066C061E08D2D0E945B05BA
:100660008881A82FB0E0FD01EE0FFF1FEA0FFB1FEE
:10067000E85DFD4F2D2D2F739081907C922B908300
:1006800060E272E06E197F0977FF02C06D5F7F4FF5
:100690007595679575956795698340E659E0401BA8
:1006A000510B57FF02C04D5F5F4F559547955595CC
:1006B00047954A836CE00E94BE0B9CE0899FB00185
:1006C000112420E030E0A901460F571FFA01EE0F78
:1006D000FF1FE40FF51FE85DFD4F908196FD16C0EA
:1006E0002F5F3F4F2C30310571F781110FC01092F1
:1006F000800082E080938100109285001092840037
:10070000B19A80916F00826080936F00888190E041
:10071000FC01EE0FFF1FE80FF91FE85DFD4F808120
:10072000806480838881DF91CF911F910F91FF902A
:10073000EF90DF90089520E639E040E252E00C941B
:100740001D03FC01808190E0FC01EE0FFF1FE80F0C
:10075000F91FE85DFD4F80818F7B80830895FC0148
:1007600080818C3070F5918128E830E0291B3109B7
:1007700097FD3395220F331F220F331F6217730724
:100780007CF0928128E532E0291B310997FD3395F1
:10079000220F331F220F331F621773070CF49B01C4
:1007A0004FB7F89490E0FC01EE0FFF1FE80FF91F20
:1007B000E85DFD4F22503109220F331F3283218320
:1007C0004FBF08954F925F926F927F92AF92BF9208
:1007D000CF92DF92EF92FF920F931F93CF93DF930D
:1007E000EC01603282E078070CF040C077FD06C073
:1007F000653B71052CF064EB70E002C060E070E0D6
:10080000898128E830E0281B310987FD3395220FC4
:10081000331F220F331F5901CC24B7FCC094DC2CAA
:10082000882777FD8095982F2A8148E552E0421B62
:10083000510927FD5395440F551F440F551F2A0199
:10084000662457FC6094762C7F926F925F924F9251
:1008500014EBE12EF12C00E010E020E030E0A901E3
:100860000E9407070F900F900F900F90CE01DF911D
:10087000CF911F910F91FF90EF90DF90CF90BF909D
:10088000AF907F906F905F904F900C94AF031F924A
:100890000F920FB60F9211242F933F938F939F9334
:1008A000AF93BF9380914D0290914E02A0914F0261
:1008B000B091500230914C0223E0230F2D3720F4E9
:1008C0000196A11DB11D05C026E8230F0296A11DAA
:1008D000B11D20934C0280934D0290934E02A09341
:1008E0004F02B09350028091510290915202A09118
:1008F0005302B09154020196A11DB11D8093510283
:1009000090935202A0935302B0935402BF91AF91BF
:100910009F918F913F912F910F900FBE0F901F903D
:1009200018953FB7F8948091510290915202A0918E
:100930005302B091540226B5A89B05C02F3F19F071
:100940000196A11DB11D3FBF6627782F892F9A2FD1
:10095000620F711D811D911D42E0660F771F881F78
:10096000991F4A95D1F70895CF92DF92EF92FF92A7
:10097000CF93DF936B017C010E949104EB01C114C2
:10098000D104E104F10479F00E9491046C1B7D0B09
:10099000683E7340A0F381E0C81AD108E108F1086D
:1009A000C851DC4FECCFDF91CF91FF90EF90DF90FB
:1009B000CF900895789484B5826084BD84B58160B9
:1009C00084BD85B5826085BD85B5816085BDEEE657
:1009D000F0E0808181608083E1E8F0E01082808136
:1009E00082608083808181608083E0E8F0E08081A4
:1009F00081608083E1EBF0E0808184608083E0EBC4
:100A0000F0E0808181608083EAE7F0E080818460AB
:100A10008083808182608083808181608083808107
:100A2000806880831092C10008958E3008F08E5047
:100A300087702091040190E4299F90011124822B5A
:100A400080937C0080917A00806480937A0080910A
:100A50007A0086FDFCCF809178002091790090E0AB
:100A6000922B0895833081F028F4813099F0823000
:100A7000A1F008958630A9F08730B9F08430D1F420
:100A8000809180008F7D03C0809180008F7780935C
:100A90008000089584B58F7702C084B58F7D84BDB2
:100AA00008958091B0008F7703C08091B0008F7D52
:100AB0008093B0000895CF93DF9390E0FC01E45859
:100AC000FF4F2491FC01E057FF4F8491882349F1A7
:100AD00090E0880F991FFC01E255FF4FA591B4915A
:100AE0008C559F4FFC01C591D4919FB7611108C0EF
:100AF000F8948C91209582238C93888182230AC05C
:100B0000623051F4F8948C91322F309583238C937A
:100B10008881822B888304C0F8948C91822B8C93DB
:100B20009FBFDF91CF9108950F931F93CF93DF93D2
:100B30001F92CDB7DEB7282F30E0F901E859FF4FFB
:100B40008491F901E458FF4F1491F901E057FF4FE8
:100B500004910023C9F0882321F069830E943205A3
:100B60006981E02FF0E0EE0FFF1FEC55FF4FA591DC
:100B7000B4919FB7F8948C91611103C010958123B3
:100B800001C0812B8C939FBF0F90DF91CF911F915C
:100B90000F9108950E94DA040E94DE00C0E2D8E0BE
:100BA0000E94E6002097E1F30E942008F9CFCF923F
:100BB000DF92EF92FF920F931F93CF93DF936C011D
:100BC0007A01EB01E60EF71E00E010E0CE15DF051E
:100BD00061F06991D601ED91FC910190F081E02DD9
:100BE000C6010995080F191FF1CFC801DF91CF91F8
:100BF0001F910F91FF90EF90DF90CF9008956115B6
:100C0000710581F0DB010D900020E9F7AD01415045
:100C10005109461B570BDC01ED91FC910280F381D9
:100C2000E02D099480E090E008950C94FF05DC012C
:100C3000ED91FC910190F081E02D09940F931F93A9
:100C4000CF93DF93EC016DE00E9417068C016AE000
:100C5000CE010E941706800F911FDF91CF911F9147
:100C60000F9108950F931F93CF93DF93EC010E9490
:100C7000FF058C01CE010E941E06800F911FDF919F
:100C8000CF911F910F9108958F929F92AF92BF9233
:100C9000CF92DF92EF92FF920F931F93CF93DF9348
:100CA000CDB7DEB7A1970FB6F894DEBF0FBECDBFAC
:100CB0007C01C42EE52FCB01D22E19A221E02D15E7
:100CC00010F02AE0D22E8E010F5D1F4F8D2C912C3B
:100CD000A12CB12C6C2D7E2FA50194010E94CA0B72
:100CE0008C2DD29E80191124015011098A3014F4E0
:100CF000805D01C0895CF8018083211531054105C3
:100D0000510521F0C22EE32FCA01E4CFB801C7017B
:100D10000E94FF05A1960FB6F894DEBF0FBECDBFAF
:100D2000DF91CF911F910F91FF90EF90DF90CF90C7
:100D3000BF90AF909F908F900895CF92DF92EF92E7
:100D4000FF920F931F93CF93DF93EC016A017B0116
:100D50002115310579F4E881F9810190F081E02DC8
:100D6000642FDF91CF911F910F91FF90EF90DF9053
:100D7000CF9009942A303105E9F477FF1AC06DE26B
:100D80000E9417068C0144275527BA014C195D09AA
:100D90006E097F092AE0CE010E944406800F911F50
:100DA000DF91CF911F910F91FF90EF90DF90CF9047
:100DB00008952AE0B701A601CE01DF91CF911F91DE
:100DC0000F91FF90EF90DF90CF900C9444069A0122
:100DD000AB01662757FD6095762F0C949D060F9307
:100DE0001F93CF93DF93EC019A01AB01662757FD68
:100DF0006095762F0E949D068C01CE010E941E06F2
:100E0000800F911FDF91CF911F910F9108954F9205
:100E10005F926F927F92AF92BF92CF92DF92EF92EA
:100E2000FF920F931F93CF93DF93CDB7DEB72901C6
:100E30003A01621B730B840B950B29893A894B8904
:100E40005C892A193B094C095D09298B3A8B4B8B2C
:100E50005C8B9B01AC0169897A898B899C890E9492
:100E6000AE0BE418F50806091709A80197010E94BE
:100E7000EC0B2A0D3B1D4C1D5D1DCA01B901DF9114
:100E8000CF911F910F91FF90EF90DF90CF90BF9087
:100E9000AF907F906F905F904F900895FC012485F4
:100EA0003585F901E05CFF4F80819181F901EE5BAE
:100EB000FF4F20813181821B930B8F7399270895F7
:100EC000FC0184859585FC01E05CFF4F40815181E8
:100ED000FC01EE5BFF4F208131814217530741F047
:100EE0000190F081E02DE80FF91F808190E00895D6
:100EF0008FEF9FEF0895FC0184859585FC01E05CF0
:100F0000FF4F40815181FC01EE5BFF4F2081318119
:100F10004217530779F0A081B181A80FB91F8C91B6
:100F2000208131812F5F3F4F2F73332731832083FF
:100F300090E008958FEF9FEF0895FC0181A1882331
:100F400029F0A489B5898C9186FFFBCF11A2089561
:100F5000CF93DF93FC0126853785D901A05CBF4F75
:100F60008D919C91119701968F739927E901CE5B22
:100F7000DF4F4881598184179507D9F30D90BC91B3
:100F8000A02DA20FB31F6C93A685B785A05CBF4FA1
:100F900011969C938E93A689B7892C9181E090E05D
:100FA000078C02C0880F991F0A94E2F7282B2C9314
:100FB00081E081A30488F589E02D808180648083AD
:100FC00081E090E0DF91CF91089508951F920F92F4
:100FD0000FB60F9211242F933F934F938F939F93AC
:100FE000EF93FF938091C00082FD1CC04091C6002A
:100FF0008091FB029091FC0201968F7399272091BA
:10100000FD023091FE028217930771F0E091FB021E
:10101000F091FC02E554FD4F40839093FC028093D5
:10102000FB0202C08091C600FF91EF919F918F91CA
:101030004F913F912F910F900FBE0F901F901895D9
:1010400085E592E00E944E07892B11F00C94E5078C
:1010500008951F920F920FB60F9211242F933F9372
:101060008F939F93EF93FF932091B7023091B80233
:101070008091B9029091BA022817390731F4809112
:10108000C1008F7D8093C10014C0E091B902F0913E
:10109000BA02E958FD4F20818091B9029091BA02BD
:1010A00001968F7399279093BA028093B902209387
:1010B000C600FF91EF919F918F913F912F910F90DB
:1010C0000FBE0F901F901895CF92DF92EF92FF9274
:1010D000CF93DF93EC016A017B01411581EE580744
:1010E00061057105F9F0EC89FD8981E090E008A0C7
:1010F00002C0880F991F0A94E2F7808360E079E0CC
:101100008DE390E0A70196010E94CA0B215031099E
:10111000410951095695479537952795211580E145
:10112000380798F0EC89FD89108260E874E88EE158
:1011300090E0A70196010E94CA0B21503109410994
:1011400051095695479537952795E889F989308350
:10115000EA89FB89208319A2EE89FF89408181E019
:1011600090E09C010C8C02C0220F331F0A94E2F71E
:10117000422B4083EE89FF8940819C010D8C02C087
:10118000220F331F0A94E2F7422B4083EE89FF8936
:1011900040819C010E8C02C0220F331F0A94E2F79B
:1011A000422B4083EE89FF8920810F8C02C0880F7B
:1011B000991F0A94E2F7809582238083DF91CF9173
:1011C000FF90EF90DF90CF90089510925802109208
:1011D000570288EE93E0A0E0B0E08093590290932C
:1011E0005A02A0935B02B0935C0286E192E0909376
:1011F0005602809355028BEB92E0909362028093AB
:10120000610287E792E0909364028093630285EC29
:1012100090E0909366028093650284EC90E0909356
:1012200068028093670280EC90E090936A0280935A
:10123000690281EC90E090936C0280936B0282ECE7
:1012400090E090936E0280936D0286EC90E0909314
:10125000700280936F0284E08093710283E0809338
:10126000720287E08093730285E08093740281E0CC
:101270008093750208950C943F090C94D709CF937D
:10128000DF938230910510F482E090E0E091010359
:10129000F091020320E030E0A0E0B0E0309739F1B7
:1012A0004081518148175907B8F04817590771F420
:1012B00082819381109729F013969C938E931297B5
:1012C0002CC0909302038093010327C021153105A0
:1012D00031F04217530718F0A901DB0101C0EF01FB
:1012E0009A01BD01DF010280F381E02DD7CF2115E6
:1012F0003105F9F0281B390B2430310580F48A813F
:101300009B816115710521F0FB019383828304C0E9
:101310009093020380930103FE01329644C0FE01C4
:10132000E20FF31F8193919322503109398328836F
:101330003AC02091FF0230910003232B41F4209109
:10134000070130910801309300032093FF022091A0
:101350000501309106012115310541F42DB73EB745
:101360004091090150910A01241B350BE091FF02C5
:10137000F0910003E217F307A0F42E1B3F0B281790
:10138000390778F0AC014E5F5F4F2417350748F0FE
:101390004E0F5F1F509300034093FF028193919380
:1013A00002C0E0E0F0E0CF01DF91CF910895CF934C
:1013B000DF93009709F487C0FC01329713821282F1
:1013C000C0910103D0910203209781F420813181E3
:1013D000280F391F8091FF02909100038217930715
:1013E00079F5F0930003E093FF026DC0DE0120E089
:1013F00030E0AE17BF0750F412964D915C911397F1
:101400009D014115510509F1DA01F3CFB383A283A0
:1014100040815181840F951F8A179B0771F48D912C
:101420009C911197840F951F029691838083129649
:101430008D919C911397938382832115310529F413
:10144000F0930203E09301033EC0D9011396FC938D
:10145000EE9312974D915D91A40FB51FEA17FB070C
:1014600079F480819181840F951F0296D90111969C
:101470009C938E938281938113969C938E93129763
:10148000E0E0F0E08A819B81009719F0FE01EC0119
:10149000F9CFCE01029628813981820F931F2091C6
:1014A000FF02309100032817390769F4309729F4B7
:1014B000109202031092010302C013821282D09391
:1014C0000003C093FF02DF91CF9108950CD0A9C013
:1014D000A1D040F098D030F021F45F3F19F08AC0DD
:1014E0005111D3C08DC0AED098F39923C9F35523C1
:1014F000B1F3951B550BBB27AA2762177307840707
:1015000038F09F5F5F4F220F331F441FAA1FA9F3BC
:1015100033D00E2E3AF0E0E830D091505040E695AE
:10152000001CCAF729D0FE2F27D0660F771F881F0F
:10153000BB1F261737074807AB07B0E809F0BB0BFE
:10154000802DBF01FF2793585F4F2AF09E3F510522
:1015500068F050C09AC05F3FECF3983EDCF386958C
:1015600077956795B795F7959F5FC9F7880F911D98
:101570009695879597F90895E1E0660F771F881F84
:10158000BB1F621773078407BA0720F0621B730B37
:10159000840BBA0BEE1F88F7E09508955BD088F0B6
:1015A0009F5790F0B92F9927B751A0F0D1F0660F4F
:1015B000771F881F991F1AF0BA95C9F712C0B1306A
:1015C00081F062D0B1E008955FC0672F782F88273F
:1015D000B85F39F0B93FCCF3869577956795B395A9
:1015E000D9F73EF490958095709561957F4F8F4F18
:1015F0009F4F089597F99F6780E870E060E0089535
:101600009FEF80EC089500240A941616170618061A
:101610000906089500240A941216130614060506F6
:101620000895092E0394000C11F4882352F0BB0F87
:1016300040F4BF2B11F460FF04C06F5F7F4F8F4FEA
:101640009F4F089557FD9058440F551F59F05F3F25
:1016500071F04795880F97FB991F61F09F3F79F0D4
:1016600087950895121613061406551FF2CF469556
:10167000F1DF08C0161617061806991FF1CF8695D8
:101680007105610508940895E894BB2766277727BC
:10169000CB0197F908950BD0C4CFB5DF28F0BADF9E
:1016A00018F0952309F0A6CFABCF1124EECFCADFF7
:1016B000A0F3959FD1F3950F50E0551F629FF00165
:1016C000729FBB27F00DB11D639FAA27F00DB11DBE
:1016D000AA1F649F6627B00DA11D661F829F222747
:1016E000B00DA11D621F739FB00DA11D621F839FCE
:1016F000A00D611D221F749F3327A00D611D231FA4
:10170000849F600D211D822F762F6A2F11249F57F1
:1017100050408AF0E1F088234AF0EE0FFF1FBB1F14
:10172000661F771F881F91505040A9F79E3F5105B3
:1017300070F060CFAACF5F3FECF3983EDCF3869564
:1017400077956795B795F795E7959F5FC1F7FE2B5E
:10175000880F911D9695879597F90895DB018F93D2
:101760009F930E940B0CBF91AF91A29F800D911D82
:10177000A39F900DB29F900D11240895991B79E0BD
:1017800004C0991F961708F0961B881F7A95C9F711
:1017900080950895A1E21A2EAA1BBB1BFD010DC066
:1017A000AA1FBB1FEE1FFF1FA217B307E407F50711
:1017B00020F0A21BB30BE40BF50B661F771F881FED
:1017C000991F1A9469F760957095809590959B0183
:1017D000AC01BD01CF010895052E97FB1EF40094C6
:1017E0000E94030C57FD07D00E94CA0B07FC03D0D0
:1017F0004EF40C94030C50954095309521953F4F35
:101800004F4F5F4F089590958095709561957F4FEC
:101810008F4F9F4F08950E941C0CA59F900DB49F61
:10182000900DA49F800D911D11240895EE0FFF1FB0
:101830000590F491E02D0994A29FB001B39FC001DF
:10184000A39F700D811D1124911DB29F700D811DEC
:0A1850001124911D0895F894FFCFB4
:10185A000100000001000003038000676F696E67E2
:10186A0000656E646564000000000088008C004D0D
:10187A006F746F72436F6D6D616E6465723A205753
:10188A00616974696E672E2E2E004D6F746F7243F4
:10189A006F6D6D616E6465723A20526573756D691C
:1018AA006E672E2E2E004D6F746F72436F6D6D61D1
:1018BA006E6465723A2053746F7070696E672E0099
:1018CA004D6F746F72436F6D6D616E6465723A200D
:1018DA0052652D417474616368696E67004D6F7457
:1018EA006F72436F6D6D616E6465723A20476F69FE
:1018FA006E672000206D696C6C697365636F6E6436
:10190A007320696E206F7264657220746F2061742F
:10191A0074656D707420746F2074726176656C20C2
:10192A0000206D6D2E004D6F746F72436F6D6D6187
:10193A006E6465723A20556E626C6F636B696E678E
:10194A000053656E736F72206F6E2070696E20008F
:10195A00207265616420612076616C7565206F660E
:10196A00200000000000A807D7054E077B07600784
:02197A009D07C7
:00000001FF
